{
  "_format": "hh-sol-artifact-1",
  "contractName": "DimoriMain",
  "sourceName": "contracts/DimoriMain.sol",
  "abi": [
    {
      "inputs": [
        {
          "internalType": "uint256",
          "name": "_listingFee",
          "type": "uint256"
        },
        {
          "internalType": "address",
          "name": "_priceFeedAddress",
          "type": "address"
        }
      ],
      "stateMutability": "nonpayable",
      "type": "constructor"
    },
    {
      "inputs": [],
      "name": "AlreadyBooked",
      "type": "error"
    },
    {
      "inputs": [],
      "name": "CannotRemoveRental",
      "type": "error"
    },
    {
      "inputs": [],
      "name": "InsufficientAmount",
      "type": "error"
    },
    {
      "inputs": [],
      "name": "InvalidBookingId",
      "type": "error"
    },
    {
      "inputs": [],
      "name": "InvalidBookingPeriod",
      "type": "error"
    },
    {
      "inputs": [],
      "name": "InvalidFee",
      "type": "error"
    },
    {
      "inputs": [],
      "name": "InvalidRentalId",
      "type": "error"
    },
    {
      "inputs": [],
      "name": "OnlyAdmin",
      "type": "error"
    },
    {
      "inputs": [],
      "name": "TransferFailed",
      "type": "error"
    },
    {
      "anonymous": false,
      "inputs": [
        {
          "indexed": false,
          "internalType": "uint256",
          "name": "id",
          "type": "uint256"
        },
        {
          "indexed": false,
          "internalType": "uint256",
          "name": "rentalId",
          "type": "uint256"
        },
        {
          "indexed": false,
          "internalType": "address",
          "name": "rentalOwner",
          "type": "address"
        },
        {
          "indexed": false,
          "internalType": "address",
          "name": "renter",
          "type": "address"
        },
        {
          "indexed": false,
          "internalType": "uint256",
          "name": "bookDateStart",
          "type": "uint256"
        },
        {
          "indexed": false,
          "internalType": "uint256",
          "name": "bookDateEnd",
          "type": "uint256"
        },
        {
          "indexed": false,
          "internalType": "uint256",
          "name": "timestamp",
          "type": "uint256"
        }
      ],
      "name": "NewBookAdded",
      "type": "event"
    },
    {
      "anonymous": false,
      "inputs": [
        {
          "indexed": false,
          "internalType": "uint256",
          "name": "id",
          "type": "uint256"
        },
        {
          "indexed": false,
          "internalType": "address",
          "name": "owner",
          "type": "address"
        },
        {
          "indexed": false,
          "internalType": "string",
          "name": "name",
          "type": "string"
        },
        {
          "indexed": false,
          "internalType": "string",
          "name": "city",
          "type": "string"
        },
        {
          "indexed": false,
          "internalType": "string",
          "name": "theme",
          "type": "string"
        },
        {
          "indexed": false,
          "internalType": "string",
          "name": "contactAddress",
          "type": "string"
        },
        {
          "indexed": false,
          "internalType": "string",
          "name": "latitude",
          "type": "string"
        },
        {
          "indexed": false,
          "internalType": "string",
          "name": "longitude",
          "type": "string"
        },
        {
          "indexed": false,
          "internalType": "string",
          "name": "description",
          "type": "string"
        },
        {
          "indexed": false,
          "internalType": "string",
          "name": "imgUrl",
          "type": "string"
        },
        {
          "indexed": false,
          "internalType": "uint256",
          "name": "maxGuests",
          "type": "uint256"
        },
        {
          "indexed": false,
          "internalType": "uint256",
          "name": "pricePerDay",
          "type": "uint256"
        },
        {
          "indexed": false,
          "internalType": "uint256",
          "name": "timestamp",
          "type": "uint256"
        }
      ],
      "name": "NewRentalCreated",
      "type": "event"
    },
    {
      "anonymous": false,
      "inputs": [
        {
          "indexed": false,
          "internalType": "uint256",
          "name": "id",
          "type": "uint256"
        },
        {
          "indexed": false,
          "internalType": "address",
          "name": "owner",
          "type": "address"
        },
        {
          "indexed": false,
          "internalType": "string",
          "name": "name",
          "type": "string"
        },
        {
          "indexed": false,
          "internalType": "string",
          "name": "city",
          "type": "string"
        },
        {
          "indexed": false,
          "internalType": "string",
          "name": "theme",
          "type": "string"
        },
        {
          "indexed": false,
          "internalType": "string",
          "name": "contactAddress",
          "type": "string"
        },
        {
          "indexed": false,
          "internalType": "string",
          "name": "latitude",
          "type": "string"
        },
        {
          "indexed": false,
          "internalType": "string",
          "name": "longitude",
          "type": "string"
        },
        {
          "indexed": false,
          "internalType": "string",
          "name": "description",
          "type": "string"
        },
        {
          "indexed": false,
          "internalType": "string",
          "name": "imgUrl",
          "type": "string"
        },
        {
          "indexed": false,
          "internalType": "uint256",
          "name": "maxGuests",
          "type": "uint256"
        },
        {
          "indexed": false,
          "internalType": "uint256",
          "name": "pricePerDay",
          "type": "uint256"
        },
        {
          "indexed": false,
          "internalType": "uint256",
          "name": "timestamp",
          "type": "uint256"
        }
      ],
      "name": "RentalEdited",
      "type": "event"
    },
    {
      "inputs": [
        {
          "internalType": "string",
          "name": "_name",
          "type": "string"
        },
        {
          "internalType": "string",
          "name": "_city",
          "type": "string"
        },
        {
          "internalType": "string",
          "name": "_theme",
          "type": "string"
        },
        {
          "internalType": "string",
          "name": "_contactAddress",
          "type": "string"
        },
        {
          "internalType": "string",
          "name": "_latitude",
          "type": "string"
        },
        {
          "internalType": "string",
          "name": "_longitude",
          "type": "string"
        },
        {
          "internalType": "string",
          "name": "_description",
          "type": "string"
        },
        {
          "internalType": "string",
          "name": "_imgUrl",
          "type": "string"
        },
        {
          "internalType": "uint256",
          "name": "_maxGuests",
          "type": "uint256"
        },
        {
          "internalType": "uint256",
          "name": "_pricePerDay",
          "type": "uint256"
        }
      ],
      "name": "addRental",
      "outputs": [],
      "stateMutability": "payable",
      "type": "function"
    },
    {
      "inputs": [],
      "name": "admin",
      "outputs": [
        {
          "internalType": "address",
          "name": "",
          "type": "address"
        }
      ],
      "stateMutability": "view",
      "type": "function"
    },
    {
      "inputs": [
        {
          "internalType": "uint256",
          "name": "_rentalId",
          "type": "uint256"
        },
        {
          "internalType": "uint256",
          "name": "_fromDateTimestamp",
          "type": "uint256"
        },
        {
          "internalType": "uint256",
          "name": "_toDateTimestamp",
          "type": "uint256"
        }
      ],
      "name": "bookDates",
      "outputs": [],
      "stateMutability": "payable",
      "type": "function"
    },
    {
      "inputs": [
        {
          "internalType": "uint256",
          "name": "_bookingId",
          "type": "uint256"
        }
      ],
      "name": "cancelBooking",
      "outputs": [],
      "stateMutability": "nonpayable",
      "type": "function"
    },
    {
      "inputs": [
        {
          "internalType": "uint256",
          "name": "_newFee",
          "type": "uint256"
        }
      ],
      "name": "changeListingFee",
      "outputs": [],
      "stateMutability": "nonpayable",
      "type": "function"
    },
    {
      "inputs": [
        {
          "internalType": "uint256",
          "name": "_bookingId",
          "type": "uint256"
        }
      ],
      "name": "confirmCancelBooking",
      "outputs": [],
      "stateMutability": "payable",
      "type": "function"
    },
    {
      "inputs": [
        {
          "internalType": "uint256",
          "name": "amountInUSD",
          "type": "uint256"
        }
      ],
      "name": "convertFromUSD",
      "outputs": [
        {
          "internalType": "uint256",
          "name": "",
          "type": "uint256"
        }
      ],
      "stateMutability": "view",
      "type": "function"
    },
    {
      "inputs": [
        {
          "internalType": "uint256",
          "name": "_rentalId",
          "type": "uint256"
        },
        {
          "internalType": "string",
          "name": "_name",
          "type": "string"
        },
        {
          "internalType": "string",
          "name": "_city",
          "type": "string"
        },
        {
          "internalType": "string",
          "name": "_theme",
          "type": "string"
        },
        {
          "internalType": "string",
          "name": "_contactAddress",
          "type": "string"
        },
        {
          "internalType": "string",
          "name": "_latitude",
          "type": "string"
        },
        {
          "internalType": "string",
          "name": "_longitude",
          "type": "string"
        },
        {
          "internalType": "string",
          "name": "_description",
          "type": "string"
        },
        {
          "internalType": "string",
          "name": "_imgUrl",
          "type": "string"
        },
        {
          "internalType": "uint256",
          "name": "_maxGuests",
          "type": "uint256"
        },
        {
          "internalType": "uint256",
          "name": "_pricePerDay",
          "type": "uint256"
        }
      ],
      "name": "editRental",
      "outputs": [],
      "stateMutability": "payable",
      "type": "function"
    },
    {
      "inputs": [],
      "name": "getPrice",
      "outputs": [
        {
          "internalType": "uint256",
          "name": "",
          "type": "uint256"
        },
        {
          "internalType": "uint256",
          "name": "",
          "type": "uint256"
        }
      ],
      "stateMutability": "view",
      "type": "function"
    },
    {
      "inputs": [
        {
          "internalType": "uint256",
          "name": "_id",
          "type": "uint256"
        }
      ],
      "name": "getRentalBooking",
      "outputs": [
        {
          "components": [
            {
              "internalType": "uint256",
              "name": "id",
              "type": "uint256"
            },
            {
              "internalType": "uint256",
              "name": "rentalId",
              "type": "uint256"
            },
            {
              "internalType": "address",
              "name": "rentalOwner",
              "type": "address"
            },
            {
              "internalType": "address",
              "name": "renter",
              "type": "address"
            },
            {
              "internalType": "uint256",
              "name": "fromTimestamp",
              "type": "uint256"
            },
            {
              "internalType": "uint256",
              "name": "toTimestamp",
              "type": "uint256"
            },
            {
              "internalType": "bool",
              "name": "isWaitingForCancel",
              "type": "bool"
            },
            {
              "internalType": "bool",
              "name": "isCheckin",
              "type": "bool"
            },
            {
              "internalType": "bool",
              "name": "isExpiered",
              "type": "bool"
            }
          ],
          "internalType": "struct DimoriMain.Booking",
          "name": "",
          "type": "tuple"
        }
      ],
      "stateMutability": "view",
      "type": "function"
    },
    {
      "inputs": [],
      "name": "getRentalBookings",
      "outputs": [
        {
          "components": [
            {
              "internalType": "uint256",
              "name": "id",
              "type": "uint256"
            },
            {
              "internalType": "uint256",
              "name": "rentalId",
              "type": "uint256"
            },
            {
              "internalType": "address",
              "name": "rentalOwner",
              "type": "address"
            },
            {
              "internalType": "address",
              "name": "renter",
              "type": "address"
            },
            {
              "internalType": "uint256",
              "name": "fromTimestamp",
              "type": "uint256"
            },
            {
              "internalType": "uint256",
              "name": "toTimestamp",
              "type": "uint256"
            },
            {
              "internalType": "bool",
              "name": "isWaitingForCancel",
              "type": "bool"
            },
            {
              "internalType": "bool",
              "name": "isCheckin",
              "type": "bool"
            },
            {
              "internalType": "bool",
              "name": "isExpiered",
              "type": "bool"
            }
          ],
          "internalType": "struct DimoriMain.Booking[]",
          "name": "",
          "type": "tuple[]"
        }
      ],
      "stateMutability": "view",
      "type": "function"
    },
    {
      "inputs": [
        {
          "internalType": "uint256",
          "name": "_id",
          "type": "uint256"
        }
      ],
      "name": "getRentalInfo",
      "outputs": [
        {
          "components": [
            {
              "internalType": "uint256",
              "name": "id",
              "type": "uint256"
            },
            {
              "internalType": "address",
              "name": "owner",
              "type": "address"
            },
            {
              "internalType": "string",
              "name": "name",
              "type": "string"
            },
            {
              "internalType": "string",
              "name": "city",
              "type": "string"
            },
            {
              "internalType": "string",
              "name": "theme",
              "type": "string"
            },
            {
              "internalType": "string",
              "name": "contactAddress",
              "type": "string"
            },
            {
              "internalType": "string",
              "name": "latitude",
              "type": "string"
            },
            {
              "internalType": "string",
              "name": "longitude",
              "type": "string"
            },
            {
              "internalType": "string",
              "name": "description",
              "type": "string"
            },
            {
              "internalType": "string",
              "name": "imgUrl",
              "type": "string"
            },
            {
              "internalType": "uint256",
              "name": "maxNumberOfGuests",
              "type": "uint256"
            },
            {
              "internalType": "uint256",
              "name": "pricePerDay",
              "type": "uint256"
            }
          ],
          "internalType": "struct DimoriMain.RentalInfo",
          "name": "",
          "type": "tuple"
        }
      ],
      "stateMutability": "view",
      "type": "function"
    },
    {
      "inputs": [],
      "name": "getRentals",
      "outputs": [
        {
          "components": [
            {
              "internalType": "uint256",
              "name": "id",
              "type": "uint256"
            },
            {
              "internalType": "address",
              "name": "owner",
              "type": "address"
            },
            {
              "internalType": "string",
              "name": "name",
              "type": "string"
            },
            {
              "internalType": "string",
              "name": "city",
              "type": "string"
            },
            {
              "internalType": "string",
              "name": "theme",
              "type": "string"
            },
            {
              "internalType": "string",
              "name": "contactAddress",
              "type": "string"
            },
            {
              "internalType": "string",
              "name": "latitude",
              "type": "string"
            },
            {
              "internalType": "string",
              "name": "longitude",
              "type": "string"
            },
            {
              "internalType": "string",
              "name": "description",
              "type": "string"
            },
            {
              "internalType": "string",
              "name": "imgUrl",
              "type": "string"
            },
            {
              "internalType": "uint256",
              "name": "maxNumberOfGuests",
              "type": "uint256"
            },
            {
              "internalType": "uint256",
              "name": "pricePerDay",
              "type": "uint256"
            }
          ],
          "internalType": "struct DimoriMain.RentalInfo[]",
          "name": "",
          "type": "tuple[]"
        }
      ],
      "stateMutability": "view",
      "type": "function"
    },
    {
      "inputs": [],
      "name": "listingFee",
      "outputs": [
        {
          "internalType": "uint256",
          "name": "",
          "type": "uint256"
        }
      ],
      "stateMutability": "view",
      "type": "function"
    },
    {
      "inputs": [],
      "name": "priceFeedAddress",
      "outputs": [
        {
          "internalType": "address",
          "name": "",
          "type": "address"
        }
      ],
      "stateMutability": "view",
      "type": "function"
    },
    {
      "inputs": [
        {
          "internalType": "uint256",
          "name": "_rentalId",
          "type": "uint256"
        }
      ],
      "name": "removeHome",
      "outputs": [],
      "stateMutability": "nonpayable",
      "type": "function"
    },
    {
      "inputs": [
        {
          "internalType": "uint256",
          "name": "",
          "type": "uint256"
        }
      ],
      "name": "rentalBookings",
      "outputs": [
        {
          "internalType": "uint256",
          "name": "id",
          "type": "uint256"
        },
        {
          "internalType": "uint256",
          "name": "rentalId",
          "type": "uint256"
        },
        {
          "internalType": "address",
          "name": "rentalOwner",
          "type": "address"
        },
        {
          "internalType": "address",
          "name": "renter",
          "type": "address"
        },
        {
          "internalType": "uint256",
          "name": "fromTimestamp",
          "type": "uint256"
        },
        {
          "internalType": "uint256",
          "name": "toTimestamp",
          "type": "uint256"
        },
        {
          "internalType": "bool",
          "name": "isWaitingForCancel",
          "type": "bool"
        },
        {
          "internalType": "bool",
          "name": "isCheckin",
          "type": "bool"
        },
        {
          "internalType": "bool",
          "name": "isExpiered",
          "type": "bool"
        }
      ],
      "stateMutability": "view",
      "type": "function"
    },
    {
      "inputs": [
        {
          "internalType": "uint256",
          "name": "",
          "type": "uint256"
        }
      ],
      "name": "rentals",
      "outputs": [
        {
          "internalType": "uint256",
          "name": "id",
          "type": "uint256"
        },
        {
          "internalType": "address",
          "name": "owner",
          "type": "address"
        },
        {
          "internalType": "string",
          "name": "name",
          "type": "string"
        },
        {
          "internalType": "string",
          "name": "city",
          "type": "string"
        },
        {
          "internalType": "string",
          "name": "theme",
          "type": "string"
        },
        {
          "internalType": "string",
          "name": "contactAddress",
          "type": "string"
        },
        {
          "internalType": "string",
          "name": "latitude",
          "type": "string"
        },
        {
          "internalType": "string",
          "name": "longitude",
          "type": "string"
        },
        {
          "internalType": "string",
          "name": "description",
          "type": "string"
        },
        {
          "internalType": "string",
          "name": "imgUrl",
          "type": "string"
        },
        {
          "internalType": "uint256",
          "name": "maxNumberOfGuests",
          "type": "uint256"
        },
        {
          "internalType": "uint256",
          "name": "pricePerDay",
          "type": "uint256"
        }
      ],
      "stateMutability": "view",
      "type": "function"
    },
    {
      "inputs": [],
      "name": "withdrawBalance",
      "outputs": [],
      "stateMutability": "nonpayable",
      "type": "function"
    }
  ],
  "bytecode": "0x60806040523480156200001157600080fd5b5060405162003f9338038062003f9383398101604081905262000034916200006b565b60018054336001600160a01b031991821617909155600292909255600080549092166001600160a01b0391909116179055620000aa565b600080604083850312156200007f57600080fd5b825160208401519092506001600160a01b03811681146200009f57600080fd5b809150509250929050565b613ed980620000ba6000396000f3fe6080604052600436106100e45760003560e01c80630dca825e146100e957806327dc3fbd1461010b5780632ab4817a14610141578063438100d41461016e57806346e6e5fb146101e45780635a576b5f146101f75780635ea5da201461020a5780635fd8c7101461022c5780636a1b7ecc146102415780636ad54207146102655780637402dfcb1461028757806377f25f6f1461029a57806395b36670146102ba57806398d5fdca146102da578063af94a1d114610304578063c10e67501461033c578063e0abca0b1461034f578063e284af2414610387578063f851a440146103a7575b600080fd5b3480156100f557600080fd5b50610109610104366004613430565b6103c7565b005b34801561011757600080fd5b5061012b610126366004613430565b61040d565b60405161013891906135b2565b60405180910390f35b34801561014d57600080fd5b5061016161015c366004613430565b6109b0565b6040516101389190613637565b34801561017a57600080fd5b5061018e610189366004613430565b610aa5565b60408051998a5260208a01989098526001600160a01b0396871697890197909752949093166060870152608086019190915260a0850152151560c0840152151560e0830152151561010082015261012001610138565b6101096101f236600461364c565b610b16565b61010961020536600461371a565b6113d4565b34801561021657600080fd5b5061021f611662565b604051610138919061386e565b34801561023857600080fd5b50610109611b86565b34801561024d57600080fd5b5061025760025481565b604051908152602001610138565b34801561027157600080fd5b5061027a611c28565b60405161013891906138d0565b61010961029536600461391f565b611cf1565b3480156102a657600080fd5b506101096102b5366004613430565b611f98565b3480156102c657600080fd5b506102576102d5366004613430565b611fc8565b3480156102e657600080fd5b506102ef612005565b60408051928352602083019190915201610138565b34801561031057600080fd5b5061032461031f366004613430565b6120f1565b6040516101389c9b9a99989796959493929190613a88565b61010961034a366004613430565b6125a8565b34801561035b57600080fd5b5060005461036f906001600160a01b031681565b6040516001600160a01b039091168152602001610138565b34801561039357600080fd5b506101096103a2366004613430565b612e96565b3480156103b357600080fd5b5060015461036f906001600160a01b031681565b60045481106103d35750565b6001600682815481106103e8576103e8613b5b565b60009182526020909120600790910201600601805460ff191691151591909117905550565b61047a6040518061018001604052806000815260200160006001600160a01b03168152602001606081526020016060815260200160608152602001606081526020016060815260200160608152602001606081526020016060815260200160008152602001600081525090565b81600354811061049d5760405163018960b360e01b815260040160405180910390fd5b600583815481106104b0576104b0613b5b565b90600052602060002090600c020160405180610180016040529081600082015481526020016001820160009054906101000a90046001600160a01b03166001600160a01b03166001600160a01b0316815260200160028201805461051390613b71565b80601f016020809104026020016040519081016040528092919081815260200182805461053f90613b71565b801561058c5780601f106105615761010080835404028352916020019161058c565b820191906000526020600020905b81548152906001019060200180831161056f57829003601f168201915b505050505081526020016003820180546105a590613b71565b80601f01602080910402602001604051908101604052809291908181526020018280546105d190613b71565b801561061e5780601f106105f35761010080835404028352916020019161061e565b820191906000526020600020905b81548152906001019060200180831161060157829003601f168201915b5050505050815260200160048201805461063790613b71565b80601f016020809104026020016040519081016040528092919081815260200182805461066390613b71565b80156106b05780601f10610685576101008083540402835291602001916106b0565b820191906000526020600020905b81548152906001019060200180831161069357829003601f168201915b505050505081526020016005820180546106c990613b71565b80601f01602080910402602001604051908101604052809291908181526020018280546106f590613b71565b80156107425780601f1061071757610100808354040283529160200191610742565b820191906000526020600020905b81548152906001019060200180831161072557829003601f168201915b5050505050815260200160068201805461075b90613b71565b80601f016020809104026020016040519081016040528092919081815260200182805461078790613b71565b80156107d45780601f106107a9576101008083540402835291602001916107d4565b820191906000526020600020905b8154815290600101906020018083116107b757829003601f168201915b505050505081526020016007820180546107ed90613b71565b80601f016020809104026020016040519081016040528092919081815260200182805461081990613b71565b80156108665780601f1061083b57610100808354040283529160200191610866565b820191906000526020600020905b81548152906001019060200180831161084957829003601f168201915b5050505050815260200160088201805461087f90613b71565b80601f01602080910402602001604051908101604052809291908181526020018280546108ab90613b71565b80156108f85780601f106108cd576101008083540402835291602001916108f8565b820191906000526020600020905b8154815290600101906020018083116108db57829003601f168201915b5050505050815260200160098201805461091190613b71565b80601f016020809104026020016040519081016040528092919081815260200182805461093d90613b71565b801561098a5780601f1061095f5761010080835404028352916020019161098a565b820191906000526020600020905b81548152906001019060200180831161096d57829003601f168201915b50505050508152602001600a8201548152602001600b8201548152505091505b50919050565b6040805161012081018252600080825260208201819052918101829052606081018290526080810182905260a0810182905260c0810182905260e0810182905261010081019190915260068281548110610a0c57610a0c613b5b565b6000918252602091829020604080516101208101825260079093029091018054835260018101549383019390935260028301546001600160a01b0390811691830191909152600383015416606082015260048201546080820152600582015460a082015260069091015460ff808216151560c08401526101008083048216151560e0850152620100009092041615159082015292915050565b60068181548110610ab557600080fd5b6000918252602090912060079091020180546001820154600283015460038401546004850154600586015460069096015494965092946001600160a01b039283169492909116929160ff808216916101008104821691620100009091041689565b826003548110610b395760405163018960b360e01b815260040160405180910390fd5b600060058581548110610b4e57610b4e613b5b565b90600052602060002090600c020160405180610180016040529081600082015481526020016001820160009054906101000a90046001600160a01b03166001600160a01b03166001600160a01b03168152602001600282018054610bb190613b71565b80601f0160208091040260200160405190810160405280929190818152602001828054610bdd90613b71565b8015610c2a5780601f10610bff57610100808354040283529160200191610c2a565b820191906000526020600020905b815481529060010190602001808311610c0d57829003601f168201915b50505050508152602001600382018054610c4390613b71565b80601f0160208091040260200160405190810160405280929190818152602001828054610c6f90613b71565b8015610cbc5780601f10610c9157610100808354040283529160200191610cbc565b820191906000526020600020905b815481529060010190602001808311610c9f57829003601f168201915b50505050508152602001600482018054610cd590613b71565b80601f0160208091040260200160405190810160405280929190818152602001828054610d0190613b71565b8015610d4e5780601f10610d2357610100808354040283529160200191610d4e565b820191906000526020600020905b815481529060010190602001808311610d3157829003601f168201915b50505050508152602001600582018054610d6790613b71565b80601f0160208091040260200160405190810160405280929190818152602001828054610d9390613b71565b8015610de05780601f10610db557610100808354040283529160200191610de0565b820191906000526020600020905b815481529060010190602001808311610dc357829003601f168201915b50505050508152602001600682018054610df990613b71565b80601f0160208091040260200160405190810160405280929190818152602001828054610e2590613b71565b8015610e725780601f10610e4757610100808354040283529160200191610e72565b820191906000526020600020905b815481529060010190602001808311610e5557829003601f168201915b50505050508152602001600782018054610e8b90613b71565b80601f0160208091040260200160405190810160405280929190818152602001828054610eb790613b71565b8015610f045780601f10610ed957610100808354040283529160200191610f04565b820191906000526020600020905b815481529060010190602001808311610ee757829003601f168201915b50505050508152602001600882018054610f1d90613b71565b80601f0160208091040260200160405190810160405280929190818152602001828054610f4990613b71565b8015610f965780601f10610f6b57610100808354040283529160200191610f96565b820191906000526020600020905b815481529060010190602001808311610f7957829003601f168201915b50505050508152602001600982018054610faf90613b71565b80601f0160208091040260200160405190810160405280929190818152602001828054610fdb90613b71565b80156110285780601f10610ffd57610100808354040283529160200191611028565b820191906000526020600020905b81548152906001019060200180831161100b57829003601f168201915b5050509183525050600a8201546020820152600b9091015460409091015290506000620151806110588686613bbc565b6110629190613bd3565b905060018110156110865760405163a0955b6b60e01b815260040160405180910390fd5b600081611097846101600151611fc8565b6110a19190613bf5565b90508034146110c357604051632ca2f52b60e11b815260040160405180910390fd5b6110ce8787876131a0565b156110ec57604051635f3bff1d60e11b815260040160405180910390fd5b6004805460208581015160408051610120810182528481529283018c81526001600160a01b038084169285019283523360608601908152608086018e815260a087018e8152600060c0890181815260e08a01828152610100808c01848152600680546001810182559086529c517ff652222313e28459528d920b65115c16c04f3efc82aaedc97be59f3f377c0d3f6007909e029d8e015598517ff652222313e28459528d920b65115c16c04f3efc82aaedc97be59f3f377c0d408d015598517ff652222313e28459528d920b65115c16c04f3efc82aaedc97be59f3f377c0d418c0180546001600160a01b0319908116928a1692909217905595517ff652222313e28459528d920b65115c16c04f3efc82aaedc97be59f3f377c0d428c01805490971697169690961790945591517ff652222313e28459528d920b65115c16c04f3efc82aaedc97be59f3f377c0d43890155517ff652222313e28459528d920b65115c16c04f3efc82aaedc97be59f3f377c0d4488015590517ff652222313e28459528d920b65115c16c04f3efc82aaedc97be59f3f377c0d4590960180549251935161ffff1990931696151561ff001916969096179215159093029190911762ff00001916620100009115159190910217909255835492939092916112d183613c14565b9190505550600085602001516001600160a01b0316346040516113009065109bdbdad95960d21b815260060190565b60006040518083038185875af1925050503d806000811461133d576040519150601f19603f3d011682016040523d82523d6000602084013e611342565b606091505b5050905080611364576040516312171d8360e31b815260040160405180910390fd5b60045460408051918252602082018c90526001600160a01b03841682820152336060830152608082018b905260a082018a90524260c0830152517f21164e0f9fadc202ec8a9f022e20300fa63b62b6567835d1ee251a16e6d9d4c69181900360e00190a150505050505050505050565b60025434146113f6576040516358d620b360e01b815260040160405180910390fd5b60035460408051610180810182528281523360208083019182529282018e8152606083018e9052608083018d905260a083018c905260c083018b905260e083018a905261010083018990526101208301889052610140830187905261016083018690526005805460018101825560009190915283517f036b6384b5eca791c62761152d0c79bb0604c104a5fb6f4eb0703f3154bb3db0600c90920291820190815592517f036b6384b5eca791c62761152d0c79bb0604c104a5fb6f4eb0703f3154bb3db1820180546001600160a01b0319166001600160a01b039092169190911790559051805193948594611511937f036b6384b5eca791c62761152d0c79bb0604c104a5fb6f4eb0703f3154bb3db20192909101906132e6565b506060820151805161152d9160038401916020909101906132e6565b50608082015180516115499160048401916020909101906132e6565b5060a082015180516115659160058401916020909101906132e6565b5060c082015180516115819160068401916020909101906132e6565b5060e0820151805161159d9160078401916020909101906132e6565b5061010082015180516115ba9160088401916020909101906132e6565b5061012082015180516115d79160098401916020909101906132e6565b50610140820151600a82015561016090910151600b909101556003805490600061160083613c14565b91905055507fca935f633619cd90e48e2d14da64eb295a277535de0ad2d2fc18a37a57884de782338e8e8e8e8e8e8e8e8e8e4260405161164c9d9c9b9a99989796959493929190613c2f565b60405180910390a1505050505050505050505050565b60606005805480602002602001604051908101604052809291908181526020016000905b82821015611b7d5760008481526020908190206040805161018081018252600c86029092018054835260018101546001600160a01b031693830193909352600283018054929392918401916116da90613b71565b80601f016020809104026020016040519081016040528092919081815260200182805461170690613b71565b80156117535780601f1061172857610100808354040283529160200191611753565b820191906000526020600020905b81548152906001019060200180831161173657829003601f168201915b5050505050815260200160038201805461176c90613b71565b80601f016020809104026020016040519081016040528092919081815260200182805461179890613b71565b80156117e55780601f106117ba576101008083540402835291602001916117e5565b820191906000526020600020905b8154815290600101906020018083116117c857829003601f168201915b505050505081526020016004820180546117fe90613b71565b80601f016020809104026020016040519081016040528092919081815260200182805461182a90613b71565b80156118775780601f1061184c57610100808354040283529160200191611877565b820191906000526020600020905b81548152906001019060200180831161185a57829003601f168201915b5050505050815260200160058201805461189090613b71565b80601f01602080910402602001604051908101604052809291908181526020018280546118bc90613b71565b80156119095780601f106118de57610100808354040283529160200191611909565b820191906000526020600020905b8154815290600101906020018083116118ec57829003601f168201915b5050505050815260200160068201805461192290613b71565b80601f016020809104026020016040519081016040528092919081815260200182805461194e90613b71565b801561199b5780601f106119705761010080835404028352916020019161199b565b820191906000526020600020905b81548152906001019060200180831161197e57829003601f168201915b505050505081526020016007820180546119b490613b71565b80601f01602080910402602001604051908101604052809291908181526020018280546119e090613b71565b8015611a2d5780601f10611a0257610100808354040283529160200191611a2d565b820191906000526020600020905b815481529060010190602001808311611a1057829003601f168201915b50505050508152602001600882018054611a4690613b71565b80601f0160208091040260200160405190810160405280929190818152602001828054611a7290613b71565b8015611abf5780601f10611a9457610100808354040283529160200191611abf565b820191906000526020600020905b815481529060010190602001808311611aa257829003601f168201915b50505050508152602001600982018054611ad890613b71565b80601f0160208091040260200160405190810160405280929190818152602001828054611b0490613b71565b8015611b515780601f10611b2657610100808354040283529160200191611b51565b820191906000526020600020905b815481529060010190602001808311611b3457829003601f168201915b50505050508152602001600a8201548152602001600b8201548152505081526020019060010190611686565b50505050905090565b6001546001600160a01b03163314611bb157604051634755657960e01b815260040160405180910390fd5b6001546040516000916001600160a01b03169047908381818185875af1925050503d8060008114611bfe576040519150601f19603f3d011682016040523d82523d6000602084013e611c03565b606091505b5050905080611c25576040516312171d8360e31b815260040160405180910390fd5b50565b60606006805480602002602001604051908101604052809291908181526020016000905b82821015611b7d576000848152602090819020604080516101208101825260078602909201805483526001808201548486015260028201546001600160a01b03908116938501939093526003820154909216606084015260048101546080840152600581015460a08401526006015460ff808216151560c08501526101008083048216151560e086015262010000909204161515908301529083529092019101611c4c565b6002543414611d13576040516358d620b360e01b815260040160405180910390fd5b6003548b10611d2157611f8b565b8960058c81548110611d3557611d35613b5b565b90600052602060002090600c02016002019080519060200190611d599291906132e6565b508860058c81548110611d6e57611d6e613b5b565b90600052602060002090600c02016003019080519060200190611d929291906132e6565b508760058c81548110611da757611da7613b5b565b90600052602060002090600c02016004019080519060200190611dcb9291906132e6565b508660058c81548110611de057611de0613b5b565b90600052602060002090600c02016005019080519060200190611e049291906132e6565b508560058c81548110611e1957611e19613b5b565b90600052602060002090600c02016006019080519060200190611e3d9291906132e6565b508460058c81548110611e5257611e52613b5b565b90600052602060002090600c02016007019080519060200190611e769291906132e6565b508360058c81548110611e8b57611e8b613b5b565b90600052602060002090600c02016008019080519060200190611eaf9291906132e6565b508260058c81548110611ec457611ec4613b5b565b90600052602060002090600c02016009019080519060200190611ee89291906132e6565b508160058c81548110611efd57611efd613b5b565b90600052602060002090600c0201600a01819055508060058c81548110611f2657611f26613b5b565b90600052602060002090600c0201600b01819055507f9136c566ecc21047715bcf56df75f8c84a3caf28fa00a470e4191de2ba8489fc8b338c8c8c8c8c8c8c8c8c8c42604051611f829d9c9b9a99989796959493929190613c2f565b60405180910390a15b5050505050505050505050565b6001546001600160a01b03163314611fc357604051634755657960e01b815260040160405180910390fd5b600255565b6000806000611fd5612005565b9092509050600082611fe883600a613df0565b611ff29087613bf5565b611ffc9190613bd3565b95945050505050565b6000805460408051633fabe5a360e21b8152905183926001600160a01b0316918391839163feaf968c9160048083019260a09291908290030181865afa158015612053573d6000803e3d6000fd5b505050506040513d601f19601f820116820180604052508101906120779190613e18565b5050509150506000826001600160a01b031663313ce5676040518163ffffffff1660e01b8152600401602060405180830381865afa1580156120bd573d6000803e3d6000fd5b505050506040513d601f19601f820116820180604052508101906120e19190613e68565b919560ff90921694509092505050565b6005818154811061210157600080fd5b60009182526020909120600c90910201805460018201546002830180549294506001600160a01b03909116929161213790613b71565b80601f016020809104026020016040519081016040528092919081815260200182805461216390613b71565b80156121b05780601f10612185576101008083540402835291602001916121b0565b820191906000526020600020905b81548152906001019060200180831161219357829003601f168201915b5050505050908060030180546121c590613b71565b80601f01602080910402602001604051908101604052809291908181526020018280546121f190613b71565b801561223e5780601f106122135761010080835404028352916020019161223e565b820191906000526020600020905b81548152906001019060200180831161222157829003601f168201915b50505050509080600401805461225390613b71565b80601f016020809104026020016040519081016040528092919081815260200182805461227f90613b71565b80156122cc5780601f106122a1576101008083540402835291602001916122cc565b820191906000526020600020905b8154815290600101906020018083116122af57829003601f168201915b5050505050908060050180546122e190613b71565b80601f016020809104026020016040519081016040528092919081815260200182805461230d90613b71565b801561235a5780601f1061232f5761010080835404028352916020019161235a565b820191906000526020600020905b81548152906001019060200180831161233d57829003601f168201915b50505050509080600601805461236f90613b71565b80601f016020809104026020016040519081016040528092919081815260200182805461239b90613b71565b80156123e85780601f106123bd576101008083540402835291602001916123e8565b820191906000526020600020905b8154815290600101906020018083116123cb57829003601f168201915b5050505050908060070180546123fd90613b71565b80601f016020809104026020016040519081016040528092919081815260200182805461242990613b71565b80156124765780601f1061244b57610100808354040283529160200191612476565b820191906000526020600020905b81548152906001019060200180831161245957829003601f168201915b50505050509080600801805461248b90613b71565b80601f01602080910402602001604051908101604052809291908181526020018280546124b790613b71565b80156125045780601f106124d957610100808354040283529160200191612504565b820191906000526020600020905b8154815290600101906020018083116124e757829003601f168201915b50505050509080600901805461251990613b71565b80601f016020809104026020016040519081016040528092919081815260200182805461254590613b71565b80156125925780601f1061256757610100808354040283529160200191612592565b820191906000526020600020905b81548152906001019060200180831161257557829003601f168201915b50505050509080600a01549080600b015490508c565b8060045481106125cb5760405163bb9fac2160e01b815260040160405180910390fd5b600454821015806126035750600682815481106125ea576125ea613b5b565b600091825260209091206006600790920201015460ff16155b1561260c575050565b60006006838154811061262157612621613b5b565b600091825260208083206040805161012081018252600790940290910180548452600181015492840183905260028101546001600160a01b0390811692850192909252600381015490911660608401526004810154608084015260058082015460a085015260069091015460ff808216151560c08601526101008083048216151560e087015262010000909204161515908401528054929450909291839081106126cd576126cd613b5b565b90600052602060002090600c020160405180610180016040529081600082015481526020016001820160009054906101000a90046001600160a01b03166001600160a01b03166001600160a01b0316815260200160028201805461273090613b71565b80601f016020809104026020016040519081016040528092919081815260200182805461275c90613b71565b80156127a95780601f1061277e576101008083540402835291602001916127a9565b820191906000526020600020905b81548152906001019060200180831161278c57829003601f168201915b505050505081526020016003820180546127c290613b71565b80601f01602080910402602001604051908101604052809291908181526020018280546127ee90613b71565b801561283b5780601f106128105761010080835404028352916020019161283b565b820191906000526020600020905b81548152906001019060200180831161281e57829003601f168201915b5050505050815260200160048201805461285490613b71565b80601f016020809104026020016040519081016040528092919081815260200182805461288090613b71565b80156128cd5780601f106128a2576101008083540402835291602001916128cd565b820191906000526020600020905b8154815290600101906020018083116128b057829003601f168201915b505050505081526020016005820180546128e690613b71565b80601f016020809104026020016040519081016040528092919081815260200182805461291290613b71565b801561295f5780601f106129345761010080835404028352916020019161295f565b820191906000526020600020905b81548152906001019060200180831161294257829003601f168201915b5050505050815260200160068201805461297890613b71565b80601f01602080910402602001604051908101604052809291908181526020018280546129a490613b71565b80156129f15780601f106129c6576101008083540402835291602001916129f1565b820191906000526020600020905b8154815290600101906020018083116129d457829003601f168201915b50505050508152602001600782018054612a0a90613b71565b80601f0160208091040260200160405190810160405280929190818152602001828054612a3690613b71565b8015612a835780601f10612a5857610100808354040283529160200191612a83565b820191906000526020600020905b815481529060010190602001808311612a6657829003601f168201915b50505050508152602001600882018054612a9c90613b71565b80601f0160208091040260200160405190810160405280929190818152602001828054612ac890613b71565b8015612b155780601f10612aea57610100808354040283529160200191612b15565b820191906000526020600020905b815481529060010190602001808311612af857829003601f168201915b50505050508152602001600982018054612b2e90613b71565b80601f0160208091040260200160405190810160405280929190818152602001828054612b5a90613b71565b8015612ba75780601f10612b7c57610100808354040283529160200191612ba7565b820191906000526020600020905b815481529060010190602001808311612b8a57829003601f168201915b50505050508152602001600a8201548152602001600b82015481525050905060006201518084608001518560a00151612be09190613bbc565b612bea9190613bd3565b9050600081612bfd846101600151611fc8565b612c079190613bf5565b9050803414612c2957604051632ca2f52b60e11b815260040160405180910390fd5b600085606001516001600160a01b031634604051612c55906710d85b98d95b195960c21b815260080190565b60006040518083038185875af1925050503d8060008114612c92576040519150601f19603f3d011682016040523d82523d6000602084013e612c97565b606091505b5050905080612cb9576040516312171d8360e31b815260040160405180910390fd5b80612cc8575050505050505050565b875b6001600454612cd99190613bbc565b811015612dfd576006612ced826001613e8b565b81548110612cfd57612cfd613b5b565b906000526020600020906007020160068281548110612d1e57612d1e613b5b565b6000918252602090912082546007909202019081556001808301549082015560028083015490820180546001600160a01b03199081166001600160a01b03938416179091556003808501549084018054909216921691909117905560048083015490820155600580830154908201556006918201805492909101805460ff938416151560ff19821681178355835461010090819004861615150261ff001990911661ffff19909216919091171780825591546201000090819004909316151590920262ff00001990911617905580612df581613c14565b915050612cca565b5060066001600454612e0f9190613bbc565b81548110612e1f57612e1f613b5b565b60009182526020822060079091020181815560018082018390556002820180546001600160a01b031990811690915560038301805490911690556004808301849055600583018490556006909201805462ffffff191690558154909290612e87908490613bbc565b90915550505050505050505050565b6003548110612ea25750565b60005b600454811015612f06578160068281548110612ec357612ec3613b5b565b9060005260206000209060070201600101541415612ef457604051635291817b60e01b815260040160405180910390fd5b80612efe81613c14565b915050612ea5565b50805b6001600354612f189190613bbc565b8110156130bd576005612f2c826001613e8b565b81548110612f3c57612f3c613b5b565b90600052602060002090600c020160058281548110612f5d57612f5d613b5b565b600091825260209091208254600c9092020190815560018083015490820180546001600160a01b0319166001600160a01b039092169190911790556002808301805491830191612fac90613b71565b612fb792919061336a565b506003820181600301908054612fcc90613b71565b612fd792919061336a565b506004820181600401908054612fec90613b71565b612ff792919061336a565b50600582018160050190805461300c90613b71565b61301792919061336a565b50600682018160060190805461302c90613b71565b61303792919061336a565b50600782018160070190805461304c90613b71565b61305792919061336a565b50600882018160080190805461306c90613b71565b61307792919061336a565b50600982018160090190805461308c90613b71565b61309792919061336a565b50600a8281015490820155600b91820154910155806130b581613c14565b915050612f09565b50600560016003546130cf9190613bbc565b815481106130df576130df613b5b565b600091825260208220600c909102018181556001810180546001600160a01b03191690559061311160028301826133e5565b61311f6003830160006133e5565b61312d6004830160006133e5565b61313b6005830160006133e5565b6131496006830160006133e5565b6131576007830160006133e5565b6131656008830160006133e5565b6131736009830160006133e5565b600a820160009055600b82016000905550506001600360008282546131989190613bbc565b909155505050565b6000805b6004548110156132d957600681815481106131c1576131c1613b5b565b906000526020600020906007020160010154851480156132055750600681815481106131ef576131ef613b5b565b9060005260206000209060070201600401548410155b801561323557506006818154811061321f5761321f613b5b565b9060005260206000209060070201600501548411155b806132c257506006818154811061324e5761324e613b5b565b9060005260206000209060070201600101548514801561329257506006818154811061327c5761327c613b5b565b9060005260206000209060070201600401548310155b80156132c25750600681815481106132ac576132ac613b5b565b9060005260206000209060070201600501548311155b156132d15760019150506132df565b6001016131a4565b50600090505b9392505050565b8280546132f290613b71565b90600052602060002090601f016020900481019282613314576000855561335a565b82601f1061332d57805160ff191683800117855561335a565b8280016001018555821561335a579182015b8281111561335a57825182559160200191906001019061333f565b5061336692915061341b565b5090565b82805461337690613b71565b90600052602060002090601f016020900481019282613398576000855561335a565b82601f106133a9578054855561335a565b8280016001018555821561335a57600052602060002091601f016020900482015b8281111561335a5782548255916001019190600101906133ca565b5080546133f190613b71565b6000825580601f10613401575050565b601f016020900490600052602060002090810190611c2591905b5b80821115613366576000815560010161341c565b60006020828403121561344257600080fd5b5035919050565b6001600160a01b03169052565b6000815180845260005b8181101561347c57602081850181015186830182015201613460565b8181111561348e576000602083870101525b50601f01601f19169290920160200192915050565b60006101808251845260208301516134be6020860182613449565b5060408301518160408601526134d682860182613456565b915050606083015184820360608601526134f08282613456565b9150506080830151848203608086015261350a8282613456565b91505060a083015184820360a08601526135248282613456565b91505060c083015184820360c086015261353e8282613456565b91505060e083015184820360e08601526135588282613456565b91505061010080840151858303828701526135738382613456565b92505050610120808401518583038287015261358f8382613456565b610140868101519088015261016095860151959096019490945250929392505050565b6020815260006132df60208301846134a3565b8051825260208101516020830152604081015160018060a01b03808216604085015280606084015116606085015250506080810151608083015260a081015160a083015260c0810151151560c083015260e081015161362860e084018215159052565b50610100908101511515910152565b610120810161364682846135c5565b92915050565b60008060006060848603121561366157600080fd5b505081359360208301359350604090920135919050565b634e487b7160e01b600052604160045260246000fd5b600082601f83011261369f57600080fd5b81356001600160401b03808211156136b9576136b9613678565b604051601f8301601f19908116603f011681019082821181831017156136e1576136e1613678565b816040528381528660208588010111156136fa57600080fd5b836020870160208301376000602085830101528094505050505092915050565b6000806000806000806000806000806101408b8d03121561373a57600080fd5b8a356001600160401b038082111561375157600080fd5b61375d8e838f0161368e565b9b5060208d013591508082111561377357600080fd5b61377f8e838f0161368e565b9a5060408d013591508082111561379557600080fd5b6137a18e838f0161368e565b995060608d01359150808211156137b757600080fd5b6137c38e838f0161368e565b985060808d01359150808211156137d957600080fd5b6137e58e838f0161368e565b975060a08d01359150808211156137fb57600080fd5b6138078e838f0161368e565b965060c08d013591508082111561381d57600080fd5b6138298e838f0161368e565b955060e08d013591508082111561383f57600080fd5b5061384c8d828e0161368e565b9350506101008b013591506101208b013590509295989b9194979a5092959850565b6000602080830181845280855180835260408601915060408160051b870101925083870160005b828110156138c357603f198886030184526138b18583516134a3565b94509285019290850190600101613895565b5092979650505050505050565b6020808252825182820181905260009190848201906040850190845b81811015613913576138ff8385516135c5565b9284019261012092909201916001016138ec565b50909695505050505050565b60008060008060008060008060008060006101608c8e03121561394157600080fd5b8b359a506001600160401b038060208e0135111561395e57600080fd5b61396e8e60208f01358f0161368e565b9a508060408e0135111561398157600080fd5b6139918e60408f01358f0161368e565b99508060608e013511156139a457600080fd5b6139b48e60608f01358f0161368e565b98508060808e013511156139c757600080fd5b6139d78e60808f01358f0161368e565b97508060a08e013511156139ea57600080fd5b6139fa8e60a08f01358f0161368e565b96508060c08e01351115613a0d57600080fd5b613a1d8e60c08f01358f0161368e565b95508060e08e01351115613a3057600080fd5b613a408e60e08f01358f0161368e565b9450806101008e01351115613a5457600080fd5b50613a668d6101008e01358e0161368e565b92506101208c013591506101408c013590509295989b509295989b9093969950565b60006101808e8352613a9d602084018f613449565b806040840152613aaf8184018e613456565b90508281036060840152613ac3818d613456565b90508281036080840152613ad7818c613456565b905082810360a0840152613aeb818b613456565b905082810360c0840152613aff818a613456565b905082810360e0840152613b138189613456565b9050828103610100840152613b288188613456565b9050828103610120840152613b3d8187613456565b610140840195909552505061016001529a9950505050505050505050565b634e487b7160e01b600052603260045260246000fd5b600181811c90821680613b8557607f821691505b602082108114156109aa57634e487b7160e01b600052602260045260246000fd5b634e487b7160e01b600052601160045260246000fd5b600082821015613bce57613bce613ba6565b500390565b600082613bf057634e487b7160e01b600052601260045260246000fd5b500490565b6000816000190483118215151615613c0f57613c0f613ba6565b500290565b6000600019821415613c2857613c28613ba6565b5060010190565b8d8152613c3f602082018e613449565b6101a060408201526000613c576101a083018e613456565b8281036060840152613c69818e613456565b90508281036080840152613c7d818d613456565b905082810360a0840152613c91818c613456565b905082810360c0840152613ca5818b613456565b905082810360e0840152613cb9818a613456565b9050828103610100840152613cce8189613456565b9050828103610120840152613ce38188613456565b6101408401969096525050610160810192909252610180909101529a9950505050505050505050565b600181815b80851115613d47578160001904821115613d2d57613d2d613ba6565b80851615613d3a57918102915b93841c9390800290613d11565b509250929050565b600082613d5e57506001613646565b81613d6b57506000613646565b8160018114613d815760028114613d8b57613da7565b6001915050613646565b60ff841115613d9c57613d9c613ba6565b50506001821b613646565b5060208310610133831016604e8410600b8410161715613dca575081810a613646565b613dd48383613d0c565b8060001904821115613de857613de8613ba6565b029392505050565b60006132df8383613d4f565b80516001600160501b0381168114613e1357600080fd5b919050565b600080600080600060a08688031215613e3057600080fd5b613e3986613dfc565b9450602086015193506040860151925060608601519150613e5c60808701613dfc565b90509295509295909350565b600060208284031215613e7a57600080fd5b815160ff811681146132df57600080fd5b60008219821115613e9e57613e9e613ba6565b50019056fea2646970667358221220fd61e5c86046de39e8ad0dbbe95ba9dc8aa450091cc9df34e7a58baa875a3b7064736f6c634300080a0033",
  "linkReferences": {},
  "deployedLinkReferences": {}
}