{"contracts/DimoriMain.sol":{"DimoriMain":{"abi":[{"inputs":[{"internalType":"uint256","name":"_listingFee","type":"uint256"},{"internalType":"address","name":"_priceFeedAddress","type":"address"}],"stateMutability":"nonpayable","type":"constructor"},{"inputs":[],"name":"AlreadyBooked","type":"error"},{"inputs":[],"name":"CannotRemoveRental","type":"error"},{"inputs":[],"name":"InsufficientAmount","type":"error"},{"inputs":[],"name":"InvalidBookingId","type":"error"},{"inputs":[],"name":"InvalidBookingPeriod","type":"error"},{"inputs":[],"name":"InvalidFee","type":"error"},{"inputs":[],"name":"InvalidRentalId","type":"error"},{"inputs":[],"name":"OnlyAdmin","type":"error"},{"inputs":[],"name":"TransferFailed","type":"error"},{"anonymous":false,"inputs":[{"indexed":false,"internalType":"uint256","name":"id","type":"uint256"},{"indexed":false,"internalType":"uint256","name":"rentalId","type":"uint256"},{"indexed":false,"internalType":"address","name":"rentalOwner","type":"address"},{"indexed":false,"internalType":"address","name":"renter","type":"address"},{"indexed":false,"internalType":"uint256","name":"bookDateStart","type":"uint256"},{"indexed":false,"internalType":"uint256","name":"bookDateEnd","type":"uint256"},{"indexed":false,"internalType":"uint256","name":"timestamp","type":"uint256"}],"name":"NewBookAdded","type":"event"},{"anonymous":false,"inputs":[{"indexed":false,"internalType":"uint256","name":"id","type":"uint256"},{"indexed":false,"internalType":"address","name":"owner","type":"address"},{"indexed":false,"internalType":"string","name":"name","type":"string"},{"indexed":false,"internalType":"string","name":"city","type":"string"},{"indexed":false,"internalType":"string","name":"theme","type":"string"},{"indexed":false,"internalType":"string","name":"contactAddress","type":"string"},{"indexed":false,"internalType":"string","name":"latitude","type":"string"},{"indexed":false,"internalType":"string","name":"longitude","type":"string"},{"indexed":false,"internalType":"string","name":"description","type":"string"},{"indexed":false,"internalType":"string","name":"imgUrl","type":"string"},{"indexed":false,"internalType":"uint256","name":"maxGuests","type":"uint256"},{"indexed":false,"internalType":"uint256","name":"pricePerDay","type":"uint256"},{"indexed":false,"internalType":"uint256","name":"timestamp","type":"uint256"}],"name":"NewRentalCreated","type":"event"},{"anonymous":false,"inputs":[{"indexed":false,"internalType":"uint256","name":"id","type":"uint256"},{"indexed":false,"internalType":"address","name":"owner","type":"address"},{"indexed":false,"internalType":"string","name":"name","type":"string"},{"indexed":false,"internalType":"string","name":"city","type":"string"},{"indexed":false,"internalType":"string","name":"theme","type":"string"},{"indexed":false,"internalType":"string","name":"contactAddress","type":"string"},{"indexed":false,"internalType":"string","name":"latitude","type":"string"},{"indexed":false,"internalType":"string","name":"longitude","type":"string"},{"indexed":false,"internalType":"string","name":"description","type":"string"},{"indexed":false,"internalType":"string","name":"imgUrl","type":"string"},{"indexed":false,"internalType":"uint256","name":"maxGuests","type":"uint256"},{"indexed":false,"internalType":"uint256","name":"pricePerDay","type":"uint256"},{"indexed":false,"internalType":"uint256","name":"timestamp","type":"uint256"}],"name":"RentalEdited","type":"event"},{"inputs":[{"internalType":"string","name":"_name","type":"string"},{"internalType":"string","name":"_city","type":"string"},{"internalType":"string","name":"_theme","type":"string"},{"internalType":"string","name":"_contactAddress","type":"string"},{"internalType":"string","name":"_latitude","type":"string"},{"internalType":"string","name":"_longitude","type":"string"},{"internalType":"string","name":"_description","type":"string"},{"internalType":"string","name":"_imgUrl","type":"string"},{"internalType":"uint256","name":"_maxGuests","type":"uint256"},{"internalType":"uint256","name":"_pricePerDay","type":"uint256"}],"name":"addRental","outputs":[],"stateMutability":"payable","type":"function"},{"inputs":[],"name":"admin","outputs":[{"internalType":"address","name":"","type":"address"}],"stateMutability":"view","type":"function"},{"inputs":[{"internalType":"uint256","name":"_rentalId","type":"uint256"},{"internalType":"uint256","name":"_fromDateTimestamp","type":"uint256"},{"internalType":"uint256","name":"_toDateTimestamp","type":"uint256"}],"name":"bookDates","outputs":[],"stateMutability":"payable","type":"function"},{"inputs":[{"internalType":"uint256","name":"_bookingId","type":"uint256"}],"name":"cancelBooking","outputs":[],"stateMutability":"nonpayable","type":"function"},{"inputs":[{"internalType":"uint256","name":"_newFee","type":"uint256"}],"name":"changeListingFee","outputs":[],"stateMutability":"nonpayable","type":"function"},{"inputs":[{"internalType":"uint256","name":"_bookingId","type":"uint256"}],"name":"confirmCancelBooking","outputs":[],"stateMutability":"payable","type":"function"},{"inputs":[{"internalType":"uint256","name":"amountInUSD","type":"uint256"}],"name":"convertFromUSD","outputs":[{"internalType":"uint256","name":"","type":"uint256"}],"stateMutability":"view","type":"function"},{"inputs":[{"internalType":"uint256","name":"_rentalId","type":"uint256"},{"internalType":"string","name":"_name","type":"string"},{"internalType":"string","name":"_city","type":"string"},{"internalType":"string","name":"_theme","type":"string"},{"internalType":"string","name":"_contactAddress","type":"string"},{"internalType":"string","name":"_latitude","type":"string"},{"internalType":"string","name":"_longitude","type":"string"},{"internalType":"string","name":"_description","type":"string"},{"internalType":"string","name":"_imgUrl","type":"string"},{"internalType":"uint256","name":"_maxGuests","type":"uint256"},{"internalType":"uint256","name":"_pricePerDay","type":"uint256"}],"name":"editRental","outputs":[],"stateMutability":"payable","type":"function"},{"inputs":[],"name":"getPrice","outputs":[{"internalType":"uint256","name":"","type":"uint256"},{"internalType":"uint256","name":"","type":"uint256"}],"stateMutability":"view","type":"function"},{"inputs":[{"internalType":"uint256","name":"_id","type":"uint256"}],"name":"getRentalBooking","outputs":[{"components":[{"internalType":"uint256","name":"id","type":"uint256"},{"internalType":"uint256","name":"rentalId","type":"uint256"},{"internalType":"address","name":"rentalOwner","type":"address"},{"internalType":"address","name":"renter","type":"address"},{"internalType":"uint256","name":"fromTimestamp","type":"uint256"},{"internalType":"uint256","name":"toTimestamp","type":"uint256"},{"internalType":"bool","name":"isWaitingForCancel","type":"bool"},{"internalType":"bool","name":"isCheckin","type":"bool"},{"internalType":"bool","name":"isExpiered","type":"bool"}],"internalType":"struct DimoriMain.Booking","name":"","type":"tuple"}],"stateMutability":"view","type":"function"},{"inputs":[],"name":"getRentalBookings","outputs":[{"components":[{"internalType":"uint256","name":"id","type":"uint256"},{"internalType":"uint256","name":"rentalId","type":"uint256"},{"internalType":"address","name":"rentalOwner","type":"address"},{"internalType":"address","name":"renter","type":"address"},{"internalType":"uint256","name":"fromTimestamp","type":"uint256"},{"internalType":"uint256","name":"toTimestamp","type":"uint256"},{"internalType":"bool","name":"isWaitingForCancel","type":"bool"},{"internalType":"bool","name":"isCheckin","type":"bool"},{"internalType":"bool","name":"isExpiered","type":"bool"}],"internalType":"struct DimoriMain.Booking[]","name":"","type":"tuple[]"}],"stateMutability":"view","type":"function"},{"inputs":[{"internalType":"uint256","name":"_id","type":"uint256"}],"name":"getRentalInfo","outputs":[{"components":[{"internalType":"uint256","name":"id","type":"uint256"},{"internalType":"address","name":"owner","type":"address"},{"internalType":"string","name":"name","type":"string"},{"internalType":"string","name":"city","type":"string"},{"internalType":"string","name":"theme","type":"string"},{"internalType":"string","name":"contactAddress","type":"string"},{"internalType":"string","name":"latitude","type":"string"},{"internalType":"string","name":"longitude","type":"string"},{"internalType":"string","name":"description","type":"string"},{"internalType":"string","name":"imgUrl","type":"string"},{"internalType":"uint256","name":"maxNumberOfGuests","type":"uint256"},{"internalType":"uint256","name":"pricePerDay","type":"uint256"}],"internalType":"struct DimoriMain.RentalInfo","name":"","type":"tuple"}],"stateMutability":"view","type":"function"},{"inputs":[],"name":"getRentals","outputs":[{"components":[{"internalType":"uint256","name":"id","type":"uint256"},{"internalType":"address","name":"owner","type":"address"},{"internalType":"string","name":"name","type":"string"},{"internalType":"string","name":"city","type":"string"},{"internalType":"string","name":"theme","type":"string"},{"internalType":"string","name":"contactAddress","type":"string"},{"internalType":"string","name":"latitude","type":"string"},{"internalType":"string","name":"longitude","type":"string"},{"internalType":"string","name":"description","type":"string"},{"internalType":"string","name":"imgUrl","type":"string"},{"internalType":"uint256","name":"maxNumberOfGuests","type":"uint256"},{"internalType":"uint256","name":"pricePerDay","type":"uint256"}],"internalType":"struct DimoriMain.RentalInfo[]","name":"","type":"tuple[]"}],"stateMutability":"view","type":"function"},{"inputs":[],"name":"listingFee","outputs":[{"internalType":"uint256","name":"","type":"uint256"}],"stateMutability":"view","type":"function"},{"inputs":[],"name":"priceFeedAddress","outputs":[{"internalType":"address","name":"","type":"address"}],"stateMutability":"view","type":"function"},{"inputs":[{"internalType":"uint256","name":"_rentalId","type":"uint256"}],"name":"removeHome","outputs":[],"stateMutability":"nonpayable","type":"function"},{"inputs":[{"internalType":"uint256","name":"","type":"uint256"}],"name":"rentalBookings","outputs":[{"internalType":"uint256","name":"id","type":"uint256"},{"internalType":"uint256","name":"rentalId","type":"uint256"},{"internalType":"address","name":"rentalOwner","type":"address"},{"internalType":"address","name":"renter","type":"address"},{"internalType":"uint256","name":"fromTimestamp","type":"uint256"},{"internalType":"uint256","name":"toTimestamp","type":"uint256"},{"internalType":"bool","name":"isWaitingForCancel","type":"bool"},{"internalType":"bool","name":"isCheckin","type":"bool"},{"internalType":"bool","name":"isExpiered","type":"bool"}],"stateMutability":"view","type":"function"},{"inputs":[{"internalType":"uint256","name":"","type":"uint256"}],"name":"rentals","outputs":[{"internalType":"uint256","name":"id","type":"uint256"},{"internalType":"address","name":"owner","type":"address"},{"internalType":"string","name":"name","type":"string"},{"internalType":"string","name":"city","type":"string"},{"internalType":"string","name":"theme","type":"string"},{"internalType":"string","name":"contactAddress","type":"string"},{"internalType":"string","name":"latitude","type":"string"},{"internalType":"string","name":"longitude","type":"string"},{"internalType":"string","name":"description","type":"string"},{"internalType":"string","name":"imgUrl","type":"string"},{"internalType":"uint256","name":"maxNumberOfGuests","type":"uint256"},{"internalType":"uint256","name":"pricePerDay","type":"uint256"}],"stateMutability":"view","type":"function"},{"inputs":[],"name":"withdrawBalance","outputs":[],"stateMutability":"nonpayable","type":"function"}],"evm":{"bytecode":{"linkReferences":{},"object":"60806040523480156200001157600080fd5b5060405162003f8438038062003f8483398101604081905262000034916200006b565b60018054336001600160a01b031991821617909155600292909255600080549092166001600160a01b0391909116179055620000aa565b600080604083850312156200007f57600080fd5b825160208401519092506001600160a01b03811681146200009f57600080fd5b809150509250929050565b613eca80620000ba6000396000f3fe6080604052600436106100e45760003560e01c80630dca825e146100e957806327dc3fbd1461010b5780632ab4817a14610141578063438100d41461016e57806346e6e5fb146101e45780635a576b5f146101f75780635ea5da201461020a5780635fd8c7101461022c5780636a1b7ecc146102415780636ad54207146102655780637402dfcb1461028757806377f25f6f1461029a57806395b36670146102ba57806398d5fdca146102da578063af94a1d114610304578063c10e67501461033c578063e0abca0b1461034f578063e284af2414610387578063f851a440146103a7575b600080fd5b3480156100f557600080fd5b50610109610104366004613421565b6103c7565b005b34801561011757600080fd5b5061012b610126366004613421565b61040d565b60405161013891906135a3565b60405180910390f35b34801561014d57600080fd5b5061016161015c366004613421565b6109b0565b6040516101389190613628565b34801561017a57600080fd5b5061018e610189366004613421565b610aa5565b60408051998a5260208a01989098526001600160a01b0396871697890197909752949093166060870152608086019190915260a0850152151560c0840152151560e0830152151561010082015261012001610138565b6101096101f236600461363d565b610b16565b61010961020536600461370b565b6113d4565b34801561021657600080fd5b5061021f611662565b604051610138919061385f565b34801561023857600080fd5b50610109611b86565b34801561024d57600080fd5b5061025760025481565b604051908152602001610138565b34801561027157600080fd5b5061027a611c28565b60405161013891906138c1565b610109610295366004613910565b611cf1565b3480156102a657600080fd5b506101096102b5366004613421565b611f98565b3480156102c657600080fd5b506102576102d5366004613421565b611fc8565b3480156102e657600080fd5b506102ef612005565b60408051928352602083019190915201610138565b34801561031057600080fd5b5061032461031f366004613421565b6120f1565b6040516101389c9b9a99989796959493929190613a79565b61010961034a366004613421565b6125a8565b34801561035b57600080fd5b5060005461036f906001600160a01b031681565b6040516001600160a01b039091168152602001610138565b34801561039357600080fd5b506101096103a2366004613421565b612e87565b3480156103b357600080fd5b5060015461036f906001600160a01b031681565b60045481106103d35750565b6001600682815481106103e8576103e8613b4c565b60009182526020909120600790910201600601805460ff191691151591909117905550565b61047a6040518061018001604052806000815260200160006001600160a01b03168152602001606081526020016060815260200160608152602001606081526020016060815260200160608152602001606081526020016060815260200160008152602001600081525090565b81600354811061049d5760405163018960b360e01b815260040160405180910390fd5b600583815481106104b0576104b0613b4c565b90600052602060002090600c020160405180610180016040529081600082015481526020016001820160009054906101000a90046001600160a01b03166001600160a01b03166001600160a01b0316815260200160028201805461051390613b62565b80601f016020809104026020016040519081016040528092919081815260200182805461053f90613b62565b801561058c5780601f106105615761010080835404028352916020019161058c565b820191906000526020600020905b81548152906001019060200180831161056f57829003601f168201915b505050505081526020016003820180546105a590613b62565b80601f01602080910402602001604051908101604052809291908181526020018280546105d190613b62565b801561061e5780601f106105f35761010080835404028352916020019161061e565b820191906000526020600020905b81548152906001019060200180831161060157829003601f168201915b5050505050815260200160048201805461063790613b62565b80601f016020809104026020016040519081016040528092919081815260200182805461066390613b62565b80156106b05780601f10610685576101008083540402835291602001916106b0565b820191906000526020600020905b81548152906001019060200180831161069357829003601f168201915b505050505081526020016005820180546106c990613b62565b80601f01602080910402602001604051908101604052809291908181526020018280546106f590613b62565b80156107425780601f1061071757610100808354040283529160200191610742565b820191906000526020600020905b81548152906001019060200180831161072557829003601f168201915b5050505050815260200160068201805461075b90613b62565b80601f016020809104026020016040519081016040528092919081815260200182805461078790613b62565b80156107d45780601f106107a9576101008083540402835291602001916107d4565b820191906000526020600020905b8154815290600101906020018083116107b757829003601f168201915b505050505081526020016007820180546107ed90613b62565b80601f016020809104026020016040519081016040528092919081815260200182805461081990613b62565b80156108665780601f1061083b57610100808354040283529160200191610866565b820191906000526020600020905b81548152906001019060200180831161084957829003601f168201915b5050505050815260200160088201805461087f90613b62565b80601f01602080910402602001604051908101604052809291908181526020018280546108ab90613b62565b80156108f85780601f106108cd576101008083540402835291602001916108f8565b820191906000526020600020905b8154815290600101906020018083116108db57829003601f168201915b5050505050815260200160098201805461091190613b62565b80601f016020809104026020016040519081016040528092919081815260200182805461093d90613b62565b801561098a5780601f1061095f5761010080835404028352916020019161098a565b820191906000526020600020905b81548152906001019060200180831161096d57829003601f168201915b50505050508152602001600a8201548152602001600b8201548152505091505b50919050565b6040805161012081018252600080825260208201819052918101829052606081018290526080810182905260a0810182905260c0810182905260e0810182905261010081019190915260068281548110610a0c57610a0c613b4c565b6000918252602091829020604080516101208101825260079093029091018054835260018101549383019390935260028301546001600160a01b0390811691830191909152600383015416606082015260048201546080820152600582015460a082015260069091015460ff808216151560c08401526101008083048216151560e0850152620100009092041615159082015292915050565b60068181548110610ab557600080fd5b6000918252602090912060079091020180546001820154600283015460038401546004850154600586015460069096015494965092946001600160a01b039283169492909116929160ff808216916101008104821691620100009091041689565b826003548110610b395760405163018960b360e01b815260040160405180910390fd5b600060058581548110610b4e57610b4e613b4c565b90600052602060002090600c020160405180610180016040529081600082015481526020016001820160009054906101000a90046001600160a01b03166001600160a01b03166001600160a01b03168152602001600282018054610bb190613b62565b80601f0160208091040260200160405190810160405280929190818152602001828054610bdd90613b62565b8015610c2a5780601f10610bff57610100808354040283529160200191610c2a565b820191906000526020600020905b815481529060010190602001808311610c0d57829003601f168201915b50505050508152602001600382018054610c4390613b62565b80601f0160208091040260200160405190810160405280929190818152602001828054610c6f90613b62565b8015610cbc5780601f10610c9157610100808354040283529160200191610cbc565b820191906000526020600020905b815481529060010190602001808311610c9f57829003601f168201915b50505050508152602001600482018054610cd590613b62565b80601f0160208091040260200160405190810160405280929190818152602001828054610d0190613b62565b8015610d4e5780601f10610d2357610100808354040283529160200191610d4e565b820191906000526020600020905b815481529060010190602001808311610d3157829003601f168201915b50505050508152602001600582018054610d6790613b62565b80601f0160208091040260200160405190810160405280929190818152602001828054610d9390613b62565b8015610de05780601f10610db557610100808354040283529160200191610de0565b820191906000526020600020905b815481529060010190602001808311610dc357829003601f168201915b50505050508152602001600682018054610df990613b62565b80601f0160208091040260200160405190810160405280929190818152602001828054610e2590613b62565b8015610e725780601f10610e4757610100808354040283529160200191610e72565b820191906000526020600020905b815481529060010190602001808311610e5557829003601f168201915b50505050508152602001600782018054610e8b90613b62565b80601f0160208091040260200160405190810160405280929190818152602001828054610eb790613b62565b8015610f045780601f10610ed957610100808354040283529160200191610f04565b820191906000526020600020905b815481529060010190602001808311610ee757829003601f168201915b50505050508152602001600882018054610f1d90613b62565b80601f0160208091040260200160405190810160405280929190818152602001828054610f4990613b62565b8015610f965780601f10610f6b57610100808354040283529160200191610f96565b820191906000526020600020905b815481529060010190602001808311610f7957829003601f168201915b50505050508152602001600982018054610faf90613b62565b80601f0160208091040260200160405190810160405280929190818152602001828054610fdb90613b62565b80156110285780601f10610ffd57610100808354040283529160200191611028565b820191906000526020600020905b81548152906001019060200180831161100b57829003601f168201915b5050509183525050600a8201546020820152600b9091015460409091015290506000620151806110588686613bad565b6110629190613bc4565b905060018110156110865760405163a0955b6b60e01b815260040160405180910390fd5b600081611097846101600151611fc8565b6110a19190613be6565b90508034146110c357604051632ca2f52b60e11b815260040160405180910390fd5b6110ce878787613191565b156110ec57604051635f3bff1d60e11b815260040160405180910390fd5b6004805460208581015160408051610120810182528481529283018c81526001600160a01b038084169285019283523360608601908152608086018e815260a087018e8152600060c0890181815260e08a01828152610100808c01848152600680546001810182559086529c517ff652222313e28459528d920b65115c16c04f3efc82aaedc97be59f3f377c0d3f6007909e029d8e015598517ff652222313e28459528d920b65115c16c04f3efc82aaedc97be59f3f377c0d408d015598517ff652222313e28459528d920b65115c16c04f3efc82aaedc97be59f3f377c0d418c0180546001600160a01b0319908116928a1692909217905595517ff652222313e28459528d920b65115c16c04f3efc82aaedc97be59f3f377c0d428c01805490971697169690961790945591517ff652222313e28459528d920b65115c16c04f3efc82aaedc97be59f3f377c0d43890155517ff652222313e28459528d920b65115c16c04f3efc82aaedc97be59f3f377c0d4488015590517ff652222313e28459528d920b65115c16c04f3efc82aaedc97be59f3f377c0d4590960180549251935161ffff1990931696151561ff001916969096179215159093029190911762ff00001916620100009115159190910217909255835492939092916112d183613c05565b9190505550600085602001516001600160a01b0316346040516113009065109bdbdad95960d21b815260060190565b60006040518083038185875af1925050503d806000811461133d576040519150601f19603f3d011682016040523d82523d6000602084013e611342565b606091505b5050905080611364576040516312171d8360e31b815260040160405180910390fd5b60045460408051918252602082018c90526001600160a01b03841682820152336060830152608082018b905260a082018a90524260c0830152517f21164e0f9fadc202ec8a9f022e20300fa63b62b6567835d1ee251a16e6d9d4c69181900360e00190a150505050505050505050565b60025434146113f6576040516358d620b360e01b815260040160405180910390fd5b60035460408051610180810182528281523360208083019182529282018e8152606083018e9052608083018d905260a083018c905260c083018b905260e083018a905261010083018990526101208301889052610140830187905261016083018690526005805460018101825560009190915283517f036b6384b5eca791c62761152d0c79bb0604c104a5fb6f4eb0703f3154bb3db0600c90920291820190815592517f036b6384b5eca791c62761152d0c79bb0604c104a5fb6f4eb0703f3154bb3db1820180546001600160a01b0319166001600160a01b039092169190911790559051805193948594611511937f036b6384b5eca791c62761152d0c79bb0604c104a5fb6f4eb0703f3154bb3db20192909101906132d7565b506060820151805161152d9160038401916020909101906132d7565b50608082015180516115499160048401916020909101906132d7565b5060a082015180516115659160058401916020909101906132d7565b5060c082015180516115819160068401916020909101906132d7565b5060e0820151805161159d9160078401916020909101906132d7565b5061010082015180516115ba9160088401916020909101906132d7565b5061012082015180516115d79160098401916020909101906132d7565b50610140820151600a82015561016090910151600b909101556003805490600061160083613c05565b91905055507fca935f633619cd90e48e2d14da64eb295a277535de0ad2d2fc18a37a57884de782338e8e8e8e8e8e8e8e8e8e4260405161164c9d9c9b9a99989796959493929190613c20565b60405180910390a1505050505050505050505050565b60606005805480602002602001604051908101604052809291908181526020016000905b82821015611b7d5760008481526020908190206040805161018081018252600c86029092018054835260018101546001600160a01b031693830193909352600283018054929392918401916116da90613b62565b80601f016020809104026020016040519081016040528092919081815260200182805461170690613b62565b80156117535780601f1061172857610100808354040283529160200191611753565b820191906000526020600020905b81548152906001019060200180831161173657829003601f168201915b5050505050815260200160038201805461176c90613b62565b80601f016020809104026020016040519081016040528092919081815260200182805461179890613b62565b80156117e55780601f106117ba576101008083540402835291602001916117e5565b820191906000526020600020905b8154815290600101906020018083116117c857829003601f168201915b505050505081526020016004820180546117fe90613b62565b80601f016020809104026020016040519081016040528092919081815260200182805461182a90613b62565b80156118775780601f1061184c57610100808354040283529160200191611877565b820191906000526020600020905b81548152906001019060200180831161185a57829003601f168201915b5050505050815260200160058201805461189090613b62565b80601f01602080910402602001604051908101604052809291908181526020018280546118bc90613b62565b80156119095780601f106118de57610100808354040283529160200191611909565b820191906000526020600020905b8154815290600101906020018083116118ec57829003601f168201915b5050505050815260200160068201805461192290613b62565b80601f016020809104026020016040519081016040528092919081815260200182805461194e90613b62565b801561199b5780601f106119705761010080835404028352916020019161199b565b820191906000526020600020905b81548152906001019060200180831161197e57829003601f168201915b505050505081526020016007820180546119b490613b62565b80601f01602080910402602001604051908101604052809291908181526020018280546119e090613b62565b8015611a2d5780601f10611a0257610100808354040283529160200191611a2d565b820191906000526020600020905b815481529060010190602001808311611a1057829003601f168201915b50505050508152602001600882018054611a4690613b62565b80601f0160208091040260200160405190810160405280929190818152602001828054611a7290613b62565b8015611abf5780601f10611a9457610100808354040283529160200191611abf565b820191906000526020600020905b815481529060010190602001808311611aa257829003601f168201915b50505050508152602001600982018054611ad890613b62565b80601f0160208091040260200160405190810160405280929190818152602001828054611b0490613b62565b8015611b515780601f10611b2657610100808354040283529160200191611b51565b820191906000526020600020905b815481529060010190602001808311611b3457829003601f168201915b50505050508152602001600a8201548152602001600b8201548152505081526020019060010190611686565b50505050905090565b6001546001600160a01b03163314611bb157604051634755657960e01b815260040160405180910390fd5b6001546040516000916001600160a01b03169047908381818185875af1925050503d8060008114611bfe576040519150601f19603f3d011682016040523d82523d6000602084013e611c03565b606091505b5050905080611c25576040516312171d8360e31b815260040160405180910390fd5b50565b60606006805480602002602001604051908101604052809291908181526020016000905b82821015611b7d576000848152602090819020604080516101208101825260078602909201805483526001808201548486015260028201546001600160a01b03908116938501939093526003820154909216606084015260048101546080840152600581015460a08401526006015460ff808216151560c08501526101008083048216151560e086015262010000909204161515908301529083529092019101611c4c565b6002543414611d13576040516358d620b360e01b815260040160405180910390fd5b6003548b10611d2157611f8b565b8960058c81548110611d3557611d35613b4c565b90600052602060002090600c02016002019080519060200190611d599291906132d7565b508860058c81548110611d6e57611d6e613b4c565b90600052602060002090600c02016003019080519060200190611d929291906132d7565b508760058c81548110611da757611da7613b4c565b90600052602060002090600c02016004019080519060200190611dcb9291906132d7565b508660058c81548110611de057611de0613b4c565b90600052602060002090600c02016005019080519060200190611e049291906132d7565b508560058c81548110611e1957611e19613b4c565b90600052602060002090600c02016006019080519060200190611e3d9291906132d7565b508460058c81548110611e5257611e52613b4c565b90600052602060002090600c02016007019080519060200190611e769291906132d7565b508360058c81548110611e8b57611e8b613b4c565b90600052602060002090600c02016008019080519060200190611eaf9291906132d7565b508260058c81548110611ec457611ec4613b4c565b90600052602060002090600c02016009019080519060200190611ee89291906132d7565b508160058c81548110611efd57611efd613b4c565b90600052602060002090600c0201600a01819055508060058c81548110611f2657611f26613b4c565b90600052602060002090600c0201600b01819055507f9136c566ecc21047715bcf56df75f8c84a3caf28fa00a470e4191de2ba8489fc8b338c8c8c8c8c8c8c8c8c8c42604051611f829d9c9b9a99989796959493929190613c20565b60405180910390a15b5050505050505050505050565b6001546001600160a01b03163314611fc357604051634755657960e01b815260040160405180910390fd5b600255565b6000806000611fd5612005565b9092509050600082611fe883600a613de1565b611ff29087613be6565b611ffc9190613bc4565b95945050505050565b6000805460408051633fabe5a360e21b8152905183926001600160a01b0316918391839163feaf968c9160048083019260a09291908290030181865afa158015612053573d6000803e3d6000fd5b505050506040513d601f19601f820116820180604052508101906120779190613e09565b5050509150506000826001600160a01b031663313ce5676040518163ffffffff1660e01b8152600401602060405180830381865afa1580156120bd573d6000803e3d6000fd5b505050506040513d601f19601f820116820180604052508101906120e19190613e59565b919560ff90921694509092505050565b6005818154811061210157600080fd5b60009182526020909120600c90910201805460018201546002830180549294506001600160a01b03909116929161213790613b62565b80601f016020809104026020016040519081016040528092919081815260200182805461216390613b62565b80156121b05780601f10612185576101008083540402835291602001916121b0565b820191906000526020600020905b81548152906001019060200180831161219357829003601f168201915b5050505050908060030180546121c590613b62565b80601f01602080910402602001604051908101604052809291908181526020018280546121f190613b62565b801561223e5780601f106122135761010080835404028352916020019161223e565b820191906000526020600020905b81548152906001019060200180831161222157829003601f168201915b50505050509080600401805461225390613b62565b80601f016020809104026020016040519081016040528092919081815260200182805461227f90613b62565b80156122cc5780601f106122a1576101008083540402835291602001916122cc565b820191906000526020600020905b8154815290600101906020018083116122af57829003601f168201915b5050505050908060050180546122e190613b62565b80601f016020809104026020016040519081016040528092919081815260200182805461230d90613b62565b801561235a5780601f1061232f5761010080835404028352916020019161235a565b820191906000526020600020905b81548152906001019060200180831161233d57829003601f168201915b50505050509080600601805461236f90613b62565b80601f016020809104026020016040519081016040528092919081815260200182805461239b90613b62565b80156123e85780601f106123bd576101008083540402835291602001916123e8565b820191906000526020600020905b8154815290600101906020018083116123cb57829003601f168201915b5050505050908060070180546123fd90613b62565b80601f016020809104026020016040519081016040528092919081815260200182805461242990613b62565b80156124765780601f1061244b57610100808354040283529160200191612476565b820191906000526020600020905b81548152906001019060200180831161245957829003601f168201915b50505050509080600801805461248b90613b62565b80601f01602080910402602001604051908101604052809291908181526020018280546124b790613b62565b80156125045780601f106124d957610100808354040283529160200191612504565b820191906000526020600020905b8154815290600101906020018083116124e757829003601f168201915b50505050509080600901805461251990613b62565b80601f016020809104026020016040519081016040528092919081815260200182805461254590613b62565b80156125925780601f1061256757610100808354040283529160200191612592565b820191906000526020600020905b81548152906001019060200180831161257557829003601f168201915b50505050509080600a01549080600b015490508c565b8060045481106125cb5760405163bb9fac2160e01b815260040160405180910390fd5b600454821015806126035750600682815481106125ea576125ea613b4c565b600091825260209091206006600790920201015460ff16155b1561260c575050565b60006006838154811061262157612621613b4c565b600091825260208083206040805161012081018252600790940290910180548452600181015492840183905260028101546001600160a01b0390811692850192909252600381015490911660608401526004810154608084015260058082015460a085015260069091015460ff808216151560c08601526101008083048216151560e087015262010000909204161515908401528054929450909291839081106126cd576126cd613b4c565b90600052602060002090600c020160405180610180016040529081600082015481526020016001820160009054906101000a90046001600160a01b03166001600160a01b03166001600160a01b0316815260200160028201805461273090613b62565b80601f016020809104026020016040519081016040528092919081815260200182805461275c90613b62565b80156127a95780601f1061277e576101008083540402835291602001916127a9565b820191906000526020600020905b81548152906001019060200180831161278c57829003601f168201915b505050505081526020016003820180546127c290613b62565b80601f01602080910402602001604051908101604052809291908181526020018280546127ee90613b62565b801561283b5780601f106128105761010080835404028352916020019161283b565b820191906000526020600020905b81548152906001019060200180831161281e57829003601f168201915b5050505050815260200160048201805461285490613b62565b80601f016020809104026020016040519081016040528092919081815260200182805461288090613b62565b80156128cd5780601f106128a2576101008083540402835291602001916128cd565b820191906000526020600020905b8154815290600101906020018083116128b057829003601f168201915b505050505081526020016005820180546128e690613b62565b80601f016020809104026020016040519081016040528092919081815260200182805461291290613b62565b801561295f5780601f106129345761010080835404028352916020019161295f565b820191906000526020600020905b81548152906001019060200180831161294257829003601f168201915b5050505050815260200160068201805461297890613b62565b80601f01602080910402602001604051908101604052809291908181526020018280546129a490613b62565b80156129f15780601f106129c6576101008083540402835291602001916129f1565b820191906000526020600020905b8154815290600101906020018083116129d457829003601f168201915b50505050508152602001600782018054612a0a90613b62565b80601f0160208091040260200160405190810160405280929190818152602001828054612a3690613b62565b8015612a835780601f10612a5857610100808354040283529160200191612a83565b820191906000526020600020905b815481529060010190602001808311612a6657829003601f168201915b50505050508152602001600882018054612a9c90613b62565b80601f0160208091040260200160405190810160405280929190818152602001828054612ac890613b62565b8015612b155780601f10612aea57610100808354040283529160200191612b15565b820191906000526020600020905b815481529060010190602001808311612af857829003601f168201915b50505050508152602001600982018054612b2e90613b62565b80601f0160208091040260200160405190810160405280929190818152602001828054612b5a90613b62565b8015612ba75780601f10612b7c57610100808354040283529160200191612ba7565b820191906000526020600020905b815481529060010190602001808311612b8a57829003601f168201915b50505050508152602001600a8201548152602001600b82015481525050905060006201518084608001518560a00151612be09190613bad565b612bea9190613bc4565b9050600081612bfd846101600151611fc8565b612c079190613be6565b9050803414612c2957604051632ca2f52b60e11b815260040160405180910390fd5b600085606001516001600160a01b031634604051612c55906710d85b98d95b195960c21b815260080190565b60006040518083038185875af1925050503d8060008114612c92576040519150601f19603f3d011682016040523d82523d6000602084013e612c97565b606091505b5050905080612cb9576040516312171d8360e31b815260040160405180910390fd5b875b6001600454612cca9190613bad565b811015612dee576006612cde826001613e7c565b81548110612cee57612cee613b4c565b906000526020600020906007020160068281548110612d0f57612d0f613b4c565b6000918252602090912082546007909202019081556001808301549082015560028083015490820180546001600160a01b03199081166001600160a01b03938416179091556003808501549084018054909216921691909117905560048083015490820155600580830154908201556006918201805492909101805460ff938416151560ff19821681178355835461010090819004861615150261ff001990911661ffff19909216919091171780825591546201000090819004909316151590920262ff00001990911617905580612de681613c05565b915050612cbb565b5060066001600454612e009190613bad565b81548110612e1057612e10613b4c565b60009182526020822060079091020181815560018082018390556002820180546001600160a01b031990811690915560038301805490911690556004808301849055600583018490556006909201805462ffffff191690558154909290612e78908490613bad565b90915550505050505050505050565b6003548110612e935750565b60005b600454811015612ef7578160068281548110612eb457612eb4613b4c565b9060005260206000209060070201600101541415612ee557604051635291817b60e01b815260040160405180910390fd5b80612eef81613c05565b915050612e96565b50805b6001600354612f099190613bad565b8110156130ae576005612f1d826001613e7c565b81548110612f2d57612f2d613b4c565b90600052602060002090600c020160058281548110612f4e57612f4e613b4c565b600091825260209091208254600c9092020190815560018083015490820180546001600160a01b0319166001600160a01b039092169190911790556002808301805491830191612f9d90613b62565b612fa892919061335b565b506003820181600301908054612fbd90613b62565b612fc892919061335b565b506004820181600401908054612fdd90613b62565b612fe892919061335b565b506005820181600501908054612ffd90613b62565b61300892919061335b565b50600682018160060190805461301d90613b62565b61302892919061335b565b50600782018160070190805461303d90613b62565b61304892919061335b565b50600882018160080190805461305d90613b62565b61306892919061335b565b50600982018160090190805461307d90613b62565b61308892919061335b565b50600a8281015490820155600b91820154910155806130a681613c05565b915050612efa565b50600560016003546130c09190613bad565b815481106130d0576130d0613b4c565b600091825260208220600c909102018181556001810180546001600160a01b03191690559061310260028301826133d6565b6131106003830160006133d6565b61311e6004830160006133d6565b61312c6005830160006133d6565b61313a6006830160006133d6565b6131486007830160006133d6565b6131566008830160006133d6565b6131646009830160006133d6565b600a820160009055600b82016000905550506001600360008282546131899190613bad565b909155505050565b6000805b6004548110156132ca57600681815481106131b2576131b2613b4c565b906000526020600020906007020160010154851480156131f65750600681815481106131e0576131e0613b4c565b9060005260206000209060070201600401548410155b801561322657506006818154811061321057613210613b4c565b9060005260206000209060070201600501548411155b806132b357506006818154811061323f5761323f613b4c565b9060005260206000209060070201600101548514801561328357506006818154811061326d5761326d613b4c565b9060005260206000209060070201600401548310155b80156132b357506006818154811061329d5761329d613b4c565b9060005260206000209060070201600501548311155b156132c25760019150506132d0565b600101613195565b50600090505b9392505050565b8280546132e390613b62565b90600052602060002090601f016020900481019282613305576000855561334b565b82601f1061331e57805160ff191683800117855561334b565b8280016001018555821561334b579182015b8281111561334b578251825591602001919060010190613330565b5061335792915061340c565b5090565b82805461336790613b62565b90600052602060002090601f016020900481019282613389576000855561334b565b82601f1061339a578054855561334b565b8280016001018555821561334b57600052602060002091601f016020900482015b8281111561334b5782548255916001019190600101906133bb565b5080546133e290613b62565b6000825580601f106133f2575050565b601f016020900490600052602060002090810190611c2591905b5b80821115613357576000815560010161340d565b60006020828403121561343357600080fd5b5035919050565b6001600160a01b03169052565b6000815180845260005b8181101561346d57602081850181015186830182015201613451565b8181111561347f576000602083870101525b50601f01601f19169290920160200192915050565b60006101808251845260208301516134af602086018261343a565b5060408301518160408601526134c782860182613447565b915050606083015184820360608601526134e18282613447565b915050608083015184820360808601526134fb8282613447565b91505060a083015184820360a08601526135158282613447565b91505060c083015184820360c086015261352f8282613447565b91505060e083015184820360e08601526135498282613447565b91505061010080840151858303828701526135648382613447565b9250505061012080840151858303828701526135808382613447565b610140868101519088015261016095860151959096019490945250929392505050565b6020815260006132d06020830184613494565b8051825260208101516020830152604081015160018060a01b03808216604085015280606084015116606085015250506080810151608083015260a081015160a083015260c0810151151560c083015260e081015161361960e084018215159052565b50610100908101511515910152565b610120810161363782846135b6565b92915050565b60008060006060848603121561365257600080fd5b505081359360208301359350604090920135919050565b634e487b7160e01b600052604160045260246000fd5b600082601f83011261369057600080fd5b81356001600160401b03808211156136aa576136aa613669565b604051601f8301601f19908116603f011681019082821181831017156136d2576136d2613669565b816040528381528660208588010111156136eb57600080fd5b836020870160208301376000602085830101528094505050505092915050565b6000806000806000806000806000806101408b8d03121561372b57600080fd5b8a356001600160401b038082111561374257600080fd5b61374e8e838f0161367f565b9b5060208d013591508082111561376457600080fd5b6137708e838f0161367f565b9a5060408d013591508082111561378657600080fd5b6137928e838f0161367f565b995060608d01359150808211156137a857600080fd5b6137b48e838f0161367f565b985060808d01359150808211156137ca57600080fd5b6137d68e838f0161367f565b975060a08d01359150808211156137ec57600080fd5b6137f88e838f0161367f565b965060c08d013591508082111561380e57600080fd5b61381a8e838f0161367f565b955060e08d013591508082111561383057600080fd5b5061383d8d828e0161367f565b9350506101008b013591506101208b013590509295989b9194979a5092959850565b6000602080830181845280855180835260408601915060408160051b870101925083870160005b828110156138b457603f198886030184526138a2858351613494565b94509285019290850190600101613886565b5092979650505050505050565b6020808252825182820181905260009190848201906040850190845b81811015613904576138f08385516135b6565b9284019261012092909201916001016138dd565b50909695505050505050565b60008060008060008060008060008060006101608c8e03121561393257600080fd5b8b359a506001600160401b038060208e0135111561394f57600080fd5b61395f8e60208f01358f0161367f565b9a508060408e0135111561397257600080fd5b6139828e60408f01358f0161367f565b99508060608e0135111561399557600080fd5b6139a58e60608f01358f0161367f565b98508060808e013511156139b857600080fd5b6139c88e60808f01358f0161367f565b97508060a08e013511156139db57600080fd5b6139eb8e60a08f01358f0161367f565b96508060c08e013511156139fe57600080fd5b613a0e8e60c08f01358f0161367f565b95508060e08e01351115613a2157600080fd5b613a318e60e08f01358f0161367f565b9450806101008e01351115613a4557600080fd5b50613a578d6101008e01358e0161367f565b92506101208c013591506101408c013590509295989b509295989b9093969950565b60006101808e8352613a8e602084018f61343a565b806040840152613aa08184018e613447565b90508281036060840152613ab4818d613447565b90508281036080840152613ac8818c613447565b905082810360a0840152613adc818b613447565b905082810360c0840152613af0818a613447565b905082810360e0840152613b048189613447565b9050828103610100840152613b198188613447565b9050828103610120840152613b2e8187613447565b610140840195909552505061016001529a9950505050505050505050565b634e487b7160e01b600052603260045260246000fd5b600181811c90821680613b7657607f821691505b602082108114156109aa57634e487b7160e01b600052602260045260246000fd5b634e487b7160e01b600052601160045260246000fd5b600082821015613bbf57613bbf613b97565b500390565b600082613be157634e487b7160e01b600052601260045260246000fd5b500490565b6000816000190483118215151615613c0057613c00613b97565b500290565b6000600019821415613c1957613c19613b97565b5060010190565b8d8152613c30602082018e61343a565b6101a060408201526000613c486101a083018e613447565b8281036060840152613c5a818e613447565b90508281036080840152613c6e818d613447565b905082810360a0840152613c82818c613447565b905082810360c0840152613c96818b613447565b905082810360e0840152613caa818a613447565b9050828103610100840152613cbf8189613447565b9050828103610120840152613cd48188613447565b6101408401969096525050610160810192909252610180909101529a9950505050505050505050565b600181815b80851115613d38578160001904821115613d1e57613d1e613b97565b80851615613d2b57918102915b93841c9390800290613d02565b509250929050565b600082613d4f57506001613637565b81613d5c57506000613637565b8160018114613d725760028114613d7c57613d98565b6001915050613637565b60ff841115613d8d57613d8d613b97565b50506001821b613637565b5060208310610133831016604e8410600b8410161715613dbb575081810a613637565b613dc58383613cfd565b8060001904821115613dd957613dd9613b97565b029392505050565b60006132d08383613d40565b80516001600160501b0381168114613e0457600080fd5b919050565b600080600080600060a08688031215613e2157600080fd5b613e2a86613ded565b9450602086015193506040860151925060608601519150613e4d60808701613ded565b90509295509295909350565b600060208284031215613e6b57600080fd5b815160ff811681146132d057600080fd5b60008219821115613e8f57613e8f613b97565b50019056fea264697066735822122022d72fe0c7f93e6d4a692d48d6eace14e2fc6a701931fc2bb434ee83ebaa6dbb64736f6c634300080a0033","opcodes":"PUSH1 0x80 PUSH1 0x40 MSTORE CALLVALUE DUP1 ISZERO PUSH3 0x11 JUMPI PUSH1 0x0 DUP1 REVERT JUMPDEST POP PUSH1 0x40 MLOAD PUSH3 0x3F84 CODESIZE SUB DUP1 PUSH3 0x3F84 DUP4 CODECOPY DUP2 ADD PUSH1 0x40 DUP2 SWAP1 MSTORE PUSH3 0x34 SWAP2 PUSH3 0x6B JUMP JUMPDEST PUSH1 0x1 DUP1 SLOAD CALLER PUSH1 0x1 PUSH1 0x1 PUSH1 0xA0 SHL SUB NOT SWAP2 DUP3 AND OR SWAP1 SWAP2 SSTORE PUSH1 0x2 SWAP3 SWAP1 SWAP3 SSTORE PUSH1 0x0 DUP1 SLOAD SWAP1 SWAP3 AND PUSH1 0x1 PUSH1 0x1 PUSH1 0xA0 SHL SUB SWAP2 SWAP1 SWAP2 AND OR SWAP1 SSTORE PUSH3 0xAA JUMP JUMPDEST PUSH1 0x0 DUP1 PUSH1 0x40 DUP4 DUP6 SUB SLT ISZERO PUSH3 0x7F JUMPI PUSH1 0x0 DUP1 REVERT JUMPDEST DUP3 MLOAD PUSH1 0x20 DUP5 ADD MLOAD SWAP1 SWAP3 POP PUSH1 0x1 PUSH1 0x1 PUSH1 0xA0 SHL SUB DUP2 AND DUP2 EQ PUSH3 0x9F JUMPI PUSH1 0x0 DUP1 REVERT JUMPDEST DUP1 SWAP2 POP POP SWAP3 POP SWAP3 SWAP1 POP JUMP JUMPDEST PUSH2 0x3ECA DUP1 PUSH3 0xBA PUSH1 0x0 CODECOPY PUSH1 0x0 RETURN INVALID PUSH1 0x80 PUSH1 0x40 MSTORE PUSH1 0x4 CALLDATASIZE LT PUSH2 0xE4 JUMPI PUSH1 0x0 CALLDATALOAD PUSH1 0xE0 SHR DUP1 PUSH4 0xDCA825E EQ PUSH2 0xE9 JUMPI DUP1 PUSH4 0x27DC3FBD EQ PUSH2 0x10B JUMPI DUP1 PUSH4 0x2AB4817A EQ PUSH2 0x141 JUMPI DUP1 PUSH4 0x438100D4 EQ PUSH2 0x16E JUMPI DUP1 PUSH4 0x46E6E5FB EQ PUSH2 0x1E4 JUMPI DUP1 PUSH4 0x5A576B5F EQ PUSH2 0x1F7 JUMPI DUP1 PUSH4 0x5EA5DA20 EQ PUSH2 0x20A JUMPI DUP1 PUSH4 0x5FD8C710 EQ PUSH2 0x22C JUMPI DUP1 PUSH4 0x6A1B7ECC EQ PUSH2 0x241 JUMPI DUP1 PUSH4 0x6AD54207 EQ PUSH2 0x265 JUMPI DUP1 PUSH4 0x7402DFCB EQ PUSH2 0x287 JUMPI DUP1 PUSH4 0x77F25F6F EQ PUSH2 0x29A JUMPI DUP1 PUSH4 0x95B36670 EQ PUSH2 0x2BA JUMPI DUP1 PUSH4 0x98D5FDCA EQ PUSH2 0x2DA JUMPI DUP1 PUSH4 0xAF94A1D1 EQ PUSH2 0x304 JUMPI DUP1 PUSH4 0xC10E6750 EQ PUSH2 0x33C JUMPI DUP1 PUSH4 0xE0ABCA0B EQ PUSH2 0x34F JUMPI DUP1 PUSH4 0xE284AF24 EQ PUSH2 0x387 JUMPI DUP1 PUSH4 0xF851A440 EQ PUSH2 0x3A7 JUMPI JUMPDEST PUSH1 0x0 DUP1 REVERT JUMPDEST CALLVALUE DUP1 ISZERO PUSH2 0xF5 JUMPI PUSH1 0x0 DUP1 REVERT JUMPDEST POP PUSH2 0x109 PUSH2 0x104 CALLDATASIZE PUSH1 0x4 PUSH2 0x3421 JUMP JUMPDEST PUSH2 0x3C7 JUMP JUMPDEST STOP JUMPDEST CALLVALUE DUP1 ISZERO PUSH2 0x117 JUMPI PUSH1 0x0 DUP1 REVERT JUMPDEST POP PUSH2 0x12B PUSH2 0x126 CALLDATASIZE PUSH1 0x4 PUSH2 0x3421 JUMP JUMPDEST PUSH2 0x40D JUMP JUMPDEST PUSH1 0x40 MLOAD PUSH2 0x138 SWAP2 SWAP1 PUSH2 0x35A3 JUMP JUMPDEST PUSH1 0x40 MLOAD DUP1 SWAP2 SUB SWAP1 RETURN JUMPDEST CALLVALUE DUP1 ISZERO PUSH2 0x14D JUMPI PUSH1 0x0 DUP1 REVERT JUMPDEST POP PUSH2 0x161 PUSH2 0x15C CALLDATASIZE PUSH1 0x4 PUSH2 0x3421 JUMP JUMPDEST PUSH2 0x9B0 JUMP JUMPDEST PUSH1 0x40 MLOAD PUSH2 0x138 SWAP2 SWAP1 PUSH2 0x3628 JUMP JUMPDEST CALLVALUE DUP1 ISZERO PUSH2 0x17A JUMPI PUSH1 0x0 DUP1 REVERT JUMPDEST POP PUSH2 0x18E PUSH2 0x189 CALLDATASIZE PUSH1 0x4 PUSH2 0x3421 JUMP JUMPDEST PUSH2 0xAA5 JUMP JUMPDEST PUSH1 0x40 DUP1 MLOAD SWAP10 DUP11 MSTORE PUSH1 0x20 DUP11 ADD SWAP9 SWAP1 SWAP9 MSTORE PUSH1 0x1 PUSH1 0x1 PUSH1 0xA0 SHL SUB SWAP7 DUP8 AND SWAP8 DUP10 ADD SWAP8 SWAP1 SWAP8 MSTORE SWAP5 SWAP1 SWAP4 AND PUSH1 0x60 DUP8 ADD MSTORE PUSH1 0x80 DUP7 ADD SWAP2 SWAP1 SWAP2 MSTORE PUSH1 0xA0 DUP6 ADD MSTORE ISZERO ISZERO PUSH1 0xC0 DUP5 ADD MSTORE ISZERO ISZERO PUSH1 0xE0 DUP4 ADD MSTORE ISZERO ISZERO PUSH2 0x100 DUP3 ADD MSTORE PUSH2 0x120 ADD PUSH2 0x138 JUMP JUMPDEST PUSH2 0x109 PUSH2 0x1F2 CALLDATASIZE PUSH1 0x4 PUSH2 0x363D JUMP JUMPDEST PUSH2 0xB16 JUMP JUMPDEST PUSH2 0x109 PUSH2 0x205 CALLDATASIZE PUSH1 0x4 PUSH2 0x370B JUMP JUMPDEST PUSH2 0x13D4 JUMP JUMPDEST CALLVALUE DUP1 ISZERO PUSH2 0x216 JUMPI PUSH1 0x0 DUP1 REVERT JUMPDEST POP PUSH2 0x21F PUSH2 0x1662 JUMP JUMPDEST PUSH1 0x40 MLOAD PUSH2 0x138 SWAP2 SWAP1 PUSH2 0x385F JUMP JUMPDEST CALLVALUE DUP1 ISZERO PUSH2 0x238 JUMPI PUSH1 0x0 DUP1 REVERT JUMPDEST POP PUSH2 0x109 PUSH2 0x1B86 JUMP JUMPDEST CALLVALUE DUP1 ISZERO PUSH2 0x24D JUMPI PUSH1 0x0 DUP1 REVERT JUMPDEST POP PUSH2 0x257 PUSH1 0x2 SLOAD DUP2 JUMP JUMPDEST PUSH1 0x40 MLOAD SWAP1 DUP2 MSTORE PUSH1 0x20 ADD PUSH2 0x138 JUMP JUMPDEST CALLVALUE DUP1 ISZERO PUSH2 0x271 JUMPI PUSH1 0x0 DUP1 REVERT JUMPDEST POP PUSH2 0x27A PUSH2 0x1C28 JUMP JUMPDEST PUSH1 0x40 MLOAD PUSH2 0x138 SWAP2 SWAP1 PUSH2 0x38C1 JUMP JUMPDEST PUSH2 0x109 PUSH2 0x295 CALLDATASIZE PUSH1 0x4 PUSH2 0x3910 JUMP JUMPDEST PUSH2 0x1CF1 JUMP JUMPDEST CALLVALUE DUP1 ISZERO PUSH2 0x2A6 JUMPI PUSH1 0x0 DUP1 REVERT JUMPDEST POP PUSH2 0x109 PUSH2 0x2B5 CALLDATASIZE PUSH1 0x4 PUSH2 0x3421 JUMP JUMPDEST PUSH2 0x1F98 JUMP JUMPDEST CALLVALUE DUP1 ISZERO PUSH2 0x2C6 JUMPI PUSH1 0x0 DUP1 REVERT JUMPDEST POP PUSH2 0x257 PUSH2 0x2D5 CALLDATASIZE PUSH1 0x4 PUSH2 0x3421 JUMP JUMPDEST PUSH2 0x1FC8 JUMP JUMPDEST CALLVALUE DUP1 ISZERO PUSH2 0x2E6 JUMPI PUSH1 0x0 DUP1 REVERT JUMPDEST POP PUSH2 0x2EF PUSH2 0x2005 JUMP JUMPDEST PUSH1 0x40 DUP1 MLOAD SWAP3 DUP4 MSTORE PUSH1 0x20 DUP4 ADD SWAP2 SWAP1 SWAP2 MSTORE ADD PUSH2 0x138 JUMP JUMPDEST CALLVALUE DUP1 ISZERO PUSH2 0x310 JUMPI PUSH1 0x0 DUP1 REVERT JUMPDEST POP PUSH2 0x324 PUSH2 0x31F CALLDATASIZE PUSH1 0x4 PUSH2 0x3421 JUMP JUMPDEST PUSH2 0x20F1 JUMP JUMPDEST PUSH1 0x40 MLOAD PUSH2 0x138 SWAP13 SWAP12 SWAP11 SWAP10 SWAP9 SWAP8 SWAP7 SWAP6 SWAP5 SWAP4 SWAP3 SWAP2 SWAP1 PUSH2 0x3A79 JUMP JUMPDEST PUSH2 0x109 PUSH2 0x34A CALLDATASIZE PUSH1 0x4 PUSH2 0x3421 JUMP JUMPDEST PUSH2 0x25A8 JUMP JUMPDEST CALLVALUE DUP1 ISZERO PUSH2 0x35B JUMPI PUSH1 0x0 DUP1 REVERT JUMPDEST POP PUSH1 0x0 SLOAD PUSH2 0x36F SWAP1 PUSH1 0x1 PUSH1 0x1 PUSH1 0xA0 SHL SUB AND DUP2 JUMP JUMPDEST PUSH1 0x40 MLOAD PUSH1 0x1 PUSH1 0x1 PUSH1 0xA0 SHL SUB SWAP1 SWAP2 AND DUP2 MSTORE PUSH1 0x20 ADD PUSH2 0x138 JUMP JUMPDEST CALLVALUE DUP1 ISZERO PUSH2 0x393 JUMPI PUSH1 0x0 DUP1 REVERT JUMPDEST POP PUSH2 0x109 PUSH2 0x3A2 CALLDATASIZE PUSH1 0x4 PUSH2 0x3421 JUMP JUMPDEST PUSH2 0x2E87 JUMP JUMPDEST CALLVALUE DUP1 ISZERO PUSH2 0x3B3 JUMPI PUSH1 0x0 DUP1 REVERT JUMPDEST POP PUSH1 0x1 SLOAD PUSH2 0x36F SWAP1 PUSH1 0x1 PUSH1 0x1 PUSH1 0xA0 SHL SUB AND DUP2 JUMP JUMPDEST PUSH1 0x4 SLOAD DUP2 LT PUSH2 0x3D3 JUMPI POP JUMP JUMPDEST PUSH1 0x1 PUSH1 0x6 DUP3 DUP2 SLOAD DUP2 LT PUSH2 0x3E8 JUMPI PUSH2 0x3E8 PUSH2 0x3B4C JUMP JUMPDEST PUSH1 0x0 SWAP2 DUP3 MSTORE PUSH1 0x20 SWAP1 SWAP2 KECCAK256 PUSH1 0x7 SWAP1 SWAP2 MUL ADD PUSH1 0x6 ADD DUP1 SLOAD PUSH1 0xFF NOT AND SWAP2 ISZERO ISZERO SWAP2 SWAP1 SWAP2 OR SWAP1 SSTORE POP JUMP JUMPDEST PUSH2 0x47A PUSH1 0x40 MLOAD DUP1 PUSH2 0x180 ADD PUSH1 0x40 MSTORE DUP1 PUSH1 0x0 DUP2 MSTORE PUSH1 0x20 ADD PUSH1 0x0 PUSH1 0x1 PUSH1 0x1 PUSH1 0xA0 SHL SUB AND DUP2 MSTORE PUSH1 0x20 ADD PUSH1 0x60 DUP2 MSTORE PUSH1 0x20 ADD PUSH1 0x60 DUP2 MSTORE PUSH1 0x20 ADD PUSH1 0x60 DUP2 MSTORE PUSH1 0x20 ADD PUSH1 0x60 DUP2 MSTORE PUSH1 0x20 ADD PUSH1 0x60 DUP2 MSTORE PUSH1 0x20 ADD PUSH1 0x60 DUP2 MSTORE PUSH1 0x20 ADD PUSH1 0x60 DUP2 MSTORE PUSH1 0x20 ADD PUSH1 0x60 DUP2 MSTORE PUSH1 0x20 ADD PUSH1 0x0 DUP2 MSTORE PUSH1 0x20 ADD PUSH1 0x0 DUP2 MSTORE POP SWAP1 JUMP JUMPDEST DUP2 PUSH1 0x3 SLOAD DUP2 LT PUSH2 0x49D JUMPI PUSH1 0x40 MLOAD PUSH4 0x18960B3 PUSH1 0xE0 SHL DUP2 MSTORE PUSH1 0x4 ADD PUSH1 0x40 MLOAD DUP1 SWAP2 SUB SWAP1 REVERT JUMPDEST PUSH1 0x5 DUP4 DUP2 SLOAD DUP2 LT PUSH2 0x4B0 JUMPI PUSH2 0x4B0 PUSH2 0x3B4C JUMP JUMPDEST SWAP1 PUSH1 0x0 MSTORE PUSH1 0x20 PUSH1 0x0 KECCAK256 SWAP1 PUSH1 0xC MUL ADD PUSH1 0x40 MLOAD DUP1 PUSH2 0x180 ADD PUSH1 0x40 MSTORE SWAP1 DUP2 PUSH1 0x0 DUP3 ADD SLOAD DUP2 MSTORE PUSH1 0x20 ADD PUSH1 0x1 DUP3 ADD PUSH1 0x0 SWAP1 SLOAD SWAP1 PUSH2 0x100 EXP SWAP1 DIV PUSH1 0x1 PUSH1 0x1 PUSH1 0xA0 SHL SUB AND PUSH1 0x1 PUSH1 0x1 PUSH1 0xA0 SHL SUB AND PUSH1 0x1 PUSH1 0x1 PUSH1 0xA0 SHL SUB AND DUP2 MSTORE PUSH1 0x20 ADD PUSH1 0x2 DUP3 ADD DUP1 SLOAD PUSH2 0x513 SWAP1 PUSH2 0x3B62 JUMP JUMPDEST DUP1 PUSH1 0x1F ADD PUSH1 0x20 DUP1 SWAP2 DIV MUL PUSH1 0x20 ADD PUSH1 0x40 MLOAD SWAP1 DUP2 ADD PUSH1 0x40 MSTORE DUP1 SWAP3 SWAP2 SWAP1 DUP2 DUP2 MSTORE PUSH1 0x20 ADD DUP3 DUP1 SLOAD PUSH2 0x53F SWAP1 PUSH2 0x3B62 JUMP JUMPDEST DUP1 ISZERO PUSH2 0x58C JUMPI DUP1 PUSH1 0x1F LT PUSH2 0x561 JUMPI PUSH2 0x100 DUP1 DUP4 SLOAD DIV MUL DUP4 MSTORE SWAP2 PUSH1 0x20 ADD SWAP2 PUSH2 0x58C JUMP JUMPDEST DUP3 ADD SWAP2 SWAP1 PUSH1 0x0 MSTORE PUSH1 0x20 PUSH1 0x0 KECCAK256 SWAP1 JUMPDEST DUP2 SLOAD DUP2 MSTORE SWAP1 PUSH1 0x1 ADD SWAP1 PUSH1 0x20 ADD DUP1 DUP4 GT PUSH2 0x56F JUMPI DUP3 SWAP1 SUB PUSH1 0x1F AND DUP3 ADD SWAP2 JUMPDEST POP POP POP POP POP DUP2 MSTORE PUSH1 0x20 ADD PUSH1 0x3 DUP3 ADD DUP1 SLOAD PUSH2 0x5A5 SWAP1 PUSH2 0x3B62 JUMP JUMPDEST DUP1 PUSH1 0x1F ADD PUSH1 0x20 DUP1 SWAP2 DIV MUL PUSH1 0x20 ADD PUSH1 0x40 MLOAD SWAP1 DUP2 ADD PUSH1 0x40 MSTORE DUP1 SWAP3 SWAP2 SWAP1 DUP2 DUP2 MSTORE PUSH1 0x20 ADD DUP3 DUP1 SLOAD PUSH2 0x5D1 SWAP1 PUSH2 0x3B62 JUMP JUMPDEST DUP1 ISZERO PUSH2 0x61E JUMPI DUP1 PUSH1 0x1F LT PUSH2 0x5F3 JUMPI PUSH2 0x100 DUP1 DUP4 SLOAD DIV MUL DUP4 MSTORE SWAP2 PUSH1 0x20 ADD SWAP2 PUSH2 0x61E JUMP JUMPDEST DUP3 ADD SWAP2 SWAP1 PUSH1 0x0 MSTORE PUSH1 0x20 PUSH1 0x0 KECCAK256 SWAP1 JUMPDEST DUP2 SLOAD DUP2 MSTORE SWAP1 PUSH1 0x1 ADD SWAP1 PUSH1 0x20 ADD DUP1 DUP4 GT PUSH2 0x601 JUMPI DUP3 SWAP1 SUB PUSH1 0x1F AND DUP3 ADD SWAP2 JUMPDEST POP POP POP POP POP DUP2 MSTORE PUSH1 0x20 ADD PUSH1 0x4 DUP3 ADD DUP1 SLOAD PUSH2 0x637 SWAP1 PUSH2 0x3B62 JUMP JUMPDEST DUP1 PUSH1 0x1F ADD PUSH1 0x20 DUP1 SWAP2 DIV MUL PUSH1 0x20 ADD PUSH1 0x40 MLOAD SWAP1 DUP2 ADD PUSH1 0x40 MSTORE DUP1 SWAP3 SWAP2 SWAP1 DUP2 DUP2 MSTORE PUSH1 0x20 ADD DUP3 DUP1 SLOAD PUSH2 0x663 SWAP1 PUSH2 0x3B62 JUMP JUMPDEST DUP1 ISZERO PUSH2 0x6B0 JUMPI DUP1 PUSH1 0x1F LT PUSH2 0x685 JUMPI PUSH2 0x100 DUP1 DUP4 SLOAD DIV MUL DUP4 MSTORE SWAP2 PUSH1 0x20 ADD SWAP2 PUSH2 0x6B0 JUMP JUMPDEST DUP3 ADD SWAP2 SWAP1 PUSH1 0x0 MSTORE PUSH1 0x20 PUSH1 0x0 KECCAK256 SWAP1 JUMPDEST DUP2 SLOAD DUP2 MSTORE SWAP1 PUSH1 0x1 ADD SWAP1 PUSH1 0x20 ADD DUP1 DUP4 GT PUSH2 0x693 JUMPI DUP3 SWAP1 SUB PUSH1 0x1F AND DUP3 ADD SWAP2 JUMPDEST POP POP POP POP POP DUP2 MSTORE PUSH1 0x20 ADD PUSH1 0x5 DUP3 ADD DUP1 SLOAD PUSH2 0x6C9 SWAP1 PUSH2 0x3B62 JUMP JUMPDEST DUP1 PUSH1 0x1F ADD PUSH1 0x20 DUP1 SWAP2 DIV MUL PUSH1 0x20 ADD PUSH1 0x40 MLOAD SWAP1 DUP2 ADD PUSH1 0x40 MSTORE DUP1 SWAP3 SWAP2 SWAP1 DUP2 DUP2 MSTORE PUSH1 0x20 ADD DUP3 DUP1 SLOAD PUSH2 0x6F5 SWAP1 PUSH2 0x3B62 JUMP JUMPDEST DUP1 ISZERO PUSH2 0x742 JUMPI DUP1 PUSH1 0x1F LT PUSH2 0x717 JUMPI PUSH2 0x100 DUP1 DUP4 SLOAD DIV MUL DUP4 MSTORE SWAP2 PUSH1 0x20 ADD SWAP2 PUSH2 0x742 JUMP JUMPDEST DUP3 ADD SWAP2 SWAP1 PUSH1 0x0 MSTORE PUSH1 0x20 PUSH1 0x0 KECCAK256 SWAP1 JUMPDEST DUP2 SLOAD DUP2 MSTORE SWAP1 PUSH1 0x1 ADD SWAP1 PUSH1 0x20 ADD DUP1 DUP4 GT PUSH2 0x725 JUMPI DUP3 SWAP1 SUB PUSH1 0x1F AND DUP3 ADD SWAP2 JUMPDEST POP POP POP POP POP DUP2 MSTORE PUSH1 0x20 ADD PUSH1 0x6 DUP3 ADD DUP1 SLOAD PUSH2 0x75B SWAP1 PUSH2 0x3B62 JUMP JUMPDEST DUP1 PUSH1 0x1F ADD PUSH1 0x20 DUP1 SWAP2 DIV MUL PUSH1 0x20 ADD PUSH1 0x40 MLOAD SWAP1 DUP2 ADD PUSH1 0x40 MSTORE DUP1 SWAP3 SWAP2 SWAP1 DUP2 DUP2 MSTORE PUSH1 0x20 ADD DUP3 DUP1 SLOAD PUSH2 0x787 SWAP1 PUSH2 0x3B62 JUMP JUMPDEST DUP1 ISZERO PUSH2 0x7D4 JUMPI DUP1 PUSH1 0x1F LT PUSH2 0x7A9 JUMPI PUSH2 0x100 DUP1 DUP4 SLOAD DIV MUL DUP4 MSTORE SWAP2 PUSH1 0x20 ADD SWAP2 PUSH2 0x7D4 JUMP JUMPDEST DUP3 ADD SWAP2 SWAP1 PUSH1 0x0 MSTORE PUSH1 0x20 PUSH1 0x0 KECCAK256 SWAP1 JUMPDEST DUP2 SLOAD DUP2 MSTORE SWAP1 PUSH1 0x1 ADD SWAP1 PUSH1 0x20 ADD DUP1 DUP4 GT PUSH2 0x7B7 JUMPI DUP3 SWAP1 SUB PUSH1 0x1F AND DUP3 ADD SWAP2 JUMPDEST POP POP POP POP POP DUP2 MSTORE PUSH1 0x20 ADD PUSH1 0x7 DUP3 ADD DUP1 SLOAD PUSH2 0x7ED SWAP1 PUSH2 0x3B62 JUMP JUMPDEST DUP1 PUSH1 0x1F ADD PUSH1 0x20 DUP1 SWAP2 DIV MUL PUSH1 0x20 ADD PUSH1 0x40 MLOAD SWAP1 DUP2 ADD PUSH1 0x40 MSTORE DUP1 SWAP3 SWAP2 SWAP1 DUP2 DUP2 MSTORE PUSH1 0x20 ADD DUP3 DUP1 SLOAD PUSH2 0x819 SWAP1 PUSH2 0x3B62 JUMP JUMPDEST DUP1 ISZERO PUSH2 0x866 JUMPI DUP1 PUSH1 0x1F LT PUSH2 0x83B JUMPI PUSH2 0x100 DUP1 DUP4 SLOAD DIV MUL DUP4 MSTORE SWAP2 PUSH1 0x20 ADD SWAP2 PUSH2 0x866 JUMP JUMPDEST DUP3 ADD SWAP2 SWAP1 PUSH1 0x0 MSTORE PUSH1 0x20 PUSH1 0x0 KECCAK256 SWAP1 JUMPDEST DUP2 SLOAD DUP2 MSTORE SWAP1 PUSH1 0x1 ADD SWAP1 PUSH1 0x20 ADD DUP1 DUP4 GT PUSH2 0x849 JUMPI DUP3 SWAP1 SUB PUSH1 0x1F AND DUP3 ADD SWAP2 JUMPDEST POP POP POP POP POP DUP2 MSTORE PUSH1 0x20 ADD PUSH1 0x8 DUP3 ADD DUP1 SLOAD PUSH2 0x87F SWAP1 PUSH2 0x3B62 JUMP JUMPDEST DUP1 PUSH1 0x1F ADD PUSH1 0x20 DUP1 SWAP2 DIV MUL PUSH1 0x20 ADD PUSH1 0x40 MLOAD SWAP1 DUP2 ADD PUSH1 0x40 MSTORE DUP1 SWAP3 SWAP2 SWAP1 DUP2 DUP2 MSTORE PUSH1 0x20 ADD DUP3 DUP1 SLOAD PUSH2 0x8AB SWAP1 PUSH2 0x3B62 JUMP JUMPDEST DUP1 ISZERO PUSH2 0x8F8 JUMPI DUP1 PUSH1 0x1F LT PUSH2 0x8CD JUMPI PUSH2 0x100 DUP1 DUP4 SLOAD DIV MUL DUP4 MSTORE SWAP2 PUSH1 0x20 ADD SWAP2 PUSH2 0x8F8 JUMP JUMPDEST DUP3 ADD SWAP2 SWAP1 PUSH1 0x0 MSTORE PUSH1 0x20 PUSH1 0x0 KECCAK256 SWAP1 JUMPDEST DUP2 SLOAD DUP2 MSTORE SWAP1 PUSH1 0x1 ADD SWAP1 PUSH1 0x20 ADD DUP1 DUP4 GT PUSH2 0x8DB JUMPI DUP3 SWAP1 SUB PUSH1 0x1F AND DUP3 ADD SWAP2 JUMPDEST POP POP POP POP POP DUP2 MSTORE PUSH1 0x20 ADD PUSH1 0x9 DUP3 ADD DUP1 SLOAD PUSH2 0x911 SWAP1 PUSH2 0x3B62 JUMP JUMPDEST DUP1 PUSH1 0x1F ADD PUSH1 0x20 DUP1 SWAP2 DIV MUL PUSH1 0x20 ADD PUSH1 0x40 MLOAD SWAP1 DUP2 ADD PUSH1 0x40 MSTORE DUP1 SWAP3 SWAP2 SWAP1 DUP2 DUP2 MSTORE PUSH1 0x20 ADD DUP3 DUP1 SLOAD PUSH2 0x93D SWAP1 PUSH2 0x3B62 JUMP JUMPDEST DUP1 ISZERO PUSH2 0x98A JUMPI DUP1 PUSH1 0x1F LT PUSH2 0x95F JUMPI PUSH2 0x100 DUP1 DUP4 SLOAD DIV MUL DUP4 MSTORE SWAP2 PUSH1 0x20 ADD SWAP2 PUSH2 0x98A JUMP JUMPDEST DUP3 ADD SWAP2 SWAP1 PUSH1 0x0 MSTORE PUSH1 0x20 PUSH1 0x0 KECCAK256 SWAP1 JUMPDEST DUP2 SLOAD DUP2 MSTORE SWAP1 PUSH1 0x1 ADD SWAP1 PUSH1 0x20 ADD DUP1 DUP4 GT PUSH2 0x96D JUMPI DUP3 SWAP1 SUB PUSH1 0x1F AND DUP3 ADD SWAP2 JUMPDEST POP POP POP POP POP DUP2 MSTORE PUSH1 0x20 ADD PUSH1 0xA DUP3 ADD SLOAD DUP2 MSTORE PUSH1 0x20 ADD PUSH1 0xB DUP3 ADD SLOAD DUP2 MSTORE POP POP SWAP2 POP JUMPDEST POP SWAP2 SWAP1 POP JUMP JUMPDEST PUSH1 0x40 DUP1 MLOAD PUSH2 0x120 DUP2 ADD DUP3 MSTORE PUSH1 0x0 DUP1 DUP3 MSTORE PUSH1 0x20 DUP3 ADD DUP2 SWAP1 MSTORE SWAP2 DUP2 ADD DUP3 SWAP1 MSTORE PUSH1 0x60 DUP2 ADD DUP3 SWAP1 MSTORE PUSH1 0x80 DUP2 ADD DUP3 SWAP1 MSTORE PUSH1 0xA0 DUP2 ADD DUP3 SWAP1 MSTORE PUSH1 0xC0 DUP2 ADD DUP3 SWAP1 MSTORE PUSH1 0xE0 DUP2 ADD DUP3 SWAP1 MSTORE PUSH2 0x100 DUP2 ADD SWAP2 SWAP1 SWAP2 MSTORE PUSH1 0x6 DUP3 DUP2 SLOAD DUP2 LT PUSH2 0xA0C JUMPI PUSH2 0xA0C PUSH2 0x3B4C JUMP JUMPDEST PUSH1 0x0 SWAP2 DUP3 MSTORE PUSH1 0x20 SWAP2 DUP3 SWAP1 KECCAK256 PUSH1 0x40 DUP1 MLOAD PUSH2 0x120 DUP2 ADD DUP3 MSTORE PUSH1 0x7 SWAP1 SWAP4 MUL SWAP1 SWAP2 ADD DUP1 SLOAD DUP4 MSTORE PUSH1 0x1 DUP2 ADD SLOAD SWAP4 DUP4 ADD SWAP4 SWAP1 SWAP4 MSTORE PUSH1 0x2 DUP4 ADD SLOAD PUSH1 0x1 PUSH1 0x1 PUSH1 0xA0 SHL SUB SWAP1 DUP2 AND SWAP2 DUP4 ADD SWAP2 SWAP1 SWAP2 MSTORE PUSH1 0x3 DUP4 ADD SLOAD AND PUSH1 0x60 DUP3 ADD MSTORE PUSH1 0x4 DUP3 ADD SLOAD PUSH1 0x80 DUP3 ADD MSTORE PUSH1 0x5 DUP3 ADD SLOAD PUSH1 0xA0 DUP3 ADD MSTORE PUSH1 0x6 SWAP1 SWAP2 ADD SLOAD PUSH1 0xFF DUP1 DUP3 AND ISZERO ISZERO PUSH1 0xC0 DUP5 ADD MSTORE PUSH2 0x100 DUP1 DUP4 DIV DUP3 AND ISZERO ISZERO PUSH1 0xE0 DUP6 ADD MSTORE PUSH3 0x10000 SWAP1 SWAP3 DIV AND ISZERO ISZERO SWAP1 DUP3 ADD MSTORE SWAP3 SWAP2 POP POP JUMP JUMPDEST PUSH1 0x6 DUP2 DUP2 SLOAD DUP2 LT PUSH2 0xAB5 JUMPI PUSH1 0x0 DUP1 REVERT JUMPDEST PUSH1 0x0 SWAP2 DUP3 MSTORE PUSH1 0x20 SWAP1 SWAP2 KECCAK256 PUSH1 0x7 SWAP1 SWAP2 MUL ADD DUP1 SLOAD PUSH1 0x1 DUP3 ADD SLOAD PUSH1 0x2 DUP4 ADD SLOAD PUSH1 0x3 DUP5 ADD SLOAD PUSH1 0x4 DUP6 ADD SLOAD PUSH1 0x5 DUP7 ADD SLOAD PUSH1 0x6 SWAP1 SWAP7 ADD SLOAD SWAP5 SWAP7 POP SWAP3 SWAP5 PUSH1 0x1 PUSH1 0x1 PUSH1 0xA0 SHL SUB SWAP3 DUP4 AND SWAP5 SWAP3 SWAP1 SWAP2 AND SWAP3 SWAP2 PUSH1 0xFF DUP1 DUP3 AND SWAP2 PUSH2 0x100 DUP2 DIV DUP3 AND SWAP2 PUSH3 0x10000 SWAP1 SWAP2 DIV AND DUP10 JUMP JUMPDEST DUP3 PUSH1 0x3 SLOAD DUP2 LT PUSH2 0xB39 JUMPI PUSH1 0x40 MLOAD PUSH4 0x18960B3 PUSH1 0xE0 SHL DUP2 MSTORE PUSH1 0x4 ADD PUSH1 0x40 MLOAD DUP1 SWAP2 SUB SWAP1 REVERT JUMPDEST PUSH1 0x0 PUSH1 0x5 DUP6 DUP2 SLOAD DUP2 LT PUSH2 0xB4E JUMPI PUSH2 0xB4E PUSH2 0x3B4C JUMP JUMPDEST SWAP1 PUSH1 0x0 MSTORE PUSH1 0x20 PUSH1 0x0 KECCAK256 SWAP1 PUSH1 0xC MUL ADD PUSH1 0x40 MLOAD DUP1 PUSH2 0x180 ADD PUSH1 0x40 MSTORE SWAP1 DUP2 PUSH1 0x0 DUP3 ADD SLOAD DUP2 MSTORE PUSH1 0x20 ADD PUSH1 0x1 DUP3 ADD PUSH1 0x0 SWAP1 SLOAD SWAP1 PUSH2 0x100 EXP SWAP1 DIV PUSH1 0x1 PUSH1 0x1 PUSH1 0xA0 SHL SUB AND PUSH1 0x1 PUSH1 0x1 PUSH1 0xA0 SHL SUB AND PUSH1 0x1 PUSH1 0x1 PUSH1 0xA0 SHL SUB AND DUP2 MSTORE PUSH1 0x20 ADD PUSH1 0x2 DUP3 ADD DUP1 SLOAD PUSH2 0xBB1 SWAP1 PUSH2 0x3B62 JUMP JUMPDEST DUP1 PUSH1 0x1F ADD PUSH1 0x20 DUP1 SWAP2 DIV MUL PUSH1 0x20 ADD PUSH1 0x40 MLOAD SWAP1 DUP2 ADD PUSH1 0x40 MSTORE DUP1 SWAP3 SWAP2 SWAP1 DUP2 DUP2 MSTORE PUSH1 0x20 ADD DUP3 DUP1 SLOAD PUSH2 0xBDD SWAP1 PUSH2 0x3B62 JUMP JUMPDEST DUP1 ISZERO PUSH2 0xC2A JUMPI DUP1 PUSH1 0x1F LT PUSH2 0xBFF JUMPI PUSH2 0x100 DUP1 DUP4 SLOAD DIV MUL DUP4 MSTORE SWAP2 PUSH1 0x20 ADD SWAP2 PUSH2 0xC2A JUMP JUMPDEST DUP3 ADD SWAP2 SWAP1 PUSH1 0x0 MSTORE PUSH1 0x20 PUSH1 0x0 KECCAK256 SWAP1 JUMPDEST DUP2 SLOAD DUP2 MSTORE SWAP1 PUSH1 0x1 ADD SWAP1 PUSH1 0x20 ADD DUP1 DUP4 GT PUSH2 0xC0D JUMPI DUP3 SWAP1 SUB PUSH1 0x1F AND DUP3 ADD SWAP2 JUMPDEST POP POP POP POP POP DUP2 MSTORE PUSH1 0x20 ADD PUSH1 0x3 DUP3 ADD DUP1 SLOAD PUSH2 0xC43 SWAP1 PUSH2 0x3B62 JUMP JUMPDEST DUP1 PUSH1 0x1F ADD PUSH1 0x20 DUP1 SWAP2 DIV MUL PUSH1 0x20 ADD PUSH1 0x40 MLOAD SWAP1 DUP2 ADD PUSH1 0x40 MSTORE DUP1 SWAP3 SWAP2 SWAP1 DUP2 DUP2 MSTORE PUSH1 0x20 ADD DUP3 DUP1 SLOAD PUSH2 0xC6F SWAP1 PUSH2 0x3B62 JUMP JUMPDEST DUP1 ISZERO PUSH2 0xCBC JUMPI DUP1 PUSH1 0x1F LT PUSH2 0xC91 JUMPI PUSH2 0x100 DUP1 DUP4 SLOAD DIV MUL DUP4 MSTORE SWAP2 PUSH1 0x20 ADD SWAP2 PUSH2 0xCBC JUMP JUMPDEST DUP3 ADD SWAP2 SWAP1 PUSH1 0x0 MSTORE PUSH1 0x20 PUSH1 0x0 KECCAK256 SWAP1 JUMPDEST DUP2 SLOAD DUP2 MSTORE SWAP1 PUSH1 0x1 ADD SWAP1 PUSH1 0x20 ADD DUP1 DUP4 GT PUSH2 0xC9F JUMPI DUP3 SWAP1 SUB PUSH1 0x1F AND DUP3 ADD SWAP2 JUMPDEST POP POP POP POP POP DUP2 MSTORE PUSH1 0x20 ADD PUSH1 0x4 DUP3 ADD DUP1 SLOAD PUSH2 0xCD5 SWAP1 PUSH2 0x3B62 JUMP JUMPDEST DUP1 PUSH1 0x1F ADD PUSH1 0x20 DUP1 SWAP2 DIV MUL PUSH1 0x20 ADD PUSH1 0x40 MLOAD SWAP1 DUP2 ADD PUSH1 0x40 MSTORE DUP1 SWAP3 SWAP2 SWAP1 DUP2 DUP2 MSTORE PUSH1 0x20 ADD DUP3 DUP1 SLOAD PUSH2 0xD01 SWAP1 PUSH2 0x3B62 JUMP JUMPDEST DUP1 ISZERO PUSH2 0xD4E JUMPI DUP1 PUSH1 0x1F LT PUSH2 0xD23 JUMPI PUSH2 0x100 DUP1 DUP4 SLOAD DIV MUL DUP4 MSTORE SWAP2 PUSH1 0x20 ADD SWAP2 PUSH2 0xD4E JUMP JUMPDEST DUP3 ADD SWAP2 SWAP1 PUSH1 0x0 MSTORE PUSH1 0x20 PUSH1 0x0 KECCAK256 SWAP1 JUMPDEST DUP2 SLOAD DUP2 MSTORE SWAP1 PUSH1 0x1 ADD SWAP1 PUSH1 0x20 ADD DUP1 DUP4 GT PUSH2 0xD31 JUMPI DUP3 SWAP1 SUB PUSH1 0x1F AND DUP3 ADD SWAP2 JUMPDEST POP POP POP POP POP DUP2 MSTORE PUSH1 0x20 ADD PUSH1 0x5 DUP3 ADD DUP1 SLOAD PUSH2 0xD67 SWAP1 PUSH2 0x3B62 JUMP JUMPDEST DUP1 PUSH1 0x1F ADD PUSH1 0x20 DUP1 SWAP2 DIV MUL PUSH1 0x20 ADD PUSH1 0x40 MLOAD SWAP1 DUP2 ADD PUSH1 0x40 MSTORE DUP1 SWAP3 SWAP2 SWAP1 DUP2 DUP2 MSTORE PUSH1 0x20 ADD DUP3 DUP1 SLOAD PUSH2 0xD93 SWAP1 PUSH2 0x3B62 JUMP JUMPDEST DUP1 ISZERO PUSH2 0xDE0 JUMPI DUP1 PUSH1 0x1F LT PUSH2 0xDB5 JUMPI PUSH2 0x100 DUP1 DUP4 SLOAD DIV MUL DUP4 MSTORE SWAP2 PUSH1 0x20 ADD SWAP2 PUSH2 0xDE0 JUMP JUMPDEST DUP3 ADD SWAP2 SWAP1 PUSH1 0x0 MSTORE PUSH1 0x20 PUSH1 0x0 KECCAK256 SWAP1 JUMPDEST DUP2 SLOAD DUP2 MSTORE SWAP1 PUSH1 0x1 ADD SWAP1 PUSH1 0x20 ADD DUP1 DUP4 GT PUSH2 0xDC3 JUMPI DUP3 SWAP1 SUB PUSH1 0x1F AND DUP3 ADD SWAP2 JUMPDEST POP POP POP POP POP DUP2 MSTORE PUSH1 0x20 ADD PUSH1 0x6 DUP3 ADD DUP1 SLOAD PUSH2 0xDF9 SWAP1 PUSH2 0x3B62 JUMP JUMPDEST DUP1 PUSH1 0x1F ADD PUSH1 0x20 DUP1 SWAP2 DIV MUL PUSH1 0x20 ADD PUSH1 0x40 MLOAD SWAP1 DUP2 ADD PUSH1 0x40 MSTORE DUP1 SWAP3 SWAP2 SWAP1 DUP2 DUP2 MSTORE PUSH1 0x20 ADD DUP3 DUP1 SLOAD PUSH2 0xE25 SWAP1 PUSH2 0x3B62 JUMP JUMPDEST DUP1 ISZERO PUSH2 0xE72 JUMPI DUP1 PUSH1 0x1F LT PUSH2 0xE47 JUMPI PUSH2 0x100 DUP1 DUP4 SLOAD DIV MUL DUP4 MSTORE SWAP2 PUSH1 0x20 ADD SWAP2 PUSH2 0xE72 JUMP JUMPDEST DUP3 ADD SWAP2 SWAP1 PUSH1 0x0 MSTORE PUSH1 0x20 PUSH1 0x0 KECCAK256 SWAP1 JUMPDEST DUP2 SLOAD DUP2 MSTORE SWAP1 PUSH1 0x1 ADD SWAP1 PUSH1 0x20 ADD DUP1 DUP4 GT PUSH2 0xE55 JUMPI DUP3 SWAP1 SUB PUSH1 0x1F AND DUP3 ADD SWAP2 JUMPDEST POP POP POP POP POP DUP2 MSTORE PUSH1 0x20 ADD PUSH1 0x7 DUP3 ADD DUP1 SLOAD PUSH2 0xE8B SWAP1 PUSH2 0x3B62 JUMP JUMPDEST DUP1 PUSH1 0x1F ADD PUSH1 0x20 DUP1 SWAP2 DIV MUL PUSH1 0x20 ADD PUSH1 0x40 MLOAD SWAP1 DUP2 ADD PUSH1 0x40 MSTORE DUP1 SWAP3 SWAP2 SWAP1 DUP2 DUP2 MSTORE PUSH1 0x20 ADD DUP3 DUP1 SLOAD PUSH2 0xEB7 SWAP1 PUSH2 0x3B62 JUMP JUMPDEST DUP1 ISZERO PUSH2 0xF04 JUMPI DUP1 PUSH1 0x1F LT PUSH2 0xED9 JUMPI PUSH2 0x100 DUP1 DUP4 SLOAD DIV MUL DUP4 MSTORE SWAP2 PUSH1 0x20 ADD SWAP2 PUSH2 0xF04 JUMP JUMPDEST DUP3 ADD SWAP2 SWAP1 PUSH1 0x0 MSTORE PUSH1 0x20 PUSH1 0x0 KECCAK256 SWAP1 JUMPDEST DUP2 SLOAD DUP2 MSTORE SWAP1 PUSH1 0x1 ADD SWAP1 PUSH1 0x20 ADD DUP1 DUP4 GT PUSH2 0xEE7 JUMPI DUP3 SWAP1 SUB PUSH1 0x1F AND DUP3 ADD SWAP2 JUMPDEST POP POP POP POP POP DUP2 MSTORE PUSH1 0x20 ADD PUSH1 0x8 DUP3 ADD DUP1 SLOAD PUSH2 0xF1D SWAP1 PUSH2 0x3B62 JUMP JUMPDEST DUP1 PUSH1 0x1F ADD PUSH1 0x20 DUP1 SWAP2 DIV MUL PUSH1 0x20 ADD PUSH1 0x40 MLOAD SWAP1 DUP2 ADD PUSH1 0x40 MSTORE DUP1 SWAP3 SWAP2 SWAP1 DUP2 DUP2 MSTORE PUSH1 0x20 ADD DUP3 DUP1 SLOAD PUSH2 0xF49 SWAP1 PUSH2 0x3B62 JUMP JUMPDEST DUP1 ISZERO PUSH2 0xF96 JUMPI DUP1 PUSH1 0x1F LT PUSH2 0xF6B JUMPI PUSH2 0x100 DUP1 DUP4 SLOAD DIV MUL DUP4 MSTORE SWAP2 PUSH1 0x20 ADD SWAP2 PUSH2 0xF96 JUMP JUMPDEST DUP3 ADD SWAP2 SWAP1 PUSH1 0x0 MSTORE PUSH1 0x20 PUSH1 0x0 KECCAK256 SWAP1 JUMPDEST DUP2 SLOAD DUP2 MSTORE SWAP1 PUSH1 0x1 ADD SWAP1 PUSH1 0x20 ADD DUP1 DUP4 GT PUSH2 0xF79 JUMPI DUP3 SWAP1 SUB PUSH1 0x1F AND DUP3 ADD SWAP2 JUMPDEST POP POP POP POP POP DUP2 MSTORE PUSH1 0x20 ADD PUSH1 0x9 DUP3 ADD DUP1 SLOAD PUSH2 0xFAF SWAP1 PUSH2 0x3B62 JUMP JUMPDEST DUP1 PUSH1 0x1F ADD PUSH1 0x20 DUP1 SWAP2 DIV MUL PUSH1 0x20 ADD PUSH1 0x40 MLOAD SWAP1 DUP2 ADD PUSH1 0x40 MSTORE DUP1 SWAP3 SWAP2 SWAP1 DUP2 DUP2 MSTORE PUSH1 0x20 ADD DUP3 DUP1 SLOAD PUSH2 0xFDB SWAP1 PUSH2 0x3B62 JUMP JUMPDEST DUP1 ISZERO PUSH2 0x1028 JUMPI DUP1 PUSH1 0x1F LT PUSH2 0xFFD JUMPI PUSH2 0x100 DUP1 DUP4 SLOAD DIV MUL DUP4 MSTORE SWAP2 PUSH1 0x20 ADD SWAP2 PUSH2 0x1028 JUMP JUMPDEST DUP3 ADD SWAP2 SWAP1 PUSH1 0x0 MSTORE PUSH1 0x20 PUSH1 0x0 KECCAK256 SWAP1 JUMPDEST DUP2 SLOAD DUP2 MSTORE SWAP1 PUSH1 0x1 ADD SWAP1 PUSH1 0x20 ADD DUP1 DUP4 GT PUSH2 0x100B JUMPI DUP3 SWAP1 SUB PUSH1 0x1F AND DUP3 ADD SWAP2 JUMPDEST POP POP POP SWAP2 DUP4 MSTORE POP POP PUSH1 0xA DUP3 ADD SLOAD PUSH1 0x20 DUP3 ADD MSTORE PUSH1 0xB SWAP1 SWAP2 ADD SLOAD PUSH1 0x40 SWAP1 SWAP2 ADD MSTORE SWAP1 POP PUSH1 0x0 PUSH3 0x15180 PUSH2 0x1058 DUP7 DUP7 PUSH2 0x3BAD JUMP JUMPDEST PUSH2 0x1062 SWAP2 SWAP1 PUSH2 0x3BC4 JUMP JUMPDEST SWAP1 POP PUSH1 0x1 DUP2 LT ISZERO PUSH2 0x1086 JUMPI PUSH1 0x40 MLOAD PUSH4 0xA0955B6B PUSH1 0xE0 SHL DUP2 MSTORE PUSH1 0x4 ADD PUSH1 0x40 MLOAD DUP1 SWAP2 SUB SWAP1 REVERT JUMPDEST PUSH1 0x0 DUP2 PUSH2 0x1097 DUP5 PUSH2 0x160 ADD MLOAD PUSH2 0x1FC8 JUMP JUMPDEST PUSH2 0x10A1 SWAP2 SWAP1 PUSH2 0x3BE6 JUMP JUMPDEST SWAP1 POP DUP1 CALLVALUE EQ PUSH2 0x10C3 JUMPI PUSH1 0x40 MLOAD PUSH4 0x2CA2F52B PUSH1 0xE1 SHL DUP2 MSTORE PUSH1 0x4 ADD PUSH1 0x40 MLOAD DUP1 SWAP2 SUB SWAP1 REVERT JUMPDEST PUSH2 0x10CE DUP8 DUP8 DUP8 PUSH2 0x3191 JUMP JUMPDEST ISZERO PUSH2 0x10EC JUMPI PUSH1 0x40 MLOAD PUSH4 0x5F3BFF1D PUSH1 0xE1 SHL DUP2 MSTORE PUSH1 0x4 ADD PUSH1 0x40 MLOAD DUP1 SWAP2 SUB SWAP1 REVERT JUMPDEST PUSH1 0x4 DUP1 SLOAD PUSH1 0x20 DUP6 DUP2 ADD MLOAD PUSH1 0x40 DUP1 MLOAD PUSH2 0x120 DUP2 ADD DUP3 MSTORE DUP5 DUP2 MSTORE SWAP3 DUP4 ADD DUP13 DUP2 MSTORE PUSH1 0x1 PUSH1 0x1 PUSH1 0xA0 SHL SUB DUP1 DUP5 AND SWAP3 DUP6 ADD SWAP3 DUP4 MSTORE CALLER PUSH1 0x60 DUP7 ADD SWAP1 DUP2 MSTORE PUSH1 0x80 DUP7 ADD DUP15 DUP2 MSTORE PUSH1 0xA0 DUP8 ADD DUP15 DUP2 MSTORE PUSH1 0x0 PUSH1 0xC0 DUP10 ADD DUP2 DUP2 MSTORE PUSH1 0xE0 DUP11 ADD DUP3 DUP2 MSTORE PUSH2 0x100 DUP1 DUP13 ADD DUP5 DUP2 MSTORE PUSH1 0x6 DUP1 SLOAD PUSH1 0x1 DUP2 ADD DUP3 SSTORE SWAP1 DUP7 MSTORE SWAP13 MLOAD PUSH32 0xF652222313E28459528D920B65115C16C04F3EFC82AAEDC97BE59F3F377C0D3F PUSH1 0x7 SWAP1 SWAP15 MUL SWAP14 DUP15 ADD SSTORE SWAP9 MLOAD PUSH32 0xF652222313E28459528D920B65115C16C04F3EFC82AAEDC97BE59F3F377C0D40 DUP14 ADD SSTORE SWAP9 MLOAD PUSH32 0xF652222313E28459528D920B65115C16C04F3EFC82AAEDC97BE59F3F377C0D41 DUP13 ADD DUP1 SLOAD PUSH1 0x1 PUSH1 0x1 PUSH1 0xA0 SHL SUB NOT SWAP1 DUP2 AND SWAP3 DUP11 AND SWAP3 SWAP1 SWAP3 OR SWAP1 SSTORE SWAP6 MLOAD PUSH32 0xF652222313E28459528D920B65115C16C04F3EFC82AAEDC97BE59F3F377C0D42 DUP13 ADD DUP1 SLOAD SWAP1 SWAP8 AND SWAP8 AND SWAP7 SWAP1 SWAP7 OR SWAP1 SWAP5 SSTORE SWAP2 MLOAD PUSH32 0xF652222313E28459528D920B65115C16C04F3EFC82AAEDC97BE59F3F377C0D43 DUP10 ADD SSTORE MLOAD PUSH32 0xF652222313E28459528D920B65115C16C04F3EFC82AAEDC97BE59F3F377C0D44 DUP9 ADD SSTORE SWAP1 MLOAD PUSH32 0xF652222313E28459528D920B65115C16C04F3EFC82AAEDC97BE59F3F377C0D45 SWAP1 SWAP7 ADD DUP1 SLOAD SWAP3 MLOAD SWAP4 MLOAD PUSH2 0xFFFF NOT SWAP1 SWAP4 AND SWAP7 ISZERO ISZERO PUSH2 0xFF00 NOT AND SWAP7 SWAP1 SWAP7 OR SWAP3 ISZERO ISZERO SWAP1 SWAP4 MUL SWAP2 SWAP1 SWAP2 OR PUSH3 0xFF0000 NOT AND PUSH3 0x10000 SWAP2 ISZERO ISZERO SWAP2 SWAP1 SWAP2 MUL OR SWAP1 SWAP3 SSTORE DUP4 SLOAD SWAP3 SWAP4 SWAP1 SWAP3 SWAP2 PUSH2 0x12D1 DUP4 PUSH2 0x3C05 JUMP JUMPDEST SWAP2 SWAP1 POP SSTORE POP PUSH1 0x0 DUP6 PUSH1 0x20 ADD MLOAD PUSH1 0x1 PUSH1 0x1 PUSH1 0xA0 SHL SUB AND CALLVALUE PUSH1 0x40 MLOAD PUSH2 0x1300 SWAP1 PUSH6 0x109BDBDAD959 PUSH1 0xD2 SHL DUP2 MSTORE PUSH1 0x6 ADD SWAP1 JUMP JUMPDEST PUSH1 0x0 PUSH1 0x40 MLOAD DUP1 DUP4 SUB DUP2 DUP6 DUP8 GAS CALL SWAP3 POP POP POP RETURNDATASIZE DUP1 PUSH1 0x0 DUP2 EQ PUSH2 0x133D JUMPI PUSH1 0x40 MLOAD SWAP2 POP PUSH1 0x1F NOT PUSH1 0x3F RETURNDATASIZE ADD AND DUP3 ADD PUSH1 0x40 MSTORE RETURNDATASIZE DUP3 MSTORE RETURNDATASIZE PUSH1 0x0 PUSH1 0x20 DUP5 ADD RETURNDATACOPY PUSH2 0x1342 JUMP JUMPDEST PUSH1 0x60 SWAP2 POP JUMPDEST POP POP SWAP1 POP DUP1 PUSH2 0x1364 JUMPI PUSH1 0x40 MLOAD PUSH4 0x12171D83 PUSH1 0xE3 SHL DUP2 MSTORE PUSH1 0x4 ADD PUSH1 0x40 MLOAD DUP1 SWAP2 SUB SWAP1 REVERT JUMPDEST PUSH1 0x4 SLOAD PUSH1 0x40 DUP1 MLOAD SWAP2 DUP3 MSTORE PUSH1 0x20 DUP3 ADD DUP13 SWAP1 MSTORE PUSH1 0x1 PUSH1 0x1 PUSH1 0xA0 SHL SUB DUP5 AND DUP3 DUP3 ADD MSTORE CALLER PUSH1 0x60 DUP4 ADD MSTORE PUSH1 0x80 DUP3 ADD DUP12 SWAP1 MSTORE PUSH1 0xA0 DUP3 ADD DUP11 SWAP1 MSTORE TIMESTAMP PUSH1 0xC0 DUP4 ADD MSTORE MLOAD PUSH32 0x21164E0F9FADC202EC8A9F022E20300FA63B62B6567835D1EE251A16E6D9D4C6 SWAP2 DUP2 SWAP1 SUB PUSH1 0xE0 ADD SWAP1 LOG1 POP POP POP POP POP POP POP POP POP POP JUMP JUMPDEST PUSH1 0x2 SLOAD CALLVALUE EQ PUSH2 0x13F6 JUMPI PUSH1 0x40 MLOAD PUSH4 0x58D620B3 PUSH1 0xE0 SHL DUP2 MSTORE PUSH1 0x4 ADD PUSH1 0x40 MLOAD DUP1 SWAP2 SUB SWAP1 REVERT JUMPDEST PUSH1 0x3 SLOAD PUSH1 0x40 DUP1 MLOAD PUSH2 0x180 DUP2 ADD DUP3 MSTORE DUP3 DUP2 MSTORE CALLER PUSH1 0x20 DUP1 DUP4 ADD SWAP2 DUP3 MSTORE SWAP3 DUP3 ADD DUP15 DUP2 MSTORE PUSH1 0x60 DUP4 ADD DUP15 SWAP1 MSTORE PUSH1 0x80 DUP4 ADD DUP14 SWAP1 MSTORE PUSH1 0xA0 DUP4 ADD DUP13 SWAP1 MSTORE PUSH1 0xC0 DUP4 ADD DUP12 SWAP1 MSTORE PUSH1 0xE0 DUP4 ADD DUP11 SWAP1 MSTORE PUSH2 0x100 DUP4 ADD DUP10 SWAP1 MSTORE PUSH2 0x120 DUP4 ADD DUP9 SWAP1 MSTORE PUSH2 0x140 DUP4 ADD DUP8 SWAP1 MSTORE PUSH2 0x160 DUP4 ADD DUP7 SWAP1 MSTORE PUSH1 0x5 DUP1 SLOAD PUSH1 0x1 DUP2 ADD DUP3 SSTORE PUSH1 0x0 SWAP2 SWAP1 SWAP2 MSTORE DUP4 MLOAD PUSH32 0x36B6384B5ECA791C62761152D0C79BB0604C104A5FB6F4EB0703F3154BB3DB0 PUSH1 0xC SWAP1 SWAP3 MUL SWAP2 DUP3 ADD SWAP1 DUP2 SSTORE SWAP3 MLOAD PUSH32 0x36B6384B5ECA791C62761152D0C79BB0604C104A5FB6F4EB0703F3154BB3DB1 DUP3 ADD DUP1 SLOAD PUSH1 0x1 PUSH1 0x1 PUSH1 0xA0 SHL SUB NOT AND PUSH1 0x1 PUSH1 0x1 PUSH1 0xA0 SHL SUB SWAP1 SWAP3 AND SWAP2 SWAP1 SWAP2 OR SWAP1 SSTORE SWAP1 MLOAD DUP1 MLOAD SWAP4 SWAP5 DUP6 SWAP5 PUSH2 0x1511 SWAP4 PUSH32 0x36B6384B5ECA791C62761152D0C79BB0604C104A5FB6F4EB0703F3154BB3DB2 ADD SWAP3 SWAP1 SWAP2 ADD SWAP1 PUSH2 0x32D7 JUMP JUMPDEST POP PUSH1 0x60 DUP3 ADD MLOAD DUP1 MLOAD PUSH2 0x152D SWAP2 PUSH1 0x3 DUP5 ADD SWAP2 PUSH1 0x20 SWAP1 SWAP2 ADD SWAP1 PUSH2 0x32D7 JUMP JUMPDEST POP PUSH1 0x80 DUP3 ADD MLOAD DUP1 MLOAD PUSH2 0x1549 SWAP2 PUSH1 0x4 DUP5 ADD SWAP2 PUSH1 0x20 SWAP1 SWAP2 ADD SWAP1 PUSH2 0x32D7 JUMP JUMPDEST POP PUSH1 0xA0 DUP3 ADD MLOAD DUP1 MLOAD PUSH2 0x1565 SWAP2 PUSH1 0x5 DUP5 ADD SWAP2 PUSH1 0x20 SWAP1 SWAP2 ADD SWAP1 PUSH2 0x32D7 JUMP JUMPDEST POP PUSH1 0xC0 DUP3 ADD MLOAD DUP1 MLOAD PUSH2 0x1581 SWAP2 PUSH1 0x6 DUP5 ADD SWAP2 PUSH1 0x20 SWAP1 SWAP2 ADD SWAP1 PUSH2 0x32D7 JUMP JUMPDEST POP PUSH1 0xE0 DUP3 ADD MLOAD DUP1 MLOAD PUSH2 0x159D SWAP2 PUSH1 0x7 DUP5 ADD SWAP2 PUSH1 0x20 SWAP1 SWAP2 ADD SWAP1 PUSH2 0x32D7 JUMP JUMPDEST POP PUSH2 0x100 DUP3 ADD MLOAD DUP1 MLOAD PUSH2 0x15BA SWAP2 PUSH1 0x8 DUP5 ADD SWAP2 PUSH1 0x20 SWAP1 SWAP2 ADD SWAP1 PUSH2 0x32D7 JUMP JUMPDEST POP PUSH2 0x120 DUP3 ADD MLOAD DUP1 MLOAD PUSH2 0x15D7 SWAP2 PUSH1 0x9 DUP5 ADD SWAP2 PUSH1 0x20 SWAP1 SWAP2 ADD SWAP1 PUSH2 0x32D7 JUMP JUMPDEST POP PUSH2 0x140 DUP3 ADD MLOAD PUSH1 0xA DUP3 ADD SSTORE PUSH2 0x160 SWAP1 SWAP2 ADD MLOAD PUSH1 0xB SWAP1 SWAP2 ADD SSTORE PUSH1 0x3 DUP1 SLOAD SWAP1 PUSH1 0x0 PUSH2 0x1600 DUP4 PUSH2 0x3C05 JUMP JUMPDEST SWAP2 SWAP1 POP SSTORE POP PUSH32 0xCA935F633619CD90E48E2D14DA64EB295A277535DE0AD2D2FC18A37A57884DE7 DUP3 CALLER DUP15 DUP15 DUP15 DUP15 DUP15 DUP15 DUP15 DUP15 DUP15 DUP15 TIMESTAMP PUSH1 0x40 MLOAD PUSH2 0x164C SWAP14 SWAP13 SWAP12 SWAP11 SWAP10 SWAP9 SWAP8 SWAP7 SWAP6 SWAP5 SWAP4 SWAP3 SWAP2 SWAP1 PUSH2 0x3C20 JUMP JUMPDEST PUSH1 0x40 MLOAD DUP1 SWAP2 SUB SWAP1 LOG1 POP POP POP POP POP POP POP POP POP POP POP POP JUMP JUMPDEST PUSH1 0x60 PUSH1 0x5 DUP1 SLOAD DUP1 PUSH1 0x20 MUL PUSH1 0x20 ADD PUSH1 0x40 MLOAD SWAP1 DUP2 ADD PUSH1 0x40 MSTORE DUP1 SWAP3 SWAP2 SWAP1 DUP2 DUP2 MSTORE PUSH1 0x20 ADD PUSH1 0x0 SWAP1 JUMPDEST DUP3 DUP3 LT ISZERO PUSH2 0x1B7D JUMPI PUSH1 0x0 DUP5 DUP2 MSTORE PUSH1 0x20 SWAP1 DUP2 SWAP1 KECCAK256 PUSH1 0x40 DUP1 MLOAD PUSH2 0x180 DUP2 ADD DUP3 MSTORE PUSH1 0xC DUP7 MUL SWAP1 SWAP3 ADD DUP1 SLOAD DUP4 MSTORE PUSH1 0x1 DUP2 ADD SLOAD PUSH1 0x1 PUSH1 0x1 PUSH1 0xA0 SHL SUB AND SWAP4 DUP4 ADD SWAP4 SWAP1 SWAP4 MSTORE PUSH1 0x2 DUP4 ADD DUP1 SLOAD SWAP3 SWAP4 SWAP3 SWAP2 DUP5 ADD SWAP2 PUSH2 0x16DA SWAP1 PUSH2 0x3B62 JUMP JUMPDEST DUP1 PUSH1 0x1F ADD PUSH1 0x20 DUP1 SWAP2 DIV MUL PUSH1 0x20 ADD PUSH1 0x40 MLOAD SWAP1 DUP2 ADD PUSH1 0x40 MSTORE DUP1 SWAP3 SWAP2 SWAP1 DUP2 DUP2 MSTORE PUSH1 0x20 ADD DUP3 DUP1 SLOAD PUSH2 0x1706 SWAP1 PUSH2 0x3B62 JUMP JUMPDEST DUP1 ISZERO PUSH2 0x1753 JUMPI DUP1 PUSH1 0x1F LT PUSH2 0x1728 JUMPI PUSH2 0x100 DUP1 DUP4 SLOAD DIV MUL DUP4 MSTORE SWAP2 PUSH1 0x20 ADD SWAP2 PUSH2 0x1753 JUMP JUMPDEST DUP3 ADD SWAP2 SWAP1 PUSH1 0x0 MSTORE PUSH1 0x20 PUSH1 0x0 KECCAK256 SWAP1 JUMPDEST DUP2 SLOAD DUP2 MSTORE SWAP1 PUSH1 0x1 ADD SWAP1 PUSH1 0x20 ADD DUP1 DUP4 GT PUSH2 0x1736 JUMPI DUP3 SWAP1 SUB PUSH1 0x1F AND DUP3 ADD SWAP2 JUMPDEST POP POP POP POP POP DUP2 MSTORE PUSH1 0x20 ADD PUSH1 0x3 DUP3 ADD DUP1 SLOAD PUSH2 0x176C SWAP1 PUSH2 0x3B62 JUMP JUMPDEST DUP1 PUSH1 0x1F ADD PUSH1 0x20 DUP1 SWAP2 DIV MUL PUSH1 0x20 ADD PUSH1 0x40 MLOAD SWAP1 DUP2 ADD PUSH1 0x40 MSTORE DUP1 SWAP3 SWAP2 SWAP1 DUP2 DUP2 MSTORE PUSH1 0x20 ADD DUP3 DUP1 SLOAD PUSH2 0x1798 SWAP1 PUSH2 0x3B62 JUMP JUMPDEST DUP1 ISZERO PUSH2 0x17E5 JUMPI DUP1 PUSH1 0x1F LT PUSH2 0x17BA JUMPI PUSH2 0x100 DUP1 DUP4 SLOAD DIV MUL DUP4 MSTORE SWAP2 PUSH1 0x20 ADD SWAP2 PUSH2 0x17E5 JUMP JUMPDEST DUP3 ADD SWAP2 SWAP1 PUSH1 0x0 MSTORE PUSH1 0x20 PUSH1 0x0 KECCAK256 SWAP1 JUMPDEST DUP2 SLOAD DUP2 MSTORE SWAP1 PUSH1 0x1 ADD SWAP1 PUSH1 0x20 ADD DUP1 DUP4 GT PUSH2 0x17C8 JUMPI DUP3 SWAP1 SUB PUSH1 0x1F AND DUP3 ADD SWAP2 JUMPDEST POP POP POP POP POP DUP2 MSTORE PUSH1 0x20 ADD PUSH1 0x4 DUP3 ADD DUP1 SLOAD PUSH2 0x17FE SWAP1 PUSH2 0x3B62 JUMP JUMPDEST DUP1 PUSH1 0x1F ADD PUSH1 0x20 DUP1 SWAP2 DIV MUL PUSH1 0x20 ADD PUSH1 0x40 MLOAD SWAP1 DUP2 ADD PUSH1 0x40 MSTORE DUP1 SWAP3 SWAP2 SWAP1 DUP2 DUP2 MSTORE PUSH1 0x20 ADD DUP3 DUP1 SLOAD PUSH2 0x182A SWAP1 PUSH2 0x3B62 JUMP JUMPDEST DUP1 ISZERO PUSH2 0x1877 JUMPI DUP1 PUSH1 0x1F LT PUSH2 0x184C JUMPI PUSH2 0x100 DUP1 DUP4 SLOAD DIV MUL DUP4 MSTORE SWAP2 PUSH1 0x20 ADD SWAP2 PUSH2 0x1877 JUMP JUMPDEST DUP3 ADD SWAP2 SWAP1 PUSH1 0x0 MSTORE PUSH1 0x20 PUSH1 0x0 KECCAK256 SWAP1 JUMPDEST DUP2 SLOAD DUP2 MSTORE SWAP1 PUSH1 0x1 ADD SWAP1 PUSH1 0x20 ADD DUP1 DUP4 GT PUSH2 0x185A JUMPI DUP3 SWAP1 SUB PUSH1 0x1F AND DUP3 ADD SWAP2 JUMPDEST POP POP POP POP POP DUP2 MSTORE PUSH1 0x20 ADD PUSH1 0x5 DUP3 ADD DUP1 SLOAD PUSH2 0x1890 SWAP1 PUSH2 0x3B62 JUMP JUMPDEST DUP1 PUSH1 0x1F ADD PUSH1 0x20 DUP1 SWAP2 DIV MUL PUSH1 0x20 ADD PUSH1 0x40 MLOAD SWAP1 DUP2 ADD PUSH1 0x40 MSTORE DUP1 SWAP3 SWAP2 SWAP1 DUP2 DUP2 MSTORE PUSH1 0x20 ADD DUP3 DUP1 SLOAD PUSH2 0x18BC SWAP1 PUSH2 0x3B62 JUMP JUMPDEST DUP1 ISZERO PUSH2 0x1909 JUMPI DUP1 PUSH1 0x1F LT PUSH2 0x18DE JUMPI PUSH2 0x100 DUP1 DUP4 SLOAD DIV MUL DUP4 MSTORE SWAP2 PUSH1 0x20 ADD SWAP2 PUSH2 0x1909 JUMP JUMPDEST DUP3 ADD SWAP2 SWAP1 PUSH1 0x0 MSTORE PUSH1 0x20 PUSH1 0x0 KECCAK256 SWAP1 JUMPDEST DUP2 SLOAD DUP2 MSTORE SWAP1 PUSH1 0x1 ADD SWAP1 PUSH1 0x20 ADD DUP1 DUP4 GT PUSH2 0x18EC JUMPI DUP3 SWAP1 SUB PUSH1 0x1F AND DUP3 ADD SWAP2 JUMPDEST POP POP POP POP POP DUP2 MSTORE PUSH1 0x20 ADD PUSH1 0x6 DUP3 ADD DUP1 SLOAD PUSH2 0x1922 SWAP1 PUSH2 0x3B62 JUMP JUMPDEST DUP1 PUSH1 0x1F ADD PUSH1 0x20 DUP1 SWAP2 DIV MUL PUSH1 0x20 ADD PUSH1 0x40 MLOAD SWAP1 DUP2 ADD PUSH1 0x40 MSTORE DUP1 SWAP3 SWAP2 SWAP1 DUP2 DUP2 MSTORE PUSH1 0x20 ADD DUP3 DUP1 SLOAD PUSH2 0x194E SWAP1 PUSH2 0x3B62 JUMP JUMPDEST DUP1 ISZERO PUSH2 0x199B JUMPI DUP1 PUSH1 0x1F LT PUSH2 0x1970 JUMPI PUSH2 0x100 DUP1 DUP4 SLOAD DIV MUL DUP4 MSTORE SWAP2 PUSH1 0x20 ADD SWAP2 PUSH2 0x199B JUMP JUMPDEST DUP3 ADD SWAP2 SWAP1 PUSH1 0x0 MSTORE PUSH1 0x20 PUSH1 0x0 KECCAK256 SWAP1 JUMPDEST DUP2 SLOAD DUP2 MSTORE SWAP1 PUSH1 0x1 ADD SWAP1 PUSH1 0x20 ADD DUP1 DUP4 GT PUSH2 0x197E JUMPI DUP3 SWAP1 SUB PUSH1 0x1F AND DUP3 ADD SWAP2 JUMPDEST POP POP POP POP POP DUP2 MSTORE PUSH1 0x20 ADD PUSH1 0x7 DUP3 ADD DUP1 SLOAD PUSH2 0x19B4 SWAP1 PUSH2 0x3B62 JUMP JUMPDEST DUP1 PUSH1 0x1F ADD PUSH1 0x20 DUP1 SWAP2 DIV MUL PUSH1 0x20 ADD PUSH1 0x40 MLOAD SWAP1 DUP2 ADD PUSH1 0x40 MSTORE DUP1 SWAP3 SWAP2 SWAP1 DUP2 DUP2 MSTORE PUSH1 0x20 ADD DUP3 DUP1 SLOAD PUSH2 0x19E0 SWAP1 PUSH2 0x3B62 JUMP JUMPDEST DUP1 ISZERO PUSH2 0x1A2D JUMPI DUP1 PUSH1 0x1F LT PUSH2 0x1A02 JUMPI PUSH2 0x100 DUP1 DUP4 SLOAD DIV MUL DUP4 MSTORE SWAP2 PUSH1 0x20 ADD SWAP2 PUSH2 0x1A2D JUMP JUMPDEST DUP3 ADD SWAP2 SWAP1 PUSH1 0x0 MSTORE PUSH1 0x20 PUSH1 0x0 KECCAK256 SWAP1 JUMPDEST DUP2 SLOAD DUP2 MSTORE SWAP1 PUSH1 0x1 ADD SWAP1 PUSH1 0x20 ADD DUP1 DUP4 GT PUSH2 0x1A10 JUMPI DUP3 SWAP1 SUB PUSH1 0x1F AND DUP3 ADD SWAP2 JUMPDEST POP POP POP POP POP DUP2 MSTORE PUSH1 0x20 ADD PUSH1 0x8 DUP3 ADD DUP1 SLOAD PUSH2 0x1A46 SWAP1 PUSH2 0x3B62 JUMP JUMPDEST DUP1 PUSH1 0x1F ADD PUSH1 0x20 DUP1 SWAP2 DIV MUL PUSH1 0x20 ADD PUSH1 0x40 MLOAD SWAP1 DUP2 ADD PUSH1 0x40 MSTORE DUP1 SWAP3 SWAP2 SWAP1 DUP2 DUP2 MSTORE PUSH1 0x20 ADD DUP3 DUP1 SLOAD PUSH2 0x1A72 SWAP1 PUSH2 0x3B62 JUMP JUMPDEST DUP1 ISZERO PUSH2 0x1ABF JUMPI DUP1 PUSH1 0x1F LT PUSH2 0x1A94 JUMPI PUSH2 0x100 DUP1 DUP4 SLOAD DIV MUL DUP4 MSTORE SWAP2 PUSH1 0x20 ADD SWAP2 PUSH2 0x1ABF JUMP JUMPDEST DUP3 ADD SWAP2 SWAP1 PUSH1 0x0 MSTORE PUSH1 0x20 PUSH1 0x0 KECCAK256 SWAP1 JUMPDEST DUP2 SLOAD DUP2 MSTORE SWAP1 PUSH1 0x1 ADD SWAP1 PUSH1 0x20 ADD DUP1 DUP4 GT PUSH2 0x1AA2 JUMPI DUP3 SWAP1 SUB PUSH1 0x1F AND DUP3 ADD SWAP2 JUMPDEST POP POP POP POP POP DUP2 MSTORE PUSH1 0x20 ADD PUSH1 0x9 DUP3 ADD DUP1 SLOAD PUSH2 0x1AD8 SWAP1 PUSH2 0x3B62 JUMP JUMPDEST DUP1 PUSH1 0x1F ADD PUSH1 0x20 DUP1 SWAP2 DIV MUL PUSH1 0x20 ADD PUSH1 0x40 MLOAD SWAP1 DUP2 ADD PUSH1 0x40 MSTORE DUP1 SWAP3 SWAP2 SWAP1 DUP2 DUP2 MSTORE PUSH1 0x20 ADD DUP3 DUP1 SLOAD PUSH2 0x1B04 SWAP1 PUSH2 0x3B62 JUMP JUMPDEST DUP1 ISZERO PUSH2 0x1B51 JUMPI DUP1 PUSH1 0x1F LT PUSH2 0x1B26 JUMPI PUSH2 0x100 DUP1 DUP4 SLOAD DIV MUL DUP4 MSTORE SWAP2 PUSH1 0x20 ADD SWAP2 PUSH2 0x1B51 JUMP JUMPDEST DUP3 ADD SWAP2 SWAP1 PUSH1 0x0 MSTORE PUSH1 0x20 PUSH1 0x0 KECCAK256 SWAP1 JUMPDEST DUP2 SLOAD DUP2 MSTORE SWAP1 PUSH1 0x1 ADD SWAP1 PUSH1 0x20 ADD DUP1 DUP4 GT PUSH2 0x1B34 JUMPI DUP3 SWAP1 SUB PUSH1 0x1F AND DUP3 ADD SWAP2 JUMPDEST POP POP POP POP POP DUP2 MSTORE PUSH1 0x20 ADD PUSH1 0xA DUP3 ADD SLOAD DUP2 MSTORE PUSH1 0x20 ADD PUSH1 0xB DUP3 ADD SLOAD DUP2 MSTORE POP POP DUP2 MSTORE PUSH1 0x20 ADD SWAP1 PUSH1 0x1 ADD SWAP1 PUSH2 0x1686 JUMP JUMPDEST POP POP POP POP SWAP1 POP SWAP1 JUMP JUMPDEST PUSH1 0x1 SLOAD PUSH1 0x1 PUSH1 0x1 PUSH1 0xA0 SHL SUB AND CALLER EQ PUSH2 0x1BB1 JUMPI PUSH1 0x40 MLOAD PUSH4 0x47556579 PUSH1 0xE0 SHL DUP2 MSTORE PUSH1 0x4 ADD PUSH1 0x40 MLOAD DUP1 SWAP2 SUB SWAP1 REVERT JUMPDEST PUSH1 0x1 SLOAD PUSH1 0x40 MLOAD PUSH1 0x0 SWAP2 PUSH1 0x1 PUSH1 0x1 PUSH1 0xA0 SHL SUB AND SWAP1 SELFBALANCE SWAP1 DUP4 DUP2 DUP2 DUP2 DUP6 DUP8 GAS CALL SWAP3 POP POP POP RETURNDATASIZE DUP1 PUSH1 0x0 DUP2 EQ PUSH2 0x1BFE JUMPI PUSH1 0x40 MLOAD SWAP2 POP PUSH1 0x1F NOT PUSH1 0x3F RETURNDATASIZE ADD AND DUP3 ADD PUSH1 0x40 MSTORE RETURNDATASIZE DUP3 MSTORE RETURNDATASIZE PUSH1 0x0 PUSH1 0x20 DUP5 ADD RETURNDATACOPY PUSH2 0x1C03 JUMP JUMPDEST PUSH1 0x60 SWAP2 POP JUMPDEST POP POP SWAP1 POP DUP1 PUSH2 0x1C25 JUMPI PUSH1 0x40 MLOAD PUSH4 0x12171D83 PUSH1 0xE3 SHL DUP2 MSTORE PUSH1 0x4 ADD PUSH1 0x40 MLOAD DUP1 SWAP2 SUB SWAP1 REVERT JUMPDEST POP JUMP JUMPDEST PUSH1 0x60 PUSH1 0x6 DUP1 SLOAD DUP1 PUSH1 0x20 MUL PUSH1 0x20 ADD PUSH1 0x40 MLOAD SWAP1 DUP2 ADD PUSH1 0x40 MSTORE DUP1 SWAP3 SWAP2 SWAP1 DUP2 DUP2 MSTORE PUSH1 0x20 ADD PUSH1 0x0 SWAP1 JUMPDEST DUP3 DUP3 LT ISZERO PUSH2 0x1B7D JUMPI PUSH1 0x0 DUP5 DUP2 MSTORE PUSH1 0x20 SWAP1 DUP2 SWAP1 KECCAK256 PUSH1 0x40 DUP1 MLOAD PUSH2 0x120 DUP2 ADD DUP3 MSTORE PUSH1 0x7 DUP7 MUL SWAP1 SWAP3 ADD DUP1 SLOAD DUP4 MSTORE PUSH1 0x1 DUP1 DUP3 ADD SLOAD DUP5 DUP7 ADD MSTORE PUSH1 0x2 DUP3 ADD SLOAD PUSH1 0x1 PUSH1 0x1 PUSH1 0xA0 SHL SUB SWAP1 DUP2 AND SWAP4 DUP6 ADD SWAP4 SWAP1 SWAP4 MSTORE PUSH1 0x3 DUP3 ADD SLOAD SWAP1 SWAP3 AND PUSH1 0x60 DUP5 ADD MSTORE PUSH1 0x4 DUP2 ADD SLOAD PUSH1 0x80 DUP5 ADD MSTORE PUSH1 0x5 DUP2 ADD SLOAD PUSH1 0xA0 DUP5 ADD MSTORE PUSH1 0x6 ADD SLOAD PUSH1 0xFF DUP1 DUP3 AND ISZERO ISZERO PUSH1 0xC0 DUP6 ADD MSTORE PUSH2 0x100 DUP1 DUP4 DIV DUP3 AND ISZERO ISZERO PUSH1 0xE0 DUP7 ADD MSTORE PUSH3 0x10000 SWAP1 SWAP3 DIV AND ISZERO ISZERO SWAP1 DUP4 ADD MSTORE SWAP1 DUP4 MSTORE SWAP1 SWAP3 ADD SWAP2 ADD PUSH2 0x1C4C JUMP JUMPDEST PUSH1 0x2 SLOAD CALLVALUE EQ PUSH2 0x1D13 JUMPI PUSH1 0x40 MLOAD PUSH4 0x58D620B3 PUSH1 0xE0 SHL DUP2 MSTORE PUSH1 0x4 ADD PUSH1 0x40 MLOAD DUP1 SWAP2 SUB SWAP1 REVERT JUMPDEST PUSH1 0x3 SLOAD DUP12 LT PUSH2 0x1D21 JUMPI PUSH2 0x1F8B JUMP JUMPDEST DUP10 PUSH1 0x5 DUP13 DUP2 SLOAD DUP2 LT PUSH2 0x1D35 JUMPI PUSH2 0x1D35 PUSH2 0x3B4C JUMP JUMPDEST SWAP1 PUSH1 0x0 MSTORE PUSH1 0x20 PUSH1 0x0 KECCAK256 SWAP1 PUSH1 0xC MUL ADD PUSH1 0x2 ADD SWAP1 DUP1 MLOAD SWAP1 PUSH1 0x20 ADD SWAP1 PUSH2 0x1D59 SWAP3 SWAP2 SWAP1 PUSH2 0x32D7 JUMP JUMPDEST POP DUP9 PUSH1 0x5 DUP13 DUP2 SLOAD DUP2 LT PUSH2 0x1D6E JUMPI PUSH2 0x1D6E PUSH2 0x3B4C JUMP JUMPDEST SWAP1 PUSH1 0x0 MSTORE PUSH1 0x20 PUSH1 0x0 KECCAK256 SWAP1 PUSH1 0xC MUL ADD PUSH1 0x3 ADD SWAP1 DUP1 MLOAD SWAP1 PUSH1 0x20 ADD SWAP1 PUSH2 0x1D92 SWAP3 SWAP2 SWAP1 PUSH2 0x32D7 JUMP JUMPDEST POP DUP8 PUSH1 0x5 DUP13 DUP2 SLOAD DUP2 LT PUSH2 0x1DA7 JUMPI PUSH2 0x1DA7 PUSH2 0x3B4C JUMP JUMPDEST SWAP1 PUSH1 0x0 MSTORE PUSH1 0x20 PUSH1 0x0 KECCAK256 SWAP1 PUSH1 0xC MUL ADD PUSH1 0x4 ADD SWAP1 DUP1 MLOAD SWAP1 PUSH1 0x20 ADD SWAP1 PUSH2 0x1DCB SWAP3 SWAP2 SWAP1 PUSH2 0x32D7 JUMP JUMPDEST POP DUP7 PUSH1 0x5 DUP13 DUP2 SLOAD DUP2 LT PUSH2 0x1DE0 JUMPI PUSH2 0x1DE0 PUSH2 0x3B4C JUMP JUMPDEST SWAP1 PUSH1 0x0 MSTORE PUSH1 0x20 PUSH1 0x0 KECCAK256 SWAP1 PUSH1 0xC MUL ADD PUSH1 0x5 ADD SWAP1 DUP1 MLOAD SWAP1 PUSH1 0x20 ADD SWAP1 PUSH2 0x1E04 SWAP3 SWAP2 SWAP1 PUSH2 0x32D7 JUMP JUMPDEST POP DUP6 PUSH1 0x5 DUP13 DUP2 SLOAD DUP2 LT PUSH2 0x1E19 JUMPI PUSH2 0x1E19 PUSH2 0x3B4C JUMP JUMPDEST SWAP1 PUSH1 0x0 MSTORE PUSH1 0x20 PUSH1 0x0 KECCAK256 SWAP1 PUSH1 0xC MUL ADD PUSH1 0x6 ADD SWAP1 DUP1 MLOAD SWAP1 PUSH1 0x20 ADD SWAP1 PUSH2 0x1E3D SWAP3 SWAP2 SWAP1 PUSH2 0x32D7 JUMP JUMPDEST POP DUP5 PUSH1 0x5 DUP13 DUP2 SLOAD DUP2 LT PUSH2 0x1E52 JUMPI PUSH2 0x1E52 PUSH2 0x3B4C JUMP JUMPDEST SWAP1 PUSH1 0x0 MSTORE PUSH1 0x20 PUSH1 0x0 KECCAK256 SWAP1 PUSH1 0xC MUL ADD PUSH1 0x7 ADD SWAP1 DUP1 MLOAD SWAP1 PUSH1 0x20 ADD SWAP1 PUSH2 0x1E76 SWAP3 SWAP2 SWAP1 PUSH2 0x32D7 JUMP JUMPDEST POP DUP4 PUSH1 0x5 DUP13 DUP2 SLOAD DUP2 LT PUSH2 0x1E8B JUMPI PUSH2 0x1E8B PUSH2 0x3B4C JUMP JUMPDEST SWAP1 PUSH1 0x0 MSTORE PUSH1 0x20 PUSH1 0x0 KECCAK256 SWAP1 PUSH1 0xC MUL ADD PUSH1 0x8 ADD SWAP1 DUP1 MLOAD SWAP1 PUSH1 0x20 ADD SWAP1 PUSH2 0x1EAF SWAP3 SWAP2 SWAP1 PUSH2 0x32D7 JUMP JUMPDEST POP DUP3 PUSH1 0x5 DUP13 DUP2 SLOAD DUP2 LT PUSH2 0x1EC4 JUMPI PUSH2 0x1EC4 PUSH2 0x3B4C JUMP JUMPDEST SWAP1 PUSH1 0x0 MSTORE PUSH1 0x20 PUSH1 0x0 KECCAK256 SWAP1 PUSH1 0xC MUL ADD PUSH1 0x9 ADD SWAP1 DUP1 MLOAD SWAP1 PUSH1 0x20 ADD SWAP1 PUSH2 0x1EE8 SWAP3 SWAP2 SWAP1 PUSH2 0x32D7 JUMP JUMPDEST POP DUP2 PUSH1 0x5 DUP13 DUP2 SLOAD DUP2 LT PUSH2 0x1EFD JUMPI PUSH2 0x1EFD PUSH2 0x3B4C JUMP JUMPDEST SWAP1 PUSH1 0x0 MSTORE PUSH1 0x20 PUSH1 0x0 KECCAK256 SWAP1 PUSH1 0xC MUL ADD PUSH1 0xA ADD DUP2 SWAP1 SSTORE POP DUP1 PUSH1 0x5 DUP13 DUP2 SLOAD DUP2 LT PUSH2 0x1F26 JUMPI PUSH2 0x1F26 PUSH2 0x3B4C JUMP JUMPDEST SWAP1 PUSH1 0x0 MSTORE PUSH1 0x20 PUSH1 0x0 KECCAK256 SWAP1 PUSH1 0xC MUL ADD PUSH1 0xB ADD DUP2 SWAP1 SSTORE POP PUSH32 0x9136C566ECC21047715BCF56DF75F8C84A3CAF28FA00A470E4191DE2BA8489FC DUP12 CALLER DUP13 DUP13 DUP13 DUP13 DUP13 DUP13 DUP13 DUP13 DUP13 DUP13 TIMESTAMP PUSH1 0x40 MLOAD PUSH2 0x1F82 SWAP14 SWAP13 SWAP12 SWAP11 SWAP10 SWAP9 SWAP8 SWAP7 SWAP6 SWAP5 SWAP4 SWAP3 SWAP2 SWAP1 PUSH2 0x3C20 JUMP JUMPDEST PUSH1 0x40 MLOAD DUP1 SWAP2 SUB SWAP1 LOG1 JUMPDEST POP POP POP POP POP POP POP POP POP POP POP JUMP JUMPDEST PUSH1 0x1 SLOAD PUSH1 0x1 PUSH1 0x1 PUSH1 0xA0 SHL SUB AND CALLER EQ PUSH2 0x1FC3 JUMPI PUSH1 0x40 MLOAD PUSH4 0x47556579 PUSH1 0xE0 SHL DUP2 MSTORE PUSH1 0x4 ADD PUSH1 0x40 MLOAD DUP1 SWAP2 SUB SWAP1 REVERT JUMPDEST PUSH1 0x2 SSTORE JUMP JUMPDEST PUSH1 0x0 DUP1 PUSH1 0x0 PUSH2 0x1FD5 PUSH2 0x2005 JUMP JUMPDEST SWAP1 SWAP3 POP SWAP1 POP PUSH1 0x0 DUP3 PUSH2 0x1FE8 DUP4 PUSH1 0xA PUSH2 0x3DE1 JUMP JUMPDEST PUSH2 0x1FF2 SWAP1 DUP8 PUSH2 0x3BE6 JUMP JUMPDEST PUSH2 0x1FFC SWAP2 SWAP1 PUSH2 0x3BC4 JUMP JUMPDEST SWAP6 SWAP5 POP POP POP POP POP JUMP JUMPDEST PUSH1 0x0 DUP1 SLOAD PUSH1 0x40 DUP1 MLOAD PUSH4 0x3FABE5A3 PUSH1 0xE2 SHL DUP2 MSTORE SWAP1 MLOAD DUP4 SWAP3 PUSH1 0x1 PUSH1 0x1 PUSH1 0xA0 SHL SUB AND SWAP2 DUP4 SWAP2 DUP4 SWAP2 PUSH4 0xFEAF968C SWAP2 PUSH1 0x4 DUP1 DUP4 ADD SWAP3 PUSH1 0xA0 SWAP3 SWAP2 SWAP1 DUP3 SWAP1 SUB ADD DUP2 DUP7 GAS STATICCALL ISZERO DUP1 ISZERO PUSH2 0x2053 JUMPI RETURNDATASIZE PUSH1 0x0 DUP1 RETURNDATACOPY RETURNDATASIZE PUSH1 0x0 REVERT JUMPDEST POP POP POP POP PUSH1 0x40 MLOAD RETURNDATASIZE PUSH1 0x1F NOT PUSH1 0x1F DUP3 ADD AND DUP3 ADD DUP1 PUSH1 0x40 MSTORE POP DUP2 ADD SWAP1 PUSH2 0x2077 SWAP2 SWAP1 PUSH2 0x3E09 JUMP JUMPDEST POP POP POP SWAP2 POP POP PUSH1 0x0 DUP3 PUSH1 0x1 PUSH1 0x1 PUSH1 0xA0 SHL SUB AND PUSH4 0x313CE567 PUSH1 0x40 MLOAD DUP2 PUSH4 0xFFFFFFFF AND PUSH1 0xE0 SHL DUP2 MSTORE PUSH1 0x4 ADD PUSH1 0x20 PUSH1 0x40 MLOAD DUP1 DUP4 SUB DUP2 DUP7 GAS STATICCALL ISZERO DUP1 ISZERO PUSH2 0x20BD JUMPI RETURNDATASIZE PUSH1 0x0 DUP1 RETURNDATACOPY RETURNDATASIZE PUSH1 0x0 REVERT JUMPDEST POP POP POP POP PUSH1 0x40 MLOAD RETURNDATASIZE PUSH1 0x1F NOT PUSH1 0x1F DUP3 ADD AND DUP3 ADD DUP1 PUSH1 0x40 MSTORE POP DUP2 ADD SWAP1 PUSH2 0x20E1 SWAP2 SWAP1 PUSH2 0x3E59 JUMP JUMPDEST SWAP2 SWAP6 PUSH1 0xFF SWAP1 SWAP3 AND SWAP5 POP SWAP1 SWAP3 POP POP POP JUMP JUMPDEST PUSH1 0x5 DUP2 DUP2 SLOAD DUP2 LT PUSH2 0x2101 JUMPI PUSH1 0x0 DUP1 REVERT JUMPDEST PUSH1 0x0 SWAP2 DUP3 MSTORE PUSH1 0x20 SWAP1 SWAP2 KECCAK256 PUSH1 0xC SWAP1 SWAP2 MUL ADD DUP1 SLOAD PUSH1 0x1 DUP3 ADD SLOAD PUSH1 0x2 DUP4 ADD DUP1 SLOAD SWAP3 SWAP5 POP PUSH1 0x1 PUSH1 0x1 PUSH1 0xA0 SHL SUB SWAP1 SWAP2 AND SWAP3 SWAP2 PUSH2 0x2137 SWAP1 PUSH2 0x3B62 JUMP JUMPDEST DUP1 PUSH1 0x1F ADD PUSH1 0x20 DUP1 SWAP2 DIV MUL PUSH1 0x20 ADD PUSH1 0x40 MLOAD SWAP1 DUP2 ADD PUSH1 0x40 MSTORE DUP1 SWAP3 SWAP2 SWAP1 DUP2 DUP2 MSTORE PUSH1 0x20 ADD DUP3 DUP1 SLOAD PUSH2 0x2163 SWAP1 PUSH2 0x3B62 JUMP JUMPDEST DUP1 ISZERO PUSH2 0x21B0 JUMPI DUP1 PUSH1 0x1F LT PUSH2 0x2185 JUMPI PUSH2 0x100 DUP1 DUP4 SLOAD DIV MUL DUP4 MSTORE SWAP2 PUSH1 0x20 ADD SWAP2 PUSH2 0x21B0 JUMP JUMPDEST DUP3 ADD SWAP2 SWAP1 PUSH1 0x0 MSTORE PUSH1 0x20 PUSH1 0x0 KECCAK256 SWAP1 JUMPDEST DUP2 SLOAD DUP2 MSTORE SWAP1 PUSH1 0x1 ADD SWAP1 PUSH1 0x20 ADD DUP1 DUP4 GT PUSH2 0x2193 JUMPI DUP3 SWAP1 SUB PUSH1 0x1F AND DUP3 ADD SWAP2 JUMPDEST POP POP POP POP POP SWAP1 DUP1 PUSH1 0x3 ADD DUP1 SLOAD PUSH2 0x21C5 SWAP1 PUSH2 0x3B62 JUMP JUMPDEST DUP1 PUSH1 0x1F ADD PUSH1 0x20 DUP1 SWAP2 DIV MUL PUSH1 0x20 ADD PUSH1 0x40 MLOAD SWAP1 DUP2 ADD PUSH1 0x40 MSTORE DUP1 SWAP3 SWAP2 SWAP1 DUP2 DUP2 MSTORE PUSH1 0x20 ADD DUP3 DUP1 SLOAD PUSH2 0x21F1 SWAP1 PUSH2 0x3B62 JUMP JUMPDEST DUP1 ISZERO PUSH2 0x223E JUMPI DUP1 PUSH1 0x1F LT PUSH2 0x2213 JUMPI PUSH2 0x100 DUP1 DUP4 SLOAD DIV MUL DUP4 MSTORE SWAP2 PUSH1 0x20 ADD SWAP2 PUSH2 0x223E JUMP JUMPDEST DUP3 ADD SWAP2 SWAP1 PUSH1 0x0 MSTORE PUSH1 0x20 PUSH1 0x0 KECCAK256 SWAP1 JUMPDEST DUP2 SLOAD DUP2 MSTORE SWAP1 PUSH1 0x1 ADD SWAP1 PUSH1 0x20 ADD DUP1 DUP4 GT PUSH2 0x2221 JUMPI DUP3 SWAP1 SUB PUSH1 0x1F AND DUP3 ADD SWAP2 JUMPDEST POP POP POP POP POP SWAP1 DUP1 PUSH1 0x4 ADD DUP1 SLOAD PUSH2 0x2253 SWAP1 PUSH2 0x3B62 JUMP JUMPDEST DUP1 PUSH1 0x1F ADD PUSH1 0x20 DUP1 SWAP2 DIV MUL PUSH1 0x20 ADD PUSH1 0x40 MLOAD SWAP1 DUP2 ADD PUSH1 0x40 MSTORE DUP1 SWAP3 SWAP2 SWAP1 DUP2 DUP2 MSTORE PUSH1 0x20 ADD DUP3 DUP1 SLOAD PUSH2 0x227F SWAP1 PUSH2 0x3B62 JUMP JUMPDEST DUP1 ISZERO PUSH2 0x22CC JUMPI DUP1 PUSH1 0x1F LT PUSH2 0x22A1 JUMPI PUSH2 0x100 DUP1 DUP4 SLOAD DIV MUL DUP4 MSTORE SWAP2 PUSH1 0x20 ADD SWAP2 PUSH2 0x22CC JUMP JUMPDEST DUP3 ADD SWAP2 SWAP1 PUSH1 0x0 MSTORE PUSH1 0x20 PUSH1 0x0 KECCAK256 SWAP1 JUMPDEST DUP2 SLOAD DUP2 MSTORE SWAP1 PUSH1 0x1 ADD SWAP1 PUSH1 0x20 ADD DUP1 DUP4 GT PUSH2 0x22AF JUMPI DUP3 SWAP1 SUB PUSH1 0x1F AND DUP3 ADD SWAP2 JUMPDEST POP POP POP POP POP SWAP1 DUP1 PUSH1 0x5 ADD DUP1 SLOAD PUSH2 0x22E1 SWAP1 PUSH2 0x3B62 JUMP JUMPDEST DUP1 PUSH1 0x1F ADD PUSH1 0x20 DUP1 SWAP2 DIV MUL PUSH1 0x20 ADD PUSH1 0x40 MLOAD SWAP1 DUP2 ADD PUSH1 0x40 MSTORE DUP1 SWAP3 SWAP2 SWAP1 DUP2 DUP2 MSTORE PUSH1 0x20 ADD DUP3 DUP1 SLOAD PUSH2 0x230D SWAP1 PUSH2 0x3B62 JUMP JUMPDEST DUP1 ISZERO PUSH2 0x235A JUMPI DUP1 PUSH1 0x1F LT PUSH2 0x232F JUMPI PUSH2 0x100 DUP1 DUP4 SLOAD DIV MUL DUP4 MSTORE SWAP2 PUSH1 0x20 ADD SWAP2 PUSH2 0x235A JUMP JUMPDEST DUP3 ADD SWAP2 SWAP1 PUSH1 0x0 MSTORE PUSH1 0x20 PUSH1 0x0 KECCAK256 SWAP1 JUMPDEST DUP2 SLOAD DUP2 MSTORE SWAP1 PUSH1 0x1 ADD SWAP1 PUSH1 0x20 ADD DUP1 DUP4 GT PUSH2 0x233D JUMPI DUP3 SWAP1 SUB PUSH1 0x1F AND DUP3 ADD SWAP2 JUMPDEST POP POP POP POP POP SWAP1 DUP1 PUSH1 0x6 ADD DUP1 SLOAD PUSH2 0x236F SWAP1 PUSH2 0x3B62 JUMP JUMPDEST DUP1 PUSH1 0x1F ADD PUSH1 0x20 DUP1 SWAP2 DIV MUL PUSH1 0x20 ADD PUSH1 0x40 MLOAD SWAP1 DUP2 ADD PUSH1 0x40 MSTORE DUP1 SWAP3 SWAP2 SWAP1 DUP2 DUP2 MSTORE PUSH1 0x20 ADD DUP3 DUP1 SLOAD PUSH2 0x239B SWAP1 PUSH2 0x3B62 JUMP JUMPDEST DUP1 ISZERO PUSH2 0x23E8 JUMPI DUP1 PUSH1 0x1F LT PUSH2 0x23BD JUMPI PUSH2 0x100 DUP1 DUP4 SLOAD DIV MUL DUP4 MSTORE SWAP2 PUSH1 0x20 ADD SWAP2 PUSH2 0x23E8 JUMP JUMPDEST DUP3 ADD SWAP2 SWAP1 PUSH1 0x0 MSTORE PUSH1 0x20 PUSH1 0x0 KECCAK256 SWAP1 JUMPDEST DUP2 SLOAD DUP2 MSTORE SWAP1 PUSH1 0x1 ADD SWAP1 PUSH1 0x20 ADD DUP1 DUP4 GT PUSH2 0x23CB JUMPI DUP3 SWAP1 SUB PUSH1 0x1F AND DUP3 ADD SWAP2 JUMPDEST POP POP POP POP POP SWAP1 DUP1 PUSH1 0x7 ADD DUP1 SLOAD PUSH2 0x23FD SWAP1 PUSH2 0x3B62 JUMP JUMPDEST DUP1 PUSH1 0x1F ADD PUSH1 0x20 DUP1 SWAP2 DIV MUL PUSH1 0x20 ADD PUSH1 0x40 MLOAD SWAP1 DUP2 ADD PUSH1 0x40 MSTORE DUP1 SWAP3 SWAP2 SWAP1 DUP2 DUP2 MSTORE PUSH1 0x20 ADD DUP3 DUP1 SLOAD PUSH2 0x2429 SWAP1 PUSH2 0x3B62 JUMP JUMPDEST DUP1 ISZERO PUSH2 0x2476 JUMPI DUP1 PUSH1 0x1F LT PUSH2 0x244B JUMPI PUSH2 0x100 DUP1 DUP4 SLOAD DIV MUL DUP4 MSTORE SWAP2 PUSH1 0x20 ADD SWAP2 PUSH2 0x2476 JUMP JUMPDEST DUP3 ADD SWAP2 SWAP1 PUSH1 0x0 MSTORE PUSH1 0x20 PUSH1 0x0 KECCAK256 SWAP1 JUMPDEST DUP2 SLOAD DUP2 MSTORE SWAP1 PUSH1 0x1 ADD SWAP1 PUSH1 0x20 ADD DUP1 DUP4 GT PUSH2 0x2459 JUMPI DUP3 SWAP1 SUB PUSH1 0x1F AND DUP3 ADD SWAP2 JUMPDEST POP POP POP POP POP SWAP1 DUP1 PUSH1 0x8 ADD DUP1 SLOAD PUSH2 0x248B SWAP1 PUSH2 0x3B62 JUMP JUMPDEST DUP1 PUSH1 0x1F ADD PUSH1 0x20 DUP1 SWAP2 DIV MUL PUSH1 0x20 ADD PUSH1 0x40 MLOAD SWAP1 DUP2 ADD PUSH1 0x40 MSTORE DUP1 SWAP3 SWAP2 SWAP1 DUP2 DUP2 MSTORE PUSH1 0x20 ADD DUP3 DUP1 SLOAD PUSH2 0x24B7 SWAP1 PUSH2 0x3B62 JUMP JUMPDEST DUP1 ISZERO PUSH2 0x2504 JUMPI DUP1 PUSH1 0x1F LT PUSH2 0x24D9 JUMPI PUSH2 0x100 DUP1 DUP4 SLOAD DIV MUL DUP4 MSTORE SWAP2 PUSH1 0x20 ADD SWAP2 PUSH2 0x2504 JUMP JUMPDEST DUP3 ADD SWAP2 SWAP1 PUSH1 0x0 MSTORE PUSH1 0x20 PUSH1 0x0 KECCAK256 SWAP1 JUMPDEST DUP2 SLOAD DUP2 MSTORE SWAP1 PUSH1 0x1 ADD SWAP1 PUSH1 0x20 ADD DUP1 DUP4 GT PUSH2 0x24E7 JUMPI DUP3 SWAP1 SUB PUSH1 0x1F AND DUP3 ADD SWAP2 JUMPDEST POP POP POP POP POP SWAP1 DUP1 PUSH1 0x9 ADD DUP1 SLOAD PUSH2 0x2519 SWAP1 PUSH2 0x3B62 JUMP JUMPDEST DUP1 PUSH1 0x1F ADD PUSH1 0x20 DUP1 SWAP2 DIV MUL PUSH1 0x20 ADD PUSH1 0x40 MLOAD SWAP1 DUP2 ADD PUSH1 0x40 MSTORE DUP1 SWAP3 SWAP2 SWAP1 DUP2 DUP2 MSTORE PUSH1 0x20 ADD DUP3 DUP1 SLOAD PUSH2 0x2545 SWAP1 PUSH2 0x3B62 JUMP JUMPDEST DUP1 ISZERO PUSH2 0x2592 JUMPI DUP1 PUSH1 0x1F LT PUSH2 0x2567 JUMPI PUSH2 0x100 DUP1 DUP4 SLOAD DIV MUL DUP4 MSTORE SWAP2 PUSH1 0x20 ADD SWAP2 PUSH2 0x2592 JUMP JUMPDEST DUP3 ADD SWAP2 SWAP1 PUSH1 0x0 MSTORE PUSH1 0x20 PUSH1 0x0 KECCAK256 SWAP1 JUMPDEST DUP2 SLOAD DUP2 MSTORE SWAP1 PUSH1 0x1 ADD SWAP1 PUSH1 0x20 ADD DUP1 DUP4 GT PUSH2 0x2575 JUMPI DUP3 SWAP1 SUB PUSH1 0x1F AND DUP3 ADD SWAP2 JUMPDEST POP POP POP POP POP SWAP1 DUP1 PUSH1 0xA ADD SLOAD SWAP1 DUP1 PUSH1 0xB ADD SLOAD SWAP1 POP DUP13 JUMP JUMPDEST DUP1 PUSH1 0x4 SLOAD DUP2 LT PUSH2 0x25CB JUMPI PUSH1 0x40 MLOAD PUSH4 0xBB9FAC21 PUSH1 0xE0 SHL DUP2 MSTORE PUSH1 0x4 ADD PUSH1 0x40 MLOAD DUP1 SWAP2 SUB SWAP1 REVERT JUMPDEST PUSH1 0x4 SLOAD DUP3 LT ISZERO DUP1 PUSH2 0x2603 JUMPI POP PUSH1 0x6 DUP3 DUP2 SLOAD DUP2 LT PUSH2 0x25EA JUMPI PUSH2 0x25EA PUSH2 0x3B4C JUMP JUMPDEST PUSH1 0x0 SWAP2 DUP3 MSTORE PUSH1 0x20 SWAP1 SWAP2 KECCAK256 PUSH1 0x6 PUSH1 0x7 SWAP1 SWAP3 MUL ADD ADD SLOAD PUSH1 0xFF AND ISZERO JUMPDEST ISZERO PUSH2 0x260C JUMPI POP POP JUMP JUMPDEST PUSH1 0x0 PUSH1 0x6 DUP4 DUP2 SLOAD DUP2 LT PUSH2 0x2621 JUMPI PUSH2 0x2621 PUSH2 0x3B4C JUMP JUMPDEST PUSH1 0x0 SWAP2 DUP3 MSTORE PUSH1 0x20 DUP1 DUP4 KECCAK256 PUSH1 0x40 DUP1 MLOAD PUSH2 0x120 DUP2 ADD DUP3 MSTORE PUSH1 0x7 SWAP1 SWAP5 MUL SWAP1 SWAP2 ADD DUP1 SLOAD DUP5 MSTORE PUSH1 0x1 DUP2 ADD SLOAD SWAP3 DUP5 ADD DUP4 SWAP1 MSTORE PUSH1 0x2 DUP2 ADD SLOAD PUSH1 0x1 PUSH1 0x1 PUSH1 0xA0 SHL SUB SWAP1 DUP2 AND SWAP3 DUP6 ADD SWAP3 SWAP1 SWAP3 MSTORE PUSH1 0x3 DUP2 ADD SLOAD SWAP1 SWAP2 AND PUSH1 0x60 DUP5 ADD MSTORE PUSH1 0x4 DUP2 ADD SLOAD PUSH1 0x80 DUP5 ADD MSTORE PUSH1 0x5 DUP1 DUP3 ADD SLOAD PUSH1 0xA0 DUP6 ADD MSTORE PUSH1 0x6 SWAP1 SWAP2 ADD SLOAD PUSH1 0xFF DUP1 DUP3 AND ISZERO ISZERO PUSH1 0xC0 DUP7 ADD MSTORE PUSH2 0x100 DUP1 DUP4 DIV DUP3 AND ISZERO ISZERO PUSH1 0xE0 DUP8 ADD MSTORE PUSH3 0x10000 SWAP1 SWAP3 DIV AND ISZERO ISZERO SWAP1 DUP5 ADD MSTORE DUP1 SLOAD SWAP3 SWAP5 POP SWAP1 SWAP3 SWAP2 DUP4 SWAP1 DUP2 LT PUSH2 0x26CD JUMPI PUSH2 0x26CD PUSH2 0x3B4C JUMP JUMPDEST SWAP1 PUSH1 0x0 MSTORE PUSH1 0x20 PUSH1 0x0 KECCAK256 SWAP1 PUSH1 0xC MUL ADD PUSH1 0x40 MLOAD DUP1 PUSH2 0x180 ADD PUSH1 0x40 MSTORE SWAP1 DUP2 PUSH1 0x0 DUP3 ADD SLOAD DUP2 MSTORE PUSH1 0x20 ADD PUSH1 0x1 DUP3 ADD PUSH1 0x0 SWAP1 SLOAD SWAP1 PUSH2 0x100 EXP SWAP1 DIV PUSH1 0x1 PUSH1 0x1 PUSH1 0xA0 SHL SUB AND PUSH1 0x1 PUSH1 0x1 PUSH1 0xA0 SHL SUB AND PUSH1 0x1 PUSH1 0x1 PUSH1 0xA0 SHL SUB AND DUP2 MSTORE PUSH1 0x20 ADD PUSH1 0x2 DUP3 ADD DUP1 SLOAD PUSH2 0x2730 SWAP1 PUSH2 0x3B62 JUMP JUMPDEST DUP1 PUSH1 0x1F ADD PUSH1 0x20 DUP1 SWAP2 DIV MUL PUSH1 0x20 ADD PUSH1 0x40 MLOAD SWAP1 DUP2 ADD PUSH1 0x40 MSTORE DUP1 SWAP3 SWAP2 SWAP1 DUP2 DUP2 MSTORE PUSH1 0x20 ADD DUP3 DUP1 SLOAD PUSH2 0x275C SWAP1 PUSH2 0x3B62 JUMP JUMPDEST DUP1 ISZERO PUSH2 0x27A9 JUMPI DUP1 PUSH1 0x1F LT PUSH2 0x277E JUMPI PUSH2 0x100 DUP1 DUP4 SLOAD DIV MUL DUP4 MSTORE SWAP2 PUSH1 0x20 ADD SWAP2 PUSH2 0x27A9 JUMP JUMPDEST DUP3 ADD SWAP2 SWAP1 PUSH1 0x0 MSTORE PUSH1 0x20 PUSH1 0x0 KECCAK256 SWAP1 JUMPDEST DUP2 SLOAD DUP2 MSTORE SWAP1 PUSH1 0x1 ADD SWAP1 PUSH1 0x20 ADD DUP1 DUP4 GT PUSH2 0x278C JUMPI DUP3 SWAP1 SUB PUSH1 0x1F AND DUP3 ADD SWAP2 JUMPDEST POP POP POP POP POP DUP2 MSTORE PUSH1 0x20 ADD PUSH1 0x3 DUP3 ADD DUP1 SLOAD PUSH2 0x27C2 SWAP1 PUSH2 0x3B62 JUMP JUMPDEST DUP1 PUSH1 0x1F ADD PUSH1 0x20 DUP1 SWAP2 DIV MUL PUSH1 0x20 ADD PUSH1 0x40 MLOAD SWAP1 DUP2 ADD PUSH1 0x40 MSTORE DUP1 SWAP3 SWAP2 SWAP1 DUP2 DUP2 MSTORE PUSH1 0x20 ADD DUP3 DUP1 SLOAD PUSH2 0x27EE SWAP1 PUSH2 0x3B62 JUMP JUMPDEST DUP1 ISZERO PUSH2 0x283B JUMPI DUP1 PUSH1 0x1F LT PUSH2 0x2810 JUMPI PUSH2 0x100 DUP1 DUP4 SLOAD DIV MUL DUP4 MSTORE SWAP2 PUSH1 0x20 ADD SWAP2 PUSH2 0x283B JUMP JUMPDEST DUP3 ADD SWAP2 SWAP1 PUSH1 0x0 MSTORE PUSH1 0x20 PUSH1 0x0 KECCAK256 SWAP1 JUMPDEST DUP2 SLOAD DUP2 MSTORE SWAP1 PUSH1 0x1 ADD SWAP1 PUSH1 0x20 ADD DUP1 DUP4 GT PUSH2 0x281E JUMPI DUP3 SWAP1 SUB PUSH1 0x1F AND DUP3 ADD SWAP2 JUMPDEST POP POP POP POP POP DUP2 MSTORE PUSH1 0x20 ADD PUSH1 0x4 DUP3 ADD DUP1 SLOAD PUSH2 0x2854 SWAP1 PUSH2 0x3B62 JUMP JUMPDEST DUP1 PUSH1 0x1F ADD PUSH1 0x20 DUP1 SWAP2 DIV MUL PUSH1 0x20 ADD PUSH1 0x40 MLOAD SWAP1 DUP2 ADD PUSH1 0x40 MSTORE DUP1 SWAP3 SWAP2 SWAP1 DUP2 DUP2 MSTORE PUSH1 0x20 ADD DUP3 DUP1 SLOAD PUSH2 0x2880 SWAP1 PUSH2 0x3B62 JUMP JUMPDEST DUP1 ISZERO PUSH2 0x28CD JUMPI DUP1 PUSH1 0x1F LT PUSH2 0x28A2 JUMPI PUSH2 0x100 DUP1 DUP4 SLOAD DIV MUL DUP4 MSTORE SWAP2 PUSH1 0x20 ADD SWAP2 PUSH2 0x28CD JUMP JUMPDEST DUP3 ADD SWAP2 SWAP1 PUSH1 0x0 MSTORE PUSH1 0x20 PUSH1 0x0 KECCAK256 SWAP1 JUMPDEST DUP2 SLOAD DUP2 MSTORE SWAP1 PUSH1 0x1 ADD SWAP1 PUSH1 0x20 ADD DUP1 DUP4 GT PUSH2 0x28B0 JUMPI DUP3 SWAP1 SUB PUSH1 0x1F AND DUP3 ADD SWAP2 JUMPDEST POP POP POP POP POP DUP2 MSTORE PUSH1 0x20 ADD PUSH1 0x5 DUP3 ADD DUP1 SLOAD PUSH2 0x28E6 SWAP1 PUSH2 0x3B62 JUMP JUMPDEST DUP1 PUSH1 0x1F ADD PUSH1 0x20 DUP1 SWAP2 DIV MUL PUSH1 0x20 ADD PUSH1 0x40 MLOAD SWAP1 DUP2 ADD PUSH1 0x40 MSTORE DUP1 SWAP3 SWAP2 SWAP1 DUP2 DUP2 MSTORE PUSH1 0x20 ADD DUP3 DUP1 SLOAD PUSH2 0x2912 SWAP1 PUSH2 0x3B62 JUMP JUMPDEST DUP1 ISZERO PUSH2 0x295F JUMPI DUP1 PUSH1 0x1F LT PUSH2 0x2934 JUMPI PUSH2 0x100 DUP1 DUP4 SLOAD DIV MUL DUP4 MSTORE SWAP2 PUSH1 0x20 ADD SWAP2 PUSH2 0x295F JUMP JUMPDEST DUP3 ADD SWAP2 SWAP1 PUSH1 0x0 MSTORE PUSH1 0x20 PUSH1 0x0 KECCAK256 SWAP1 JUMPDEST DUP2 SLOAD DUP2 MSTORE SWAP1 PUSH1 0x1 ADD SWAP1 PUSH1 0x20 ADD DUP1 DUP4 GT PUSH2 0x2942 JUMPI DUP3 SWAP1 SUB PUSH1 0x1F AND DUP3 ADD SWAP2 JUMPDEST POP POP POP POP POP DUP2 MSTORE PUSH1 0x20 ADD PUSH1 0x6 DUP3 ADD DUP1 SLOAD PUSH2 0x2978 SWAP1 PUSH2 0x3B62 JUMP JUMPDEST DUP1 PUSH1 0x1F ADD PUSH1 0x20 DUP1 SWAP2 DIV MUL PUSH1 0x20 ADD PUSH1 0x40 MLOAD SWAP1 DUP2 ADD PUSH1 0x40 MSTORE DUP1 SWAP3 SWAP2 SWAP1 DUP2 DUP2 MSTORE PUSH1 0x20 ADD DUP3 DUP1 SLOAD PUSH2 0x29A4 SWAP1 PUSH2 0x3B62 JUMP JUMPDEST DUP1 ISZERO PUSH2 0x29F1 JUMPI DUP1 PUSH1 0x1F LT PUSH2 0x29C6 JUMPI PUSH2 0x100 DUP1 DUP4 SLOAD DIV MUL DUP4 MSTORE SWAP2 PUSH1 0x20 ADD SWAP2 PUSH2 0x29F1 JUMP JUMPDEST DUP3 ADD SWAP2 SWAP1 PUSH1 0x0 MSTORE PUSH1 0x20 PUSH1 0x0 KECCAK256 SWAP1 JUMPDEST DUP2 SLOAD DUP2 MSTORE SWAP1 PUSH1 0x1 ADD SWAP1 PUSH1 0x20 ADD DUP1 DUP4 GT PUSH2 0x29D4 JUMPI DUP3 SWAP1 SUB PUSH1 0x1F AND DUP3 ADD SWAP2 JUMPDEST POP POP POP POP POP DUP2 MSTORE PUSH1 0x20 ADD PUSH1 0x7 DUP3 ADD DUP1 SLOAD PUSH2 0x2A0A SWAP1 PUSH2 0x3B62 JUMP JUMPDEST DUP1 PUSH1 0x1F ADD PUSH1 0x20 DUP1 SWAP2 DIV MUL PUSH1 0x20 ADD PUSH1 0x40 MLOAD SWAP1 DUP2 ADD PUSH1 0x40 MSTORE DUP1 SWAP3 SWAP2 SWAP1 DUP2 DUP2 MSTORE PUSH1 0x20 ADD DUP3 DUP1 SLOAD PUSH2 0x2A36 SWAP1 PUSH2 0x3B62 JUMP JUMPDEST DUP1 ISZERO PUSH2 0x2A83 JUMPI DUP1 PUSH1 0x1F LT PUSH2 0x2A58 JUMPI PUSH2 0x100 DUP1 DUP4 SLOAD DIV MUL DUP4 MSTORE SWAP2 PUSH1 0x20 ADD SWAP2 PUSH2 0x2A83 JUMP JUMPDEST DUP3 ADD SWAP2 SWAP1 PUSH1 0x0 MSTORE PUSH1 0x20 PUSH1 0x0 KECCAK256 SWAP1 JUMPDEST DUP2 SLOAD DUP2 MSTORE SWAP1 PUSH1 0x1 ADD SWAP1 PUSH1 0x20 ADD DUP1 DUP4 GT PUSH2 0x2A66 JUMPI DUP3 SWAP1 SUB PUSH1 0x1F AND DUP3 ADD SWAP2 JUMPDEST POP POP POP POP POP DUP2 MSTORE PUSH1 0x20 ADD PUSH1 0x8 DUP3 ADD DUP1 SLOAD PUSH2 0x2A9C SWAP1 PUSH2 0x3B62 JUMP JUMPDEST DUP1 PUSH1 0x1F ADD PUSH1 0x20 DUP1 SWAP2 DIV MUL PUSH1 0x20 ADD PUSH1 0x40 MLOAD SWAP1 DUP2 ADD PUSH1 0x40 MSTORE DUP1 SWAP3 SWAP2 SWAP1 DUP2 DUP2 MSTORE PUSH1 0x20 ADD DUP3 DUP1 SLOAD PUSH2 0x2AC8 SWAP1 PUSH2 0x3B62 JUMP JUMPDEST DUP1 ISZERO PUSH2 0x2B15 JUMPI DUP1 PUSH1 0x1F LT PUSH2 0x2AEA JUMPI PUSH2 0x100 DUP1 DUP4 SLOAD DIV MUL DUP4 MSTORE SWAP2 PUSH1 0x20 ADD SWAP2 PUSH2 0x2B15 JUMP JUMPDEST DUP3 ADD SWAP2 SWAP1 PUSH1 0x0 MSTORE PUSH1 0x20 PUSH1 0x0 KECCAK256 SWAP1 JUMPDEST DUP2 SLOAD DUP2 MSTORE SWAP1 PUSH1 0x1 ADD SWAP1 PUSH1 0x20 ADD DUP1 DUP4 GT PUSH2 0x2AF8 JUMPI DUP3 SWAP1 SUB PUSH1 0x1F AND DUP3 ADD SWAP2 JUMPDEST POP POP POP POP POP DUP2 MSTORE PUSH1 0x20 ADD PUSH1 0x9 DUP3 ADD DUP1 SLOAD PUSH2 0x2B2E SWAP1 PUSH2 0x3B62 JUMP JUMPDEST DUP1 PUSH1 0x1F ADD PUSH1 0x20 DUP1 SWAP2 DIV MUL PUSH1 0x20 ADD PUSH1 0x40 MLOAD SWAP1 DUP2 ADD PUSH1 0x40 MSTORE DUP1 SWAP3 SWAP2 SWAP1 DUP2 DUP2 MSTORE PUSH1 0x20 ADD DUP3 DUP1 SLOAD PUSH2 0x2B5A SWAP1 PUSH2 0x3B62 JUMP JUMPDEST DUP1 ISZERO PUSH2 0x2BA7 JUMPI DUP1 PUSH1 0x1F LT PUSH2 0x2B7C JUMPI PUSH2 0x100 DUP1 DUP4 SLOAD DIV MUL DUP4 MSTORE SWAP2 PUSH1 0x20 ADD SWAP2 PUSH2 0x2BA7 JUMP JUMPDEST DUP3 ADD SWAP2 SWAP1 PUSH1 0x0 MSTORE PUSH1 0x20 PUSH1 0x0 KECCAK256 SWAP1 JUMPDEST DUP2 SLOAD DUP2 MSTORE SWAP1 PUSH1 0x1 ADD SWAP1 PUSH1 0x20 ADD DUP1 DUP4 GT PUSH2 0x2B8A JUMPI DUP3 SWAP1 SUB PUSH1 0x1F AND DUP3 ADD SWAP2 JUMPDEST POP POP POP POP POP DUP2 MSTORE PUSH1 0x20 ADD PUSH1 0xA DUP3 ADD SLOAD DUP2 MSTORE PUSH1 0x20 ADD PUSH1 0xB DUP3 ADD SLOAD DUP2 MSTORE POP POP SWAP1 POP PUSH1 0x0 PUSH3 0x15180 DUP5 PUSH1 0x80 ADD MLOAD DUP6 PUSH1 0xA0 ADD MLOAD PUSH2 0x2BE0 SWAP2 SWAP1 PUSH2 0x3BAD JUMP JUMPDEST PUSH2 0x2BEA SWAP2 SWAP1 PUSH2 0x3BC4 JUMP JUMPDEST SWAP1 POP PUSH1 0x0 DUP2 PUSH2 0x2BFD DUP5 PUSH2 0x160 ADD MLOAD PUSH2 0x1FC8 JUMP JUMPDEST PUSH2 0x2C07 SWAP2 SWAP1 PUSH2 0x3BE6 JUMP JUMPDEST SWAP1 POP DUP1 CALLVALUE EQ PUSH2 0x2C29 JUMPI PUSH1 0x40 MLOAD PUSH4 0x2CA2F52B PUSH1 0xE1 SHL DUP2 MSTORE PUSH1 0x4 ADD PUSH1 0x40 MLOAD DUP1 SWAP2 SUB SWAP1 REVERT JUMPDEST PUSH1 0x0 DUP6 PUSH1 0x60 ADD MLOAD PUSH1 0x1 PUSH1 0x1 PUSH1 0xA0 SHL SUB AND CALLVALUE PUSH1 0x40 MLOAD PUSH2 0x2C55 SWAP1 PUSH8 0x10D85B98D95B1959 PUSH1 0xC2 SHL DUP2 MSTORE PUSH1 0x8 ADD SWAP1 JUMP JUMPDEST PUSH1 0x0 PUSH1 0x40 MLOAD DUP1 DUP4 SUB DUP2 DUP6 DUP8 GAS CALL SWAP3 POP POP POP RETURNDATASIZE DUP1 PUSH1 0x0 DUP2 EQ PUSH2 0x2C92 JUMPI PUSH1 0x40 MLOAD SWAP2 POP PUSH1 0x1F NOT PUSH1 0x3F RETURNDATASIZE ADD AND DUP3 ADD PUSH1 0x40 MSTORE RETURNDATASIZE DUP3 MSTORE RETURNDATASIZE PUSH1 0x0 PUSH1 0x20 DUP5 ADD RETURNDATACOPY PUSH2 0x2C97 JUMP JUMPDEST PUSH1 0x60 SWAP2 POP JUMPDEST POP POP SWAP1 POP DUP1 PUSH2 0x2CB9 JUMPI PUSH1 0x40 MLOAD PUSH4 0x12171D83 PUSH1 0xE3 SHL DUP2 MSTORE PUSH1 0x4 ADD PUSH1 0x40 MLOAD DUP1 SWAP2 SUB SWAP1 REVERT JUMPDEST DUP8 JUMPDEST PUSH1 0x1 PUSH1 0x4 SLOAD PUSH2 0x2CCA SWAP2 SWAP1 PUSH2 0x3BAD JUMP JUMPDEST DUP2 LT ISZERO PUSH2 0x2DEE JUMPI PUSH1 0x6 PUSH2 0x2CDE DUP3 PUSH1 0x1 PUSH2 0x3E7C JUMP JUMPDEST DUP2 SLOAD DUP2 LT PUSH2 0x2CEE JUMPI PUSH2 0x2CEE PUSH2 0x3B4C JUMP JUMPDEST SWAP1 PUSH1 0x0 MSTORE PUSH1 0x20 PUSH1 0x0 KECCAK256 SWAP1 PUSH1 0x7 MUL ADD PUSH1 0x6 DUP3 DUP2 SLOAD DUP2 LT PUSH2 0x2D0F JUMPI PUSH2 0x2D0F PUSH2 0x3B4C JUMP JUMPDEST PUSH1 0x0 SWAP2 DUP3 MSTORE PUSH1 0x20 SWAP1 SWAP2 KECCAK256 DUP3 SLOAD PUSH1 0x7 SWAP1 SWAP3 MUL ADD SWAP1 DUP2 SSTORE PUSH1 0x1 DUP1 DUP4 ADD SLOAD SWAP1 DUP3 ADD SSTORE PUSH1 0x2 DUP1 DUP4 ADD SLOAD SWAP1 DUP3 ADD DUP1 SLOAD PUSH1 0x1 PUSH1 0x1 PUSH1 0xA0 SHL SUB NOT SWAP1 DUP2 AND PUSH1 0x1 PUSH1 0x1 PUSH1 0xA0 SHL SUB SWAP4 DUP5 AND OR SWAP1 SWAP2 SSTORE PUSH1 0x3 DUP1 DUP6 ADD SLOAD SWAP1 DUP5 ADD DUP1 SLOAD SWAP1 SWAP3 AND SWAP3 AND SWAP2 SWAP1 SWAP2 OR SWAP1 SSTORE PUSH1 0x4 DUP1 DUP4 ADD SLOAD SWAP1 DUP3 ADD SSTORE PUSH1 0x5 DUP1 DUP4 ADD SLOAD SWAP1 DUP3 ADD SSTORE PUSH1 0x6 SWAP2 DUP3 ADD DUP1 SLOAD SWAP3 SWAP1 SWAP2 ADD DUP1 SLOAD PUSH1 0xFF SWAP4 DUP5 AND ISZERO ISZERO PUSH1 0xFF NOT DUP3 AND DUP2 OR DUP4 SSTORE DUP4 SLOAD PUSH2 0x100 SWAP1 DUP2 SWAP1 DIV DUP7 AND ISZERO ISZERO MUL PUSH2 0xFF00 NOT SWAP1 SWAP2 AND PUSH2 0xFFFF NOT SWAP1 SWAP3 AND SWAP2 SWAP1 SWAP2 OR OR DUP1 DUP3 SSTORE SWAP2 SLOAD PUSH3 0x10000 SWAP1 DUP2 SWAP1 DIV SWAP1 SWAP4 AND ISZERO ISZERO SWAP1 SWAP3 MUL PUSH3 0xFF0000 NOT SWAP1 SWAP2 AND OR SWAP1 SSTORE DUP1 PUSH2 0x2DE6 DUP2 PUSH2 0x3C05 JUMP JUMPDEST SWAP2 POP POP PUSH2 0x2CBB JUMP JUMPDEST POP PUSH1 0x6 PUSH1 0x1 PUSH1 0x4 SLOAD PUSH2 0x2E00 SWAP2 SWAP1 PUSH2 0x3BAD JUMP JUMPDEST DUP2 SLOAD DUP2 LT PUSH2 0x2E10 JUMPI PUSH2 0x2E10 PUSH2 0x3B4C JUMP JUMPDEST PUSH1 0x0 SWAP2 DUP3 MSTORE PUSH1 0x20 DUP3 KECCAK256 PUSH1 0x7 SWAP1 SWAP2 MUL ADD DUP2 DUP2 SSTORE PUSH1 0x1 DUP1 DUP3 ADD DUP4 SWAP1 SSTORE PUSH1 0x2 DUP3 ADD DUP1 SLOAD PUSH1 0x1 PUSH1 0x1 PUSH1 0xA0 SHL SUB NOT SWAP1 DUP2 AND SWAP1 SWAP2 SSTORE PUSH1 0x3 DUP4 ADD DUP1 SLOAD SWAP1 SWAP2 AND SWAP1 SSTORE PUSH1 0x4 DUP1 DUP4 ADD DUP5 SWAP1 SSTORE PUSH1 0x5 DUP4 ADD DUP5 SWAP1 SSTORE PUSH1 0x6 SWAP1 SWAP3 ADD DUP1 SLOAD PUSH3 0xFFFFFF NOT AND SWAP1 SSTORE DUP2 SLOAD SWAP1 SWAP3 SWAP1 PUSH2 0x2E78 SWAP1 DUP5 SWAP1 PUSH2 0x3BAD JUMP JUMPDEST SWAP1 SWAP2 SSTORE POP POP POP POP POP POP POP POP POP POP JUMP JUMPDEST PUSH1 0x3 SLOAD DUP2 LT PUSH2 0x2E93 JUMPI POP JUMP JUMPDEST PUSH1 0x0 JUMPDEST PUSH1 0x4 SLOAD DUP2 LT ISZERO PUSH2 0x2EF7 JUMPI DUP2 PUSH1 0x6 DUP3 DUP2 SLOAD DUP2 LT PUSH2 0x2EB4 JUMPI PUSH2 0x2EB4 PUSH2 0x3B4C JUMP JUMPDEST SWAP1 PUSH1 0x0 MSTORE PUSH1 0x20 PUSH1 0x0 KECCAK256 SWAP1 PUSH1 0x7 MUL ADD PUSH1 0x1 ADD SLOAD EQ ISZERO PUSH2 0x2EE5 JUMPI PUSH1 0x40 MLOAD PUSH4 0x5291817B PUSH1 0xE0 SHL DUP2 MSTORE PUSH1 0x4 ADD PUSH1 0x40 MLOAD DUP1 SWAP2 SUB SWAP1 REVERT JUMPDEST DUP1 PUSH2 0x2EEF DUP2 PUSH2 0x3C05 JUMP JUMPDEST SWAP2 POP POP PUSH2 0x2E96 JUMP JUMPDEST POP DUP1 JUMPDEST PUSH1 0x1 PUSH1 0x3 SLOAD PUSH2 0x2F09 SWAP2 SWAP1 PUSH2 0x3BAD JUMP JUMPDEST DUP2 LT ISZERO PUSH2 0x30AE JUMPI PUSH1 0x5 PUSH2 0x2F1D DUP3 PUSH1 0x1 PUSH2 0x3E7C JUMP JUMPDEST DUP2 SLOAD DUP2 LT PUSH2 0x2F2D JUMPI PUSH2 0x2F2D PUSH2 0x3B4C JUMP JUMPDEST SWAP1 PUSH1 0x0 MSTORE PUSH1 0x20 PUSH1 0x0 KECCAK256 SWAP1 PUSH1 0xC MUL ADD PUSH1 0x5 DUP3 DUP2 SLOAD DUP2 LT PUSH2 0x2F4E JUMPI PUSH2 0x2F4E PUSH2 0x3B4C JUMP JUMPDEST PUSH1 0x0 SWAP2 DUP3 MSTORE PUSH1 0x20 SWAP1 SWAP2 KECCAK256 DUP3 SLOAD PUSH1 0xC SWAP1 SWAP3 MUL ADD SWAP1 DUP2 SSTORE PUSH1 0x1 DUP1 DUP4 ADD SLOAD SWAP1 DUP3 ADD DUP1 SLOAD PUSH1 0x1 PUSH1 0x1 PUSH1 0xA0 SHL SUB NOT AND PUSH1 0x1 PUSH1 0x1 PUSH1 0xA0 SHL SUB SWAP1 SWAP3 AND SWAP2 SWAP1 SWAP2 OR SWAP1 SSTORE PUSH1 0x2 DUP1 DUP4 ADD DUP1 SLOAD SWAP2 DUP4 ADD SWAP2 PUSH2 0x2F9D SWAP1 PUSH2 0x3B62 JUMP JUMPDEST PUSH2 0x2FA8 SWAP3 SWAP2 SWAP1 PUSH2 0x335B JUMP JUMPDEST POP PUSH1 0x3 DUP3 ADD DUP2 PUSH1 0x3 ADD SWAP1 DUP1 SLOAD PUSH2 0x2FBD SWAP1 PUSH2 0x3B62 JUMP JUMPDEST PUSH2 0x2FC8 SWAP3 SWAP2 SWAP1 PUSH2 0x335B JUMP JUMPDEST POP PUSH1 0x4 DUP3 ADD DUP2 PUSH1 0x4 ADD SWAP1 DUP1 SLOAD PUSH2 0x2FDD SWAP1 PUSH2 0x3B62 JUMP JUMPDEST PUSH2 0x2FE8 SWAP3 SWAP2 SWAP1 PUSH2 0x335B JUMP JUMPDEST POP PUSH1 0x5 DUP3 ADD DUP2 PUSH1 0x5 ADD SWAP1 DUP1 SLOAD PUSH2 0x2FFD SWAP1 PUSH2 0x3B62 JUMP JUMPDEST PUSH2 0x3008 SWAP3 SWAP2 SWAP1 PUSH2 0x335B JUMP JUMPDEST POP PUSH1 0x6 DUP3 ADD DUP2 PUSH1 0x6 ADD SWAP1 DUP1 SLOAD PUSH2 0x301D SWAP1 PUSH2 0x3B62 JUMP JUMPDEST PUSH2 0x3028 SWAP3 SWAP2 SWAP1 PUSH2 0x335B JUMP JUMPDEST POP PUSH1 0x7 DUP3 ADD DUP2 PUSH1 0x7 ADD SWAP1 DUP1 SLOAD PUSH2 0x303D SWAP1 PUSH2 0x3B62 JUMP JUMPDEST PUSH2 0x3048 SWAP3 SWAP2 SWAP1 PUSH2 0x335B JUMP JUMPDEST POP PUSH1 0x8 DUP3 ADD DUP2 PUSH1 0x8 ADD SWAP1 DUP1 SLOAD PUSH2 0x305D SWAP1 PUSH2 0x3B62 JUMP JUMPDEST PUSH2 0x3068 SWAP3 SWAP2 SWAP1 PUSH2 0x335B JUMP JUMPDEST POP PUSH1 0x9 DUP3 ADD DUP2 PUSH1 0x9 ADD SWAP1 DUP1 SLOAD PUSH2 0x307D SWAP1 PUSH2 0x3B62 JUMP JUMPDEST PUSH2 0x3088 SWAP3 SWAP2 SWAP1 PUSH2 0x335B JUMP JUMPDEST POP PUSH1 0xA DUP3 DUP2 ADD SLOAD SWAP1 DUP3 ADD SSTORE PUSH1 0xB SWAP2 DUP3 ADD SLOAD SWAP2 ADD SSTORE DUP1 PUSH2 0x30A6 DUP2 PUSH2 0x3C05 JUMP JUMPDEST SWAP2 POP POP PUSH2 0x2EFA JUMP JUMPDEST POP PUSH1 0x5 PUSH1 0x1 PUSH1 0x3 SLOAD PUSH2 0x30C0 SWAP2 SWAP1 PUSH2 0x3BAD JUMP JUMPDEST DUP2 SLOAD DUP2 LT PUSH2 0x30D0 JUMPI PUSH2 0x30D0 PUSH2 0x3B4C JUMP JUMPDEST PUSH1 0x0 SWAP2 DUP3 MSTORE PUSH1 0x20 DUP3 KECCAK256 PUSH1 0xC SWAP1 SWAP2 MUL ADD DUP2 DUP2 SSTORE PUSH1 0x1 DUP2 ADD DUP1 SLOAD PUSH1 0x1 PUSH1 0x1 PUSH1 0xA0 SHL SUB NOT AND SWAP1 SSTORE SWAP1 PUSH2 0x3102 PUSH1 0x2 DUP4 ADD DUP3 PUSH2 0x33D6 JUMP JUMPDEST PUSH2 0x3110 PUSH1 0x3 DUP4 ADD PUSH1 0x0 PUSH2 0x33D6 JUMP JUMPDEST PUSH2 0x311E PUSH1 0x4 DUP4 ADD PUSH1 0x0 PUSH2 0x33D6 JUMP JUMPDEST PUSH2 0x312C PUSH1 0x5 DUP4 ADD PUSH1 0x0 PUSH2 0x33D6 JUMP JUMPDEST PUSH2 0x313A PUSH1 0x6 DUP4 ADD PUSH1 0x0 PUSH2 0x33D6 JUMP JUMPDEST PUSH2 0x3148 PUSH1 0x7 DUP4 ADD PUSH1 0x0 PUSH2 0x33D6 JUMP JUMPDEST PUSH2 0x3156 PUSH1 0x8 DUP4 ADD PUSH1 0x0 PUSH2 0x33D6 JUMP JUMPDEST PUSH2 0x3164 PUSH1 0x9 DUP4 ADD PUSH1 0x0 PUSH2 0x33D6 JUMP JUMPDEST PUSH1 0xA DUP3 ADD PUSH1 0x0 SWAP1 SSTORE PUSH1 0xB DUP3 ADD PUSH1 0x0 SWAP1 SSTORE POP POP PUSH1 0x1 PUSH1 0x3 PUSH1 0x0 DUP3 DUP3 SLOAD PUSH2 0x3189 SWAP2 SWAP1 PUSH2 0x3BAD JUMP JUMPDEST SWAP1 SWAP2 SSTORE POP POP POP JUMP JUMPDEST PUSH1 0x0 DUP1 JUMPDEST PUSH1 0x4 SLOAD DUP2 LT ISZERO PUSH2 0x32CA JUMPI PUSH1 0x6 DUP2 DUP2 SLOAD DUP2 LT PUSH2 0x31B2 JUMPI PUSH2 0x31B2 PUSH2 0x3B4C JUMP JUMPDEST SWAP1 PUSH1 0x0 MSTORE PUSH1 0x20 PUSH1 0x0 KECCAK256 SWAP1 PUSH1 0x7 MUL ADD PUSH1 0x1 ADD SLOAD DUP6 EQ DUP1 ISZERO PUSH2 0x31F6 JUMPI POP PUSH1 0x6 DUP2 DUP2 SLOAD DUP2 LT PUSH2 0x31E0 JUMPI PUSH2 0x31E0 PUSH2 0x3B4C JUMP JUMPDEST SWAP1 PUSH1 0x0 MSTORE PUSH1 0x20 PUSH1 0x0 KECCAK256 SWAP1 PUSH1 0x7 MUL ADD PUSH1 0x4 ADD SLOAD DUP5 LT ISZERO JUMPDEST DUP1 ISZERO PUSH2 0x3226 JUMPI POP PUSH1 0x6 DUP2 DUP2 SLOAD DUP2 LT PUSH2 0x3210 JUMPI PUSH2 0x3210 PUSH2 0x3B4C JUMP JUMPDEST SWAP1 PUSH1 0x0 MSTORE PUSH1 0x20 PUSH1 0x0 KECCAK256 SWAP1 PUSH1 0x7 MUL ADD PUSH1 0x5 ADD SLOAD DUP5 GT ISZERO JUMPDEST DUP1 PUSH2 0x32B3 JUMPI POP PUSH1 0x6 DUP2 DUP2 SLOAD DUP2 LT PUSH2 0x323F JUMPI PUSH2 0x323F PUSH2 0x3B4C JUMP JUMPDEST SWAP1 PUSH1 0x0 MSTORE PUSH1 0x20 PUSH1 0x0 KECCAK256 SWAP1 PUSH1 0x7 MUL ADD PUSH1 0x1 ADD SLOAD DUP6 EQ DUP1 ISZERO PUSH2 0x3283 JUMPI POP PUSH1 0x6 DUP2 DUP2 SLOAD DUP2 LT PUSH2 0x326D JUMPI PUSH2 0x326D PUSH2 0x3B4C JUMP JUMPDEST SWAP1 PUSH1 0x0 MSTORE PUSH1 0x20 PUSH1 0x0 KECCAK256 SWAP1 PUSH1 0x7 MUL ADD PUSH1 0x4 ADD SLOAD DUP4 LT ISZERO JUMPDEST DUP1 ISZERO PUSH2 0x32B3 JUMPI POP PUSH1 0x6 DUP2 DUP2 SLOAD DUP2 LT PUSH2 0x329D JUMPI PUSH2 0x329D PUSH2 0x3B4C JUMP JUMPDEST SWAP1 PUSH1 0x0 MSTORE PUSH1 0x20 PUSH1 0x0 KECCAK256 SWAP1 PUSH1 0x7 MUL ADD PUSH1 0x5 ADD SLOAD DUP4 GT ISZERO JUMPDEST ISZERO PUSH2 0x32C2 JUMPI PUSH1 0x1 SWAP2 POP POP PUSH2 0x32D0 JUMP JUMPDEST PUSH1 0x1 ADD PUSH2 0x3195 JUMP JUMPDEST POP PUSH1 0x0 SWAP1 POP JUMPDEST SWAP4 SWAP3 POP POP POP JUMP JUMPDEST DUP3 DUP1 SLOAD PUSH2 0x32E3 SWAP1 PUSH2 0x3B62 JUMP JUMPDEST SWAP1 PUSH1 0x0 MSTORE PUSH1 0x20 PUSH1 0x0 KECCAK256 SWAP1 PUSH1 0x1F ADD PUSH1 0x20 SWAP1 DIV DUP2 ADD SWAP3 DUP3 PUSH2 0x3305 JUMPI PUSH1 0x0 DUP6 SSTORE PUSH2 0x334B JUMP JUMPDEST DUP3 PUSH1 0x1F LT PUSH2 0x331E JUMPI DUP1 MLOAD PUSH1 0xFF NOT AND DUP4 DUP1 ADD OR DUP6 SSTORE PUSH2 0x334B JUMP JUMPDEST DUP3 DUP1 ADD PUSH1 0x1 ADD DUP6 SSTORE DUP3 ISZERO PUSH2 0x334B JUMPI SWAP2 DUP3 ADD JUMPDEST DUP3 DUP2 GT ISZERO PUSH2 0x334B JUMPI DUP3 MLOAD DUP3 SSTORE SWAP2 PUSH1 0x20 ADD SWAP2 SWAP1 PUSH1 0x1 ADD SWAP1 PUSH2 0x3330 JUMP JUMPDEST POP PUSH2 0x3357 SWAP3 SWAP2 POP PUSH2 0x340C JUMP JUMPDEST POP SWAP1 JUMP JUMPDEST DUP3 DUP1 SLOAD PUSH2 0x3367 SWAP1 PUSH2 0x3B62 JUMP JUMPDEST SWAP1 PUSH1 0x0 MSTORE PUSH1 0x20 PUSH1 0x0 KECCAK256 SWAP1 PUSH1 0x1F ADD PUSH1 0x20 SWAP1 DIV DUP2 ADD SWAP3 DUP3 PUSH2 0x3389 JUMPI PUSH1 0x0 DUP6 SSTORE PUSH2 0x334B JUMP JUMPDEST DUP3 PUSH1 0x1F LT PUSH2 0x339A JUMPI DUP1 SLOAD DUP6 SSTORE PUSH2 0x334B JUMP JUMPDEST DUP3 DUP1 ADD PUSH1 0x1 ADD DUP6 SSTORE DUP3 ISZERO PUSH2 0x334B JUMPI PUSH1 0x0 MSTORE PUSH1 0x20 PUSH1 0x0 KECCAK256 SWAP2 PUSH1 0x1F ADD PUSH1 0x20 SWAP1 DIV DUP3 ADD JUMPDEST DUP3 DUP2 GT ISZERO PUSH2 0x334B JUMPI DUP3 SLOAD DUP3 SSTORE SWAP2 PUSH1 0x1 ADD SWAP2 SWAP1 PUSH1 0x1 ADD SWAP1 PUSH2 0x33BB JUMP JUMPDEST POP DUP1 SLOAD PUSH2 0x33E2 SWAP1 PUSH2 0x3B62 JUMP JUMPDEST PUSH1 0x0 DUP3 SSTORE DUP1 PUSH1 0x1F LT PUSH2 0x33F2 JUMPI POP POP JUMP JUMPDEST PUSH1 0x1F ADD PUSH1 0x20 SWAP1 DIV SWAP1 PUSH1 0x0 MSTORE PUSH1 0x20 PUSH1 0x0 KECCAK256 SWAP1 DUP2 ADD SWAP1 PUSH2 0x1C25 SWAP2 SWAP1 JUMPDEST JUMPDEST DUP1 DUP3 GT ISZERO PUSH2 0x3357 JUMPI PUSH1 0x0 DUP2 SSTORE PUSH1 0x1 ADD PUSH2 0x340D JUMP JUMPDEST PUSH1 0x0 PUSH1 0x20 DUP3 DUP5 SUB SLT ISZERO PUSH2 0x3433 JUMPI PUSH1 0x0 DUP1 REVERT JUMPDEST POP CALLDATALOAD SWAP2 SWAP1 POP JUMP JUMPDEST PUSH1 0x1 PUSH1 0x1 PUSH1 0xA0 SHL SUB AND SWAP1 MSTORE JUMP JUMPDEST PUSH1 0x0 DUP2 MLOAD DUP1 DUP5 MSTORE PUSH1 0x0 JUMPDEST DUP2 DUP2 LT ISZERO PUSH2 0x346D JUMPI PUSH1 0x20 DUP2 DUP6 ADD DUP2 ADD MLOAD DUP7 DUP4 ADD DUP3 ADD MSTORE ADD PUSH2 0x3451 JUMP JUMPDEST DUP2 DUP2 GT ISZERO PUSH2 0x347F JUMPI PUSH1 0x0 PUSH1 0x20 DUP4 DUP8 ADD ADD MSTORE JUMPDEST POP PUSH1 0x1F ADD PUSH1 0x1F NOT AND SWAP3 SWAP1 SWAP3 ADD PUSH1 0x20 ADD SWAP3 SWAP2 POP POP JUMP JUMPDEST PUSH1 0x0 PUSH2 0x180 DUP3 MLOAD DUP5 MSTORE PUSH1 0x20 DUP4 ADD MLOAD PUSH2 0x34AF PUSH1 0x20 DUP7 ADD DUP3 PUSH2 0x343A JUMP JUMPDEST POP PUSH1 0x40 DUP4 ADD MLOAD DUP2 PUSH1 0x40 DUP7 ADD MSTORE PUSH2 0x34C7 DUP3 DUP7 ADD DUP3 PUSH2 0x3447 JUMP JUMPDEST SWAP2 POP POP PUSH1 0x60 DUP4 ADD MLOAD DUP5 DUP3 SUB PUSH1 0x60 DUP7 ADD MSTORE PUSH2 0x34E1 DUP3 DUP3 PUSH2 0x3447 JUMP JUMPDEST SWAP2 POP POP PUSH1 0x80 DUP4 ADD MLOAD DUP5 DUP3 SUB PUSH1 0x80 DUP7 ADD MSTORE PUSH2 0x34FB DUP3 DUP3 PUSH2 0x3447 JUMP JUMPDEST SWAP2 POP POP PUSH1 0xA0 DUP4 ADD MLOAD DUP5 DUP3 SUB PUSH1 0xA0 DUP7 ADD MSTORE PUSH2 0x3515 DUP3 DUP3 PUSH2 0x3447 JUMP JUMPDEST SWAP2 POP POP PUSH1 0xC0 DUP4 ADD MLOAD DUP5 DUP3 SUB PUSH1 0xC0 DUP7 ADD MSTORE PUSH2 0x352F DUP3 DUP3 PUSH2 0x3447 JUMP JUMPDEST SWAP2 POP POP PUSH1 0xE0 DUP4 ADD MLOAD DUP5 DUP3 SUB PUSH1 0xE0 DUP7 ADD MSTORE PUSH2 0x3549 DUP3 DUP3 PUSH2 0x3447 JUMP JUMPDEST SWAP2 POP POP PUSH2 0x100 DUP1 DUP5 ADD MLOAD DUP6 DUP4 SUB DUP3 DUP8 ADD MSTORE PUSH2 0x3564 DUP4 DUP3 PUSH2 0x3447 JUMP JUMPDEST SWAP3 POP POP POP PUSH2 0x120 DUP1 DUP5 ADD MLOAD DUP6 DUP4 SUB DUP3 DUP8 ADD MSTORE PUSH2 0x3580 DUP4 DUP3 PUSH2 0x3447 JUMP JUMPDEST PUSH2 0x140 DUP7 DUP2 ADD MLOAD SWAP1 DUP9 ADD MSTORE PUSH2 0x160 SWAP6 DUP7 ADD MLOAD SWAP6 SWAP1 SWAP7 ADD SWAP5 SWAP1 SWAP5 MSTORE POP SWAP3 SWAP4 SWAP3 POP POP POP JUMP JUMPDEST PUSH1 0x20 DUP2 MSTORE PUSH1 0x0 PUSH2 0x32D0 PUSH1 0x20 DUP4 ADD DUP5 PUSH2 0x3494 JUMP JUMPDEST DUP1 MLOAD DUP3 MSTORE PUSH1 0x20 DUP2 ADD MLOAD PUSH1 0x20 DUP4 ADD MSTORE PUSH1 0x40 DUP2 ADD MLOAD PUSH1 0x1 DUP1 PUSH1 0xA0 SHL SUB DUP1 DUP3 AND PUSH1 0x40 DUP6 ADD MSTORE DUP1 PUSH1 0x60 DUP5 ADD MLOAD AND PUSH1 0x60 DUP6 ADD MSTORE POP POP PUSH1 0x80 DUP2 ADD MLOAD PUSH1 0x80 DUP4 ADD MSTORE PUSH1 0xA0 DUP2 ADD MLOAD PUSH1 0xA0 DUP4 ADD MSTORE PUSH1 0xC0 DUP2 ADD MLOAD ISZERO ISZERO PUSH1 0xC0 DUP4 ADD MSTORE PUSH1 0xE0 DUP2 ADD MLOAD PUSH2 0x3619 PUSH1 0xE0 DUP5 ADD DUP3 ISZERO ISZERO SWAP1 MSTORE JUMP JUMPDEST POP PUSH2 0x100 SWAP1 DUP2 ADD MLOAD ISZERO ISZERO SWAP2 ADD MSTORE JUMP JUMPDEST PUSH2 0x120 DUP2 ADD PUSH2 0x3637 DUP3 DUP5 PUSH2 0x35B6 JUMP JUMPDEST SWAP3 SWAP2 POP POP JUMP JUMPDEST PUSH1 0x0 DUP1 PUSH1 0x0 PUSH1 0x60 DUP5 DUP7 SUB SLT ISZERO PUSH2 0x3652 JUMPI PUSH1 0x0 DUP1 REVERT JUMPDEST POP POP DUP2 CALLDATALOAD SWAP4 PUSH1 0x20 DUP4 ADD CALLDATALOAD SWAP4 POP PUSH1 0x40 SWAP1 SWAP3 ADD CALLDATALOAD SWAP2 SWAP1 POP JUMP JUMPDEST PUSH4 0x4E487B71 PUSH1 0xE0 SHL PUSH1 0x0 MSTORE PUSH1 0x41 PUSH1 0x4 MSTORE PUSH1 0x24 PUSH1 0x0 REVERT JUMPDEST PUSH1 0x0 DUP3 PUSH1 0x1F DUP4 ADD SLT PUSH2 0x3690 JUMPI PUSH1 0x0 DUP1 REVERT JUMPDEST DUP2 CALLDATALOAD PUSH1 0x1 PUSH1 0x1 PUSH1 0x40 SHL SUB DUP1 DUP3 GT ISZERO PUSH2 0x36AA JUMPI PUSH2 0x36AA PUSH2 0x3669 JUMP JUMPDEST PUSH1 0x40 MLOAD PUSH1 0x1F DUP4 ADD PUSH1 0x1F NOT SWAP1 DUP2 AND PUSH1 0x3F ADD AND DUP2 ADD SWAP1 DUP3 DUP3 GT DUP2 DUP4 LT OR ISZERO PUSH2 0x36D2 JUMPI PUSH2 0x36D2 PUSH2 0x3669 JUMP JUMPDEST DUP2 PUSH1 0x40 MSTORE DUP4 DUP2 MSTORE DUP7 PUSH1 0x20 DUP6 DUP9 ADD ADD GT ISZERO PUSH2 0x36EB JUMPI PUSH1 0x0 DUP1 REVERT JUMPDEST DUP4 PUSH1 0x20 DUP8 ADD PUSH1 0x20 DUP4 ADD CALLDATACOPY PUSH1 0x0 PUSH1 0x20 DUP6 DUP4 ADD ADD MSTORE DUP1 SWAP5 POP POP POP POP POP SWAP3 SWAP2 POP POP JUMP JUMPDEST PUSH1 0x0 DUP1 PUSH1 0x0 DUP1 PUSH1 0x0 DUP1 PUSH1 0x0 DUP1 PUSH1 0x0 DUP1 PUSH2 0x140 DUP12 DUP14 SUB SLT ISZERO PUSH2 0x372B JUMPI PUSH1 0x0 DUP1 REVERT JUMPDEST DUP11 CALLDATALOAD PUSH1 0x1 PUSH1 0x1 PUSH1 0x40 SHL SUB DUP1 DUP3 GT ISZERO PUSH2 0x3742 JUMPI PUSH1 0x0 DUP1 REVERT JUMPDEST PUSH2 0x374E DUP15 DUP4 DUP16 ADD PUSH2 0x367F JUMP JUMPDEST SWAP12 POP PUSH1 0x20 DUP14 ADD CALLDATALOAD SWAP2 POP DUP1 DUP3 GT ISZERO PUSH2 0x3764 JUMPI PUSH1 0x0 DUP1 REVERT JUMPDEST PUSH2 0x3770 DUP15 DUP4 DUP16 ADD PUSH2 0x367F JUMP JUMPDEST SWAP11 POP PUSH1 0x40 DUP14 ADD CALLDATALOAD SWAP2 POP DUP1 DUP3 GT ISZERO PUSH2 0x3786 JUMPI PUSH1 0x0 DUP1 REVERT JUMPDEST PUSH2 0x3792 DUP15 DUP4 DUP16 ADD PUSH2 0x367F JUMP JUMPDEST SWAP10 POP PUSH1 0x60 DUP14 ADD CALLDATALOAD SWAP2 POP DUP1 DUP3 GT ISZERO PUSH2 0x37A8 JUMPI PUSH1 0x0 DUP1 REVERT JUMPDEST PUSH2 0x37B4 DUP15 DUP4 DUP16 ADD PUSH2 0x367F JUMP JUMPDEST SWAP9 POP PUSH1 0x80 DUP14 ADD CALLDATALOAD SWAP2 POP DUP1 DUP3 GT ISZERO PUSH2 0x37CA JUMPI PUSH1 0x0 DUP1 REVERT JUMPDEST PUSH2 0x37D6 DUP15 DUP4 DUP16 ADD PUSH2 0x367F JUMP JUMPDEST SWAP8 POP PUSH1 0xA0 DUP14 ADD CALLDATALOAD SWAP2 POP DUP1 DUP3 GT ISZERO PUSH2 0x37EC JUMPI PUSH1 0x0 DUP1 REVERT JUMPDEST PUSH2 0x37F8 DUP15 DUP4 DUP16 ADD PUSH2 0x367F JUMP JUMPDEST SWAP7 POP PUSH1 0xC0 DUP14 ADD CALLDATALOAD SWAP2 POP DUP1 DUP3 GT ISZERO PUSH2 0x380E JUMPI PUSH1 0x0 DUP1 REVERT JUMPDEST PUSH2 0x381A DUP15 DUP4 DUP16 ADD PUSH2 0x367F JUMP JUMPDEST SWAP6 POP PUSH1 0xE0 DUP14 ADD CALLDATALOAD SWAP2 POP DUP1 DUP3 GT ISZERO PUSH2 0x3830 JUMPI PUSH1 0x0 DUP1 REVERT JUMPDEST POP PUSH2 0x383D DUP14 DUP3 DUP15 ADD PUSH2 0x367F JUMP JUMPDEST SWAP4 POP POP PUSH2 0x100 DUP12 ADD CALLDATALOAD SWAP2 POP PUSH2 0x120 DUP12 ADD CALLDATALOAD SWAP1 POP SWAP3 SWAP6 SWAP9 SWAP12 SWAP2 SWAP5 SWAP8 SWAP11 POP SWAP3 SWAP6 SWAP9 POP JUMP JUMPDEST PUSH1 0x0 PUSH1 0x20 DUP1 DUP4 ADD DUP2 DUP5 MSTORE DUP1 DUP6 MLOAD DUP1 DUP4 MSTORE PUSH1 0x40 DUP7 ADD SWAP2 POP PUSH1 0x40 DUP2 PUSH1 0x5 SHL DUP8 ADD ADD SWAP3 POP DUP4 DUP8 ADD PUSH1 0x0 JUMPDEST DUP3 DUP2 LT ISZERO PUSH2 0x38B4 JUMPI PUSH1 0x3F NOT DUP9 DUP7 SUB ADD DUP5 MSTORE PUSH2 0x38A2 DUP6 DUP4 MLOAD PUSH2 0x3494 JUMP JUMPDEST SWAP5 POP SWAP3 DUP6 ADD SWAP3 SWAP1 DUP6 ADD SWAP1 PUSH1 0x1 ADD PUSH2 0x3886 JUMP JUMPDEST POP SWAP3 SWAP8 SWAP7 POP POP POP POP POP POP POP JUMP JUMPDEST PUSH1 0x20 DUP1 DUP3 MSTORE DUP3 MLOAD DUP3 DUP3 ADD DUP2 SWAP1 MSTORE PUSH1 0x0 SWAP2 SWAP1 DUP5 DUP3 ADD SWAP1 PUSH1 0x40 DUP6 ADD SWAP1 DUP5 JUMPDEST DUP2 DUP2 LT ISZERO PUSH2 0x3904 JUMPI PUSH2 0x38F0 DUP4 DUP6 MLOAD PUSH2 0x35B6 JUMP JUMPDEST SWAP3 DUP5 ADD SWAP3 PUSH2 0x120 SWAP3 SWAP1 SWAP3 ADD SWAP2 PUSH1 0x1 ADD PUSH2 0x38DD JUMP JUMPDEST POP SWAP1 SWAP7 SWAP6 POP POP POP POP POP POP JUMP JUMPDEST PUSH1 0x0 DUP1 PUSH1 0x0 DUP1 PUSH1 0x0 DUP1 PUSH1 0x0 DUP1 PUSH1 0x0 DUP1 PUSH1 0x0 PUSH2 0x160 DUP13 DUP15 SUB SLT ISZERO PUSH2 0x3932 JUMPI PUSH1 0x0 DUP1 REVERT JUMPDEST DUP12 CALLDATALOAD SWAP11 POP PUSH1 0x1 PUSH1 0x1 PUSH1 0x40 SHL SUB DUP1 PUSH1 0x20 DUP15 ADD CALLDATALOAD GT ISZERO PUSH2 0x394F JUMPI PUSH1 0x0 DUP1 REVERT JUMPDEST PUSH2 0x395F DUP15 PUSH1 0x20 DUP16 ADD CALLDATALOAD DUP16 ADD PUSH2 0x367F JUMP JUMPDEST SWAP11 POP DUP1 PUSH1 0x40 DUP15 ADD CALLDATALOAD GT ISZERO PUSH2 0x3972 JUMPI PUSH1 0x0 DUP1 REVERT JUMPDEST PUSH2 0x3982 DUP15 PUSH1 0x40 DUP16 ADD CALLDATALOAD DUP16 ADD PUSH2 0x367F JUMP JUMPDEST SWAP10 POP DUP1 PUSH1 0x60 DUP15 ADD CALLDATALOAD GT ISZERO PUSH2 0x3995 JUMPI PUSH1 0x0 DUP1 REVERT JUMPDEST PUSH2 0x39A5 DUP15 PUSH1 0x60 DUP16 ADD CALLDATALOAD DUP16 ADD PUSH2 0x367F JUMP JUMPDEST SWAP9 POP DUP1 PUSH1 0x80 DUP15 ADD CALLDATALOAD GT ISZERO PUSH2 0x39B8 JUMPI PUSH1 0x0 DUP1 REVERT JUMPDEST PUSH2 0x39C8 DUP15 PUSH1 0x80 DUP16 ADD CALLDATALOAD DUP16 ADD PUSH2 0x367F JUMP JUMPDEST SWAP8 POP DUP1 PUSH1 0xA0 DUP15 ADD CALLDATALOAD GT ISZERO PUSH2 0x39DB JUMPI PUSH1 0x0 DUP1 REVERT JUMPDEST PUSH2 0x39EB DUP15 PUSH1 0xA0 DUP16 ADD CALLDATALOAD DUP16 ADD PUSH2 0x367F JUMP JUMPDEST SWAP7 POP DUP1 PUSH1 0xC0 DUP15 ADD CALLDATALOAD GT ISZERO PUSH2 0x39FE JUMPI PUSH1 0x0 DUP1 REVERT JUMPDEST PUSH2 0x3A0E DUP15 PUSH1 0xC0 DUP16 ADD CALLDATALOAD DUP16 ADD PUSH2 0x367F JUMP JUMPDEST SWAP6 POP DUP1 PUSH1 0xE0 DUP15 ADD CALLDATALOAD GT ISZERO PUSH2 0x3A21 JUMPI PUSH1 0x0 DUP1 REVERT JUMPDEST PUSH2 0x3A31 DUP15 PUSH1 0xE0 DUP16 ADD CALLDATALOAD DUP16 ADD PUSH2 0x367F JUMP JUMPDEST SWAP5 POP DUP1 PUSH2 0x100 DUP15 ADD CALLDATALOAD GT ISZERO PUSH2 0x3A45 JUMPI PUSH1 0x0 DUP1 REVERT JUMPDEST POP PUSH2 0x3A57 DUP14 PUSH2 0x100 DUP15 ADD CALLDATALOAD DUP15 ADD PUSH2 0x367F JUMP JUMPDEST SWAP3 POP PUSH2 0x120 DUP13 ADD CALLDATALOAD SWAP2 POP PUSH2 0x140 DUP13 ADD CALLDATALOAD SWAP1 POP SWAP3 SWAP6 SWAP9 SWAP12 POP SWAP3 SWAP6 SWAP9 SWAP12 SWAP1 SWAP4 SWAP7 SWAP10 POP JUMP JUMPDEST PUSH1 0x0 PUSH2 0x180 DUP15 DUP4 MSTORE PUSH2 0x3A8E PUSH1 0x20 DUP5 ADD DUP16 PUSH2 0x343A JUMP JUMPDEST DUP1 PUSH1 0x40 DUP5 ADD MSTORE PUSH2 0x3AA0 DUP2 DUP5 ADD DUP15 PUSH2 0x3447 JUMP JUMPDEST SWAP1 POP DUP3 DUP2 SUB PUSH1 0x60 DUP5 ADD MSTORE PUSH2 0x3AB4 DUP2 DUP14 PUSH2 0x3447 JUMP JUMPDEST SWAP1 POP DUP3 DUP2 SUB PUSH1 0x80 DUP5 ADD MSTORE PUSH2 0x3AC8 DUP2 DUP13 PUSH2 0x3447 JUMP JUMPDEST SWAP1 POP DUP3 DUP2 SUB PUSH1 0xA0 DUP5 ADD MSTORE PUSH2 0x3ADC DUP2 DUP12 PUSH2 0x3447 JUMP JUMPDEST SWAP1 POP DUP3 DUP2 SUB PUSH1 0xC0 DUP5 ADD MSTORE PUSH2 0x3AF0 DUP2 DUP11 PUSH2 0x3447 JUMP JUMPDEST SWAP1 POP DUP3 DUP2 SUB PUSH1 0xE0 DUP5 ADD MSTORE PUSH2 0x3B04 DUP2 DUP10 PUSH2 0x3447 JUMP JUMPDEST SWAP1 POP DUP3 DUP2 SUB PUSH2 0x100 DUP5 ADD MSTORE PUSH2 0x3B19 DUP2 DUP9 PUSH2 0x3447 JUMP JUMPDEST SWAP1 POP DUP3 DUP2 SUB PUSH2 0x120 DUP5 ADD MSTORE PUSH2 0x3B2E DUP2 DUP8 PUSH2 0x3447 JUMP JUMPDEST PUSH2 0x140 DUP5 ADD SWAP6 SWAP1 SWAP6 MSTORE POP POP PUSH2 0x160 ADD MSTORE SWAP11 SWAP10 POP POP POP POP POP POP POP POP POP POP JUMP JUMPDEST PUSH4 0x4E487B71 PUSH1 0xE0 SHL PUSH1 0x0 MSTORE PUSH1 0x32 PUSH1 0x4 MSTORE PUSH1 0x24 PUSH1 0x0 REVERT JUMPDEST PUSH1 0x1 DUP2 DUP2 SHR SWAP1 DUP3 AND DUP1 PUSH2 0x3B76 JUMPI PUSH1 0x7F DUP3 AND SWAP2 POP JUMPDEST PUSH1 0x20 DUP3 LT DUP2 EQ ISZERO PUSH2 0x9AA JUMPI PUSH4 0x4E487B71 PUSH1 0xE0 SHL PUSH1 0x0 MSTORE PUSH1 0x22 PUSH1 0x4 MSTORE PUSH1 0x24 PUSH1 0x0 REVERT JUMPDEST PUSH4 0x4E487B71 PUSH1 0xE0 SHL PUSH1 0x0 MSTORE PUSH1 0x11 PUSH1 0x4 MSTORE PUSH1 0x24 PUSH1 0x0 REVERT JUMPDEST PUSH1 0x0 DUP3 DUP3 LT ISZERO PUSH2 0x3BBF JUMPI PUSH2 0x3BBF PUSH2 0x3B97 JUMP JUMPDEST POP SUB SWAP1 JUMP JUMPDEST PUSH1 0x0 DUP3 PUSH2 0x3BE1 JUMPI PUSH4 0x4E487B71 PUSH1 0xE0 SHL PUSH1 0x0 MSTORE PUSH1 0x12 PUSH1 0x4 MSTORE PUSH1 0x24 PUSH1 0x0 REVERT JUMPDEST POP DIV SWAP1 JUMP JUMPDEST PUSH1 0x0 DUP2 PUSH1 0x0 NOT DIV DUP4 GT DUP3 ISZERO ISZERO AND ISZERO PUSH2 0x3C00 JUMPI PUSH2 0x3C00 PUSH2 0x3B97 JUMP JUMPDEST POP MUL SWAP1 JUMP JUMPDEST PUSH1 0x0 PUSH1 0x0 NOT DUP3 EQ ISZERO PUSH2 0x3C19 JUMPI PUSH2 0x3C19 PUSH2 0x3B97 JUMP JUMPDEST POP PUSH1 0x1 ADD SWAP1 JUMP JUMPDEST DUP14 DUP2 MSTORE PUSH2 0x3C30 PUSH1 0x20 DUP3 ADD DUP15 PUSH2 0x343A JUMP JUMPDEST PUSH2 0x1A0 PUSH1 0x40 DUP3 ADD MSTORE PUSH1 0x0 PUSH2 0x3C48 PUSH2 0x1A0 DUP4 ADD DUP15 PUSH2 0x3447 JUMP JUMPDEST DUP3 DUP2 SUB PUSH1 0x60 DUP5 ADD MSTORE PUSH2 0x3C5A DUP2 DUP15 PUSH2 0x3447 JUMP JUMPDEST SWAP1 POP DUP3 DUP2 SUB PUSH1 0x80 DUP5 ADD MSTORE PUSH2 0x3C6E DUP2 DUP14 PUSH2 0x3447 JUMP JUMPDEST SWAP1 POP DUP3 DUP2 SUB PUSH1 0xA0 DUP5 ADD MSTORE PUSH2 0x3C82 DUP2 DUP13 PUSH2 0x3447 JUMP JUMPDEST SWAP1 POP DUP3 DUP2 SUB PUSH1 0xC0 DUP5 ADD MSTORE PUSH2 0x3C96 DUP2 DUP12 PUSH2 0x3447 JUMP JUMPDEST SWAP1 POP DUP3 DUP2 SUB PUSH1 0xE0 DUP5 ADD MSTORE PUSH2 0x3CAA DUP2 DUP11 PUSH2 0x3447 JUMP JUMPDEST SWAP1 POP DUP3 DUP2 SUB PUSH2 0x100 DUP5 ADD MSTORE PUSH2 0x3CBF DUP2 DUP10 PUSH2 0x3447 JUMP JUMPDEST SWAP1 POP DUP3 DUP2 SUB PUSH2 0x120 DUP5 ADD MSTORE PUSH2 0x3CD4 DUP2 DUP9 PUSH2 0x3447 JUMP JUMPDEST PUSH2 0x140 DUP5 ADD SWAP7 SWAP1 SWAP7 MSTORE POP POP PUSH2 0x160 DUP2 ADD SWAP3 SWAP1 SWAP3 MSTORE PUSH2 0x180 SWAP1 SWAP2 ADD MSTORE SWAP11 SWAP10 POP POP POP POP POP POP POP POP POP POP JUMP JUMPDEST PUSH1 0x1 DUP2 DUP2 JUMPDEST DUP1 DUP6 GT ISZERO PUSH2 0x3D38 JUMPI DUP2 PUSH1 0x0 NOT DIV DUP3 GT ISZERO PUSH2 0x3D1E JUMPI PUSH2 0x3D1E PUSH2 0x3B97 JUMP JUMPDEST DUP1 DUP6 AND ISZERO PUSH2 0x3D2B JUMPI SWAP2 DUP2 MUL SWAP2 JUMPDEST SWAP4 DUP5 SHR SWAP4 SWAP1 DUP1 MUL SWAP1 PUSH2 0x3D02 JUMP JUMPDEST POP SWAP3 POP SWAP3 SWAP1 POP JUMP JUMPDEST PUSH1 0x0 DUP3 PUSH2 0x3D4F JUMPI POP PUSH1 0x1 PUSH2 0x3637 JUMP JUMPDEST DUP2 PUSH2 0x3D5C JUMPI POP PUSH1 0x0 PUSH2 0x3637 JUMP JUMPDEST DUP2 PUSH1 0x1 DUP2 EQ PUSH2 0x3D72 JUMPI PUSH1 0x2 DUP2 EQ PUSH2 0x3D7C JUMPI PUSH2 0x3D98 JUMP JUMPDEST PUSH1 0x1 SWAP2 POP POP PUSH2 0x3637 JUMP JUMPDEST PUSH1 0xFF DUP5 GT ISZERO PUSH2 0x3D8D JUMPI PUSH2 0x3D8D PUSH2 0x3B97 JUMP JUMPDEST POP POP PUSH1 0x1 DUP3 SHL PUSH2 0x3637 JUMP JUMPDEST POP PUSH1 0x20 DUP4 LT PUSH2 0x133 DUP4 LT AND PUSH1 0x4E DUP5 LT PUSH1 0xB DUP5 LT AND OR ISZERO PUSH2 0x3DBB JUMPI POP DUP2 DUP2 EXP PUSH2 0x3637 JUMP JUMPDEST PUSH2 0x3DC5 DUP4 DUP4 PUSH2 0x3CFD JUMP JUMPDEST DUP1 PUSH1 0x0 NOT DIV DUP3 GT ISZERO PUSH2 0x3DD9 JUMPI PUSH2 0x3DD9 PUSH2 0x3B97 JUMP JUMPDEST MUL SWAP4 SWAP3 POP POP POP JUMP JUMPDEST PUSH1 0x0 PUSH2 0x32D0 DUP4 DUP4 PUSH2 0x3D40 JUMP JUMPDEST DUP1 MLOAD PUSH1 0x1 PUSH1 0x1 PUSH1 0x50 SHL SUB DUP2 AND DUP2 EQ PUSH2 0x3E04 JUMPI PUSH1 0x0 DUP1 REVERT JUMPDEST SWAP2 SWAP1 POP JUMP JUMPDEST PUSH1 0x0 DUP1 PUSH1 0x0 DUP1 PUSH1 0x0 PUSH1 0xA0 DUP7 DUP9 SUB SLT ISZERO PUSH2 0x3E21 JUMPI PUSH1 0x0 DUP1 REVERT JUMPDEST PUSH2 0x3E2A DUP7 PUSH2 0x3DED JUMP JUMPDEST SWAP5 POP PUSH1 0x20 DUP7 ADD MLOAD SWAP4 POP PUSH1 0x40 DUP7 ADD MLOAD SWAP3 POP PUSH1 0x60 DUP7 ADD MLOAD SWAP2 POP PUSH2 0x3E4D PUSH1 0x80 DUP8 ADD PUSH2 0x3DED JUMP JUMPDEST SWAP1 POP SWAP3 SWAP6 POP SWAP3 SWAP6 SWAP1 SWAP4 POP JUMP JUMPDEST PUSH1 0x0 PUSH1 0x20 DUP3 DUP5 SUB SLT ISZERO PUSH2 0x3E6B JUMPI PUSH1 0x0 DUP1 REVERT JUMPDEST DUP2 MLOAD PUSH1 0xFF DUP2 AND DUP2 EQ PUSH2 0x32D0 JUMPI PUSH1 0x0 DUP1 REVERT JUMPDEST PUSH1 0x0 DUP3 NOT DUP3 GT ISZERO PUSH2 0x3E8F JUMPI PUSH2 0x3E8F PUSH2 0x3B97 JUMP JUMPDEST POP ADD SWAP1 JUMP INVALID LOG2 PUSH5 0x6970667358 0x22 SLT KECCAK256 0x22 0xD7 0x2F 0xE0 0xC7 0xF9 RETURNDATACOPY PUSH14 0x4A692D48D6EACE14E2FC6A701931 0xFC 0x2B 0xB4 CALLVALUE 0xEE DUP4 0xEB 0xAA PUSH14 0xBB64736F6C634300080A00330000 "},"methodIdentifiers":{"addRental(string,string,string,string,string,string,string,string,uint256,uint256)":"5a576b5f","admin()":"f851a440","bookDates(uint256,uint256,uint256)":"46e6e5fb","cancelBooking(uint256)":"0dca825e","changeListingFee(uint256)":"77f25f6f","confirmCancelBooking(uint256)":"c10e6750","convertFromUSD(uint256)":"95b36670","editRental(uint256,string,string,string,string,string,string,string,string,uint256,uint256)":"7402dfcb","getPrice()":"98d5fdca","getRentalBooking(uint256)":"2ab4817a","getRentalBookings()":"6ad54207","getRentalInfo(uint256)":"27dc3fbd","getRentals()":"5ea5da20","listingFee()":"6a1b7ecc","priceFeedAddress()":"e0abca0b","removeHome(uint256)":"e284af24","rentalBookings(uint256)":"438100d4","rentals(uint256)":"af94a1d1","withdrawBalance()":"5fd8c710"}}}}}