{
  "_format": "hh-sol-artifact-1",
  "contractName": "MockV3Aggregator",
  "sourceName": "@chainlink/contracts/src/v0.6/tests/MockV3Aggregator.sol",
  "abi": [
    {
      "inputs": [
        {
          "internalType": "uint8",
          "name": "_decimals",
          "type": "uint8"
        },
        {
          "internalType": "int256",
          "name": "_initialAnswer",
          "type": "int256"
        }
      ],
      "stateMutability": "nonpayable",
      "type": "constructor"
    },
    {
      "anonymous": false,
      "inputs": [
        {
          "indexed": true,
          "internalType": "int256",
          "name": "current",
          "type": "int256"
        },
        {
          "indexed": true,
          "internalType": "uint256",
          "name": "roundId",
          "type": "uint256"
        },
        {
          "indexed": false,
          "internalType": "uint256",
          "name": "updatedAt",
          "type": "uint256"
        }
      ],
      "name": "AnswerUpdated",
      "type": "event"
    },
    {
      "anonymous": false,
      "inputs": [
        {
          "indexed": true,
          "internalType": "uint256",
          "name": "roundId",
          "type": "uint256"
        },
        {
          "indexed": true,
          "internalType": "address",
          "name": "startedBy",
          "type": "address"
        },
        {
          "indexed": false,
          "internalType": "uint256",
          "name": "startedAt",
          "type": "uint256"
        }
      ],
      "name": "NewRound",
      "type": "event"
    },
    {
      "inputs": [],
      "name": "decimals",
      "outputs": [
        {
          "internalType": "uint8",
          "name": "",
          "type": "uint8"
        }
      ],
      "stateMutability": "view",
      "type": "function"
    },
    {
      "inputs": [],
      "name": "description",
      "outputs": [
        {
          "internalType": "string",
          "name": "",
          "type": "string"
        }
      ],
      "stateMutability": "view",
      "type": "function"
    },
    {
      "inputs": [
        {
          "internalType": "uint256",
          "name": "",
          "type": "uint256"
        }
      ],
      "name": "getAnswer",
      "outputs": [
        {
          "internalType": "int256",
          "name": "",
          "type": "int256"
        }
      ],
      "stateMutability": "view",
      "type": "function"
    },
    {
      "inputs": [
        {
          "internalType": "uint80",
          "name": "_roundId",
          "type": "uint80"
        }
      ],
      "name": "getRoundData",
      "outputs": [
        {
          "internalType": "uint80",
          "name": "roundId",
          "type": "uint80"
        },
        {
          "internalType": "int256",
          "name": "answer",
          "type": "int256"
        },
        {
          "internalType": "uint256",
          "name": "startedAt",
          "type": "uint256"
        },
        {
          "internalType": "uint256",
          "name": "updatedAt",
          "type": "uint256"
        },
        {
          "internalType": "uint80",
          "name": "answeredInRound",
          "type": "uint80"
        }
      ],
      "stateMutability": "view",
      "type": "function"
    },
    {
      "inputs": [
        {
          "internalType": "uint256",
          "name": "",
          "type": "uint256"
        }
      ],
      "name": "getTimestamp",
      "outputs": [
        {
          "internalType": "uint256",
          "name": "",
          "type": "uint256"
        }
      ],
      "stateMutability": "view",
      "type": "function"
    },
    {
      "inputs": [],
      "name": "latestAnswer",
      "outputs": [
        {
          "internalType": "int256",
          "name": "",
          "type": "int256"
        }
      ],
      "stateMutability": "view",
      "type": "function"
    },
    {
      "inputs": [],
      "name": "latestRound",
      "outputs": [
        {
          "internalType": "uint256",
          "name": "",
          "type": "uint256"
        }
      ],
      "stateMutability": "view",
      "type": "function"
    },
    {
      "inputs": [],
      "name": "latestRoundData",
      "outputs": [
        {
          "internalType": "uint80",
          "name": "roundId",
          "type": "uint80"
        },
        {
          "internalType": "int256",
          "name": "answer",
          "type": "int256"
        },
        {
          "internalType": "uint256",
          "name": "startedAt",
          "type": "uint256"
        },
        {
          "internalType": "uint256",
          "name": "updatedAt",
          "type": "uint256"
        },
        {
          "internalType": "uint80",
          "name": "answeredInRound",
          "type": "uint80"
        }
      ],
      "stateMutability": "view",
      "type": "function"
    },
    {
      "inputs": [],
      "name": "latestTimestamp",
      "outputs": [
        {
          "internalType": "uint256",
          "name": "",
          "type": "uint256"
        }
      ],
      "stateMutability": "view",
      "type": "function"
    },
    {
      "inputs": [
        {
          "internalType": "int256",
          "name": "_answer",
          "type": "int256"
        }
      ],
      "name": "updateAnswer",
      "outputs": [],
      "stateMutability": "nonpayable",
      "type": "function"
    },
    {
      "inputs": [
        {
          "internalType": "uint80",
          "name": "_roundId",
          "type": "uint80"
        },
        {
          "internalType": "int256",
          "name": "_answer",
          "type": "int256"
        },
        {
          "internalType": "uint256",
          "name": "_timestamp",
          "type": "uint256"
        },
        {
          "internalType": "uint256",
          "name": "_startedAt",
          "type": "uint256"
        }
      ],
      "name": "updateRoundData",
      "outputs": [],
      "stateMutability": "nonpayable",
      "type": "function"
    },
    {
      "inputs": [],
      "name": "version",
      "outputs": [
        {
          "internalType": "uint256",
          "name": "",
          "type": "uint256"
        }
      ],
      "stateMutability": "view",
      "type": "function"
    }
  ],
  "bytecode": "0x608060405234801561001057600080fd5b506040516104c73803806104c78339818101604052604081101561003357600080fd5b5080516020909101516000805460ff191660ff84161790556100548161005b565b50506100a2565b600181815542600281905560038054909201808355600090815260046020908152604080832095909555835482526005815284822083905592548152600690925291902055565b610416806100b16000396000f3fe608060405234801561001057600080fd5b50600436106100a45760003560e01c8063313ce567146100a95780634aa2011f146100c757806350d25bcd1461010157806354fd4d501461011b578063668a0f02146101235780637284e4161461012b5780638205bf6a146101a85780639a6fc8f5146101b0578063a87a20ce14610212578063b5ab58dc1461022f578063b633620c1461024c578063feaf968c14610269575b600080fd5b6100b1610271565b6040805160ff9092168252519081900360200190f35b6100ff600480360360808110156100dd57600080fd5b506001600160501b03813516906020810135906040810135906060013561027a565b005b6101096102c4565b60408051918252519081900360200190f35b6101096102ca565b6101096102cf565b6101336102d5565b6040805160208082528351818301528351919283929083019185019080838360005b8381101561016d578181015183820152602001610155565b50505050905090810190601f16801561019a5780820380516001836020036101000a031916815260200191505b509250505060405180910390f35b61010961030c565b6101d6600480360360208110156101c657600080fd5b50356001600160501b0316610312565b604080516001600160501b0396871681526020810195909552848101939093526060840191909152909216608082015290519081900360a00190f35b6100ff6004803603602081101561022857600080fd5b5035610348565b6101096004803603602081101561024557600080fd5b503561038f565b6101096004803603602081101561026257600080fd5b50356103a1565b6101d66103b3565b60005460ff1681565b6001600160501b0390931660038181556001849055600283905560009182526004602090815260408084209590955581548352600581528483209390935554815260069091522055565b60015481565b600081565b60035481565b60408051808201909152601f81527f76302e362f74657374732f4d6f636b563341676772656761746f722e736f6c00602082015290565b60025481565b6001600160501b038116600090815260046020908152604080832054600683528184205460059093529220549293919290918490565b600181815542600281905560038054909201808355600090815260046020908152604080832095909555835482526005815284822083905592548152600690925291902055565b60046020526000908152604090205481565b60056020526000908152604090205481565b6003546000818152600460209081526040808320546006835281842054600590935292205483909192939456fea2646970667358221220a5cb37ad7b19942d6d2d6b822ff7077c95268f30c12dee5b177bb89523aab45964736f6c63430006060033",
  "linkReferences": {},
  "deployedLinkReferences": {}
}